:020000040800F2
:10000000B0040020AD0100086B0E0008E50D0008EB
:10001000690E0008B902000835130008000000004E
:100020000000000000000000000000006F0E00084B
:10003000BB020008000000006D0E0008710E0008F1
:10004000C7010008C7010008C7010008C701000870
:10005000C7010008C7010008C7010008C701000860
:10006000C7010008C7010008C7010008C701000850
:10007000C7010008C7010008C7010008C701000840
:10008000C7010008C7010008C70100080000000000
:10009000000000000000000000000000C701000890
:1000A000C7010008C7010008C7010008C701000810
:1000B000C7010008C7010008C7010008C701000800
:1000C000C7010008C7010008C7010008C7010008F0
:1000D000C70100081D1300082913000800000000D4
:1000E000C7010008C7010008C701000800000000A0
:1000F000000000000000000000000000C701000830
:1001000000000000C7010008C7010008C70100087F
:1001100000000000000000000000000000000000DF
:10012000C7010008C7010008C7010008C70100088F
:10013000C7010008000000000000000000000000EF
:10014000000000000000000000000000C7010008DF
:10015000C7010008C7010008C7010008C70100085F
:10016000C7010008C70100080000000000000000EF
:10017000000000000000000000000000000000007F
:1001800000000000C701000800000000000000009F
:10019000C7010008C7010008DFF80CD000F07AF8AA
:1001A0000048004775130008B00400200648804747
:1001B00006480047FEE7FEE7FEE7FEE7FEE7FEE74C
:1001C000FEE7FEE7FEE7FEE7F50E000899010008EE
:1001D0002DE9F05F0546002092469B46884606467C
:1001E000814640241BE0284641464746224600F00F
:1001F00041F853465A46C01A914110D31146184649
:10020000224600F028F82D1A67EB01084F462246D7
:100210000120002100F01FF817EB00094E41201EBD
:10022000A4F10104DFDC484631462A464346BDE8D6
:10023000F09FD2B201E000F8012B491EFBD27047BB
:100240000022F6E710B513460A4604461946FFF7A2
:10025000F0FF204610BD202A04DB203A00FA02F10C
:10026000002070479140C2F1200320FA03F31943A4
:1002700090407047202A04DB203A21FA02F0002146
:10028000704721FA02F3D040C2F1200291400843A6
:1002900019467047064C074D06E0E06840F0010340
:1002A00094E8070098471034AC42F6D3FFF778FF84
:1002B0001014000830140008FEE7704790F835105D
:1002C000022903D08021416501207047052180F873
:1002D00035100068016821F00101016000207047BD
:1002E00070B5044600F0D8F80546601C02D00448FA
:1002F0000078044400F0D0F8401BA042FAD370BD4F
:100300000C0000202DE9F84FDFF860B100224FF01B
:1003100001084FF0030A4FF00F090BF1040E00BF64
:100320000B6808FA02F42340A3426ED14D68022DF7
:1003300001D0122D0ED1D50800EB850CDCF8205031
:100340005607F70E09FA07F6B5430E69BE402E436D
:10035000CCF82060066855000F790AFA05FC07F012
:10036000030726EA0C06AF40374307604E68012EAC
:1003700005D0022E03D0112E01D0122E0ED1866888
:10038000CF6826EA0C06AF40374387604668A6432D
:100390000C79C4F30014944034434460C6688C68FC
:1003A00026EA0C06AC403443C4604C68E40056D5E1
:1003B0002F4C256845F480452560246822F003050C
:1003C00004F4804400942B4C2E19D6F80848950765
:1003D0002F0F09FA07F5AC43274DA84201D100259C
:1003E00015E0264DA84201D1012510E0244DA84278
:1003F00001D102250BE0234DA84201D1032506E0DF
:10040000214DA84202D1042501E028E00725BD4086
:100410002543C6F80858DBF800405D464E689C430B
:10042000F60300D51C432C60DEF8004075464E688C
:100430009C43B60300D51C432C600C4D08352C683A
:100440004E689C43F60200D51C432C60074D0C35CA
:100450002C684E689C43B60200D51C432C60521C8D
:10046000102AFFF45DAFBDE8F88F0000003C0140AA
:1004700044380240003001400000024000040240C5
:1004800000080240000C0240001002400AB18161E5
:1004900070470904FBE700000148806870470000CE
:1004A0000C00002002488168027811448160704786
:1004B0000C0000200B4810B5016841F40071016088
:1004C000016841F480610160016841F4807101605C
:1004D000032000F06FF8002000F006F800F024F888
:1004E000002010BD003C024070B50D4D04464FF495
:1004F0007A712878B1FBF0F00A490968B1FBF0F095
:1005000000F0E0FA48B9102C07D200222146501E14
:1005100000F030F800206C6070BD012070BD00005C
:100520000C000020180000200A4808B5016841F4BA
:1005300080410160006800F4804000900548001F81
:10054000016841F080510160006800F08050009027
:1005500008BD000044380240002809DB00F01F02FB
:10056000012191404009800000F1E020C0F8001115
:1005700070470000F0B40E4B1B680C46C3F3022317
:10058000C3F10705042D00D90425191D072901D23F
:10059000002300E0DB1E012606FA05F1491E21407A
:1005A00099409E40761E16403143F0BC00F0C3BE19
:1005B0000CED00E0064900F0070208684FF6FF0363
:1005C000184040EA0220034A1043086070470000C8
:1005D0000CED00E00000FA052DE9F0470E4605009D
:1005E00065D0DFF81481D8F80000F7B200F00F00F2
:1005F000B04207D288F80070D8F8000000F00F0071
:10060000B04254D128683D4C810712D5400703D52C
:10061000206840F4E05020602878000703D5206867
:1006200040F4604020602068A96820F0F000084392
:1006300020602878C0072DD0304968680839012823
:1006400012D0022813D0032811D009688907002985
:100650002DDA216821F0030101432160FFF71CFF1F
:10066000814641F2883A0EE009688903EFE709689C
:100670008901ECE7FFF710FFA0EB0901514502D912
:100680000320BDE8F0872068696800F00C00B0EB3B
:10069000810FEFD1D8F80010404601F00F01B142B0
:1006A00007D90770006800F00F00B04201D00120A8
:1006B000E7E72878400705D52068E96820F4E0508E
:1006C000084320602878000706D52068296920F4AF
:1006D000604040EAC100206000F036F82168084A16
:1006E000C1F30311515CC840064908600020FFF7C0
:1006F000FBFE0020C5E70000003C02400838024035
:10070000F81300081800002004480549006809682B
:10071000044AC1F38221515CC84070471800002090
:1007200008380240081400080448054900680968B0
:10073000044AC1F34231515CC840704718000020A0
:100740000838024008140008154810B5006810F079
:100750000C02144813D04110042A0FD0082A0ED1DD
:100760000F4C241F2268236802F03F025B0207D56A
:100770002068C0F38810A0FB010106E0084610BD08
:100780002168C1F38811A1FB00010023FFF720FDC0
:100790002168C1F30141491C4900B0FBF1F010BDD3
:1007A000083802400024F4002DE9F84F050076D007
:1007B0002878DFF8F8B2BE4CC00749D0DBF800104B
:1007C0005846C1F38101012908D00068C0F38100B7
:1007D00002280AD1201D0068400206D52068800347
:1007E00036D568680028E2D032E06868B0F5803F0E
:1007F00010D0B0F5A02F206810D020F480302060F9
:10080000206820F4802020606868A0B1FFF744FED3
:1008100006460CE0206840F48030F4E740F4802085
:100820002060F7E7FFF738FE801B642873D8206844
:100830008003F7D50CE0FFF72FFE064605E000BF6A
:10084000FFF72AFE801B6428F0D820688003F7D4C5
:100850002878DFF8608280074FF000093ED5DBF88A
:100860000010584611F00C0F09D00068C0F3810049
:1008700002280BD18D48001F0068400206D4206872
:10088000800715D5E868012809D111E0E868B8B1FA
:100890000120C8F80000FFF7FFFD064605E002E171
:1008A000FFF7FAFD801B0228C0D820688007F7D523
:1008B0002068296920F0F80040EAC10020600DE0BE
:1008C000C8F80090FFF7E8FD064604E0FFF7E4FDF6
:1008D000801B02281FD820688007F7D428780007DB
:1008E00022D5724E744869696C3671B1012101607C
:1008F000FFF7D2FD074604E0FFF7CEFDC01B02283C
:1009000009D830688007F7D50EE0C0F80090FFF7EF
:10091000C3FD074605E083E0FFF7BEFDC01B0228CC
:100920007ED830688007F7D42878400768D5DFF88C
:100930007CA100270AF1380ADAF80000C0000BD4C5
:10094000DAF8001041F08051CAF80010DAF800001F
:10095000012700F080500090584E3068C00510D438
:10096000306840F480703060FFF796FD009005E03D
:10097000FFF792FD0099401A022851D83068C0054F
:10098000F6D54A4EA868683601280FD00528306889
:1009900010D020F001003060306820F0040030609A
:1009A000A868B8B1FFF778FD00900FE0306840F01C
:1009B0000100F4E740F004003060F7E7FFF76CFD5A
:1009C0000099411A41F28830814264D8306880072A
:1009D000F4D50EE0FFF760FD009007E0FFF75CFD47
:1009E0000099411A41F28830814254D8306880071A
:1009F000F4D42FB1DAF8001021F08051CAF80010B9
:100A0000A869C0B3DBF80010C1F3810102294AD004
:100A10000228484607D0C8F86000FFF73DFD00E017
:100A200039E005463AE04746C8F86000FFF734FD74
:100A3000064604E0FFF730FD801B02282BD8206813
:100A40008001F7D4D5E907010843A96A1C4A49087F
:100A500002EB01416A6A41EA8211084395F82C10C1
:100A600040EA01611148001F016001203866FFF76C
:100A700013FD054605E014E0FFF70EFD401B0228BC
:100A800009D820688001F7D50BE000BFFFF704FD0F
:100A9000401B022802D90320BDE8F88F206880019E
:100AA000F4D40020F8E70120F6E7000008380240FF
:100AB0000038024000004742800E4742007000406C
:100AC0000000FFFF10B5401EB0F1807F01D3012070
:100AD00010BD4FF0E02460610F21601700F02BFC87
:100AE0000020A06107202061002010BD7047000099
:100AF00070B5026804461068D168536910F00F0F92
:100B000050D003F0010501F4907635435DD0C20763
:100B100005D0CA0503D5E26B42F00102E263420749
:100B200005D5DA0703D0E26B42F00202E2638207E6
:100B300005D5DA0703D0E26B42F00402E263020754
:100B400005D5DA0703D0E26B42F00802E263E26BFC
:100B5000002A33D0800604D5880602D5204600F04E
:100B600009FA20684069E16BC0F38010090700D4DE
:100B700028B3204600F0F0F92068416949061AD5EB
:100B8000416921F040014161606BA0B11B490165E1
:100B9000606BFFF793FB002810D0606B016DBDE820
:100BA00070400847830610D58B060ED52046BDE859
:100BB000704000F0DFB92046FFF798FF70BD204677
:100BC000FFF794FF0020E06370BD030606D50B0617
:100BD00004D52046BDE8704000F06EBB4006F3D55A
:100BE0004806F1D5D168204621F04001D16020218E
:100BF00084F8391000F0F5F870BD0000490F0008C6
:100C000070B5040004D094F83900002510B106E056
:100C1000012070BD84F83850204600F023F82420CD
:100C200084F839002068C16821F40051C160204671
:100C300000F0ECF92068016921F49041016120681D
:100C4000416921F02A0141612068C16841F40051E5
:100C5000C160E563202084F8390084F83A00002060
:100C600070BD0000F0B587B0044614216846FFF758
:100C7000E7FA2E4B22682E49022401250326072776
:100C80002C489A422DD12A4A1432136843F010039B
:100C90001360126802F0100205920A6842F0010225
:100CA0000A600A6802F0010205920A6842F0020234
:100CB0000A60096801F002010591A1038DE8F200C4
:100CC0006946FFF71FFB80208DE8F10069461A484E
:100CD000FFF718FB002211462520FFF74BFC2520CB
:100CE00020E0164B9A421FD1114A1032136843F488
:100CF00000331360126802F4003205920A6842F071
:100D000001020A60096801F0010105910C218DE8DA
:100D1000F2006946FFF7F6FA002211462620FFF797
:100D200029FC2620FFF718FC07B0F0BD0010014099
:100D300030380240000002400004024000440040FD
:100D400090F83A30202B22D1F9B1F2B190F8383036
:100D5000012B1CD081628285C2850021C1632222C1
:100D600080F83A2080F838100168CA6842F480722E
:100D7000CA6001684A6942F001024A610068C168BC
:100D800041F02001C160002070470120704702201F
:100D90007047000002491022A1F14000FFF7D0BFC8
:100DA0009C00002090F83930202B18D1A9B1A2B1B5
:100DB00090F83830012B12D001628284C284002165
:100DC000C163212280F8392080F838100068C1689A
:100DD00041F08001C160002070470120704702206F
:100DE00070477047FEE7000070B586B01421684672
:100DF000FFF726FA1A480024016841F080010160DB
:100E0000016801F080010591016841F00101016074
:100E1000016801F001010591016841F008010160DC
:100E2000016801F008010591016841F002010160CB
:100E300000680C4E00F002004FF44055059000226F
:100E400029463046FFF722FB01200095CDE9010439
:100E5000694630460394FFF755FA06B070BD0000AE
:100E600030380240000C0240FEE770477047704780
:100E7000FFF718BB30B593B030216846FFF7E0F9B3
:100E800014210CA8FFF7DCF918480025016841F08F
:100E900080510160006800F0805011901448016892
:100EA00041F4404101600068022400F44040119088
:100EB00001200090000401908001CDE9064008AABD
:100EC0000420642182E813000B906846FFF76CFC55
:100ED0000CA90F2081E83100E002CDE90F050321C4
:100EE0000CA8FFF779FB13B030BD0000403802407A
:100EF000007000401048016841F4700101600F4823
:100F0000016841F0010101600C4A002108321160C2
:100F100002680B4B1A400260031D0A4A1A600268FD
:100F200022F48022026005480C3001600249580614
:100F3000803908607047000088ED00E0003802400A
:100F4000FFFFF6FE1030002410B5806B0021C18534
:100F5000C184FFF7CBFD10BD0168CA6822F490720E
:100F6000CA6001684A6922F001024A61202180F8C2
:100F70003A10704710B590F83A10222901D002209B
:100F800010BD8168B1F5805F11D001690029016849
:100F90001FD0496801F07F03816A4A1C82620B708E
:100FA000C18D491E0904090CC18518D02BE00269C6
:100FB000816A002A0268526805D0D2B20A80816A2A
:100FC000491C8162ECE7C2F308020A80816A891C2D
:100FD000F7E74A68816A4B1C83620A70E0E70168A0
:100FE000CA6822F02002CA600168CA6822F48072CE
:100FF000CA6001684A6922F001024A61202180F832
:101000003A10FFF7C7FE002010BD00002DE9F041A7
:10101000044600680169E26821F44051114301610E
:101020002169A068E26908436169114322680843A5
:10103000D16849F20C6399430143D160206841694A
:10104000A26921F4407111434161E2696425B2F55E
:10105000004F9748974922684FF032083FD08A42A4
:1010600001D082427CD1FFF75FFB00EBC00101EBB6
:10107000001061688900B0FBF1F6FFF755FB00EB4B
:10108000C00101EB001061688900B0FBF1F0B0FB1A
:10109000F5F06FF01801484306EB800108EB0110F2
:1010A000B0FBF5F000F0F006FFF73EFB00EBC001EF
:1010B00001EB001061688900B0FBF1F0B0FBF5F0C6
:1010C00006EB0016FFF730FB00EBC00101EB001050
:1010D00061688900B0FBF1F7FFF726FBD2E08A4296
:1010E00001D082423DD1FFF71FFB00EBC00101EBB5
:1010F000001061684900B0FBF1F0B0FBF5F00601AB
:10110000FFF712FB00EBC00101EB00106168490022
:10111000B0FBF1F7FFF708FB00EBC00101EB00109B
:1011200061684900B0FBF1F0B0FBF5F06FF0180119
:10113000484307EB800108EBC100B0FBF5F000F07D
:10114000F80006EB4006FFF7EFFA00EBC00101EBF9
:10115000001061684900B0FBF1F7FFF7E5FA3CE0E9
:1011600055E0FFF7D1FA00EBC00101EB0010616818
:101170004900B0FBF1F0B0FBF5F00601FFF7C4FA4F
:1011800000EBC00101EB001061684900B0FBF1F712
:10119000FFF7BAFA00EBC00101EB001061684900EB
:1011A000B0FBF1F0B0FBF5F06FF01801484307EB2E
:1011B000800108EBC100B0FBF5F000F0F80006EB91
:1011C0004006FFF7A1FA00EBC00101EB00106168D7
:1011D0004900B0FBF1F7FFF797FA00EBC00101EB14
:1011E000001061684900B0FBF1F0B0FBF5F06FF062
:1011F0001801484307EB800108EBC100B0FBF5F094
:1012000000F00700216830448860BDE8F081FFF7F6
:101210007BFA00EBC00101EB001061688900B0FBB4
:10122000F1F6FFF771FA00EBC00101EB0010616805
:101230008900B0FBF1F0B0FBF5F06FF01801484306
:1012400006EB800108EB0110B0FBF5F000F0F006B2
:10125000FFF75AFA00EBC00101EB0010616889004A
:10126000B0FBF1F0B0FBF5F006EB0016FFF74CFA1F
:1012700000EBC00101EB001061688900B0FBF1F7E1
:10128000FFF742FA00EBC00101EB00106168890032
:10129000B0FBF1F0B0FBF5F06FF01801484307EB3D
:1012A000800108EB0110B0FBF5F000F00F00A9E79A
:1012B000001401400010014090F83910212901D09C
:1012C000022070478168B1F5805F016A0BD04A1C2B
:1012D0000262026809785160C18C491E0904090C38
:1012E000C1840ED017E009880268C1F3080151607B
:1012F00001690029016A02D0491C0162ECE7891CDE
:10130000FBE70168CA6822F08002CA600068C16811
:1013100041F04001C1600020704700000148FFF724
:10132000E7BB00001C0000200148FFF7E1BB000004
:101330005C000020FEE70907090E002804DB00F12D
:10134000E02080F80014704700F00F0000F1E0206A
:1013500080F8141D704702E008C8121F08C1002A57
:10136000FAD170477047002001E001C1121F002A26
:10137000FBD17047FFF79EF8FFF77CFDFFF734FDC8
:101380001A4819494FF4E13500240160C0E90154BD
:101390000C26C460C0E904468461C461FFF730FCD8
:1013A0001248134940300160C0E90154C460C0E9EB
:1013B00004468461C461FFF723FC0C49102280318C
:1013C000A1F14000FFF7BCFC0A4C4FF47A751022E3
:1013D00008490648FFF7E6FC21782846491C217099
:1013E000FEF77EFFF3E70000001001401C00002024
:1013F0000044004000000020000000000000000049
:1014000001020304060708090000000001020304AA
:1014100030140008000000201C00000056130008D3
:101420004C1400081C0000209404000066130008FF
:1014300048656C6C6F20554152540000010000005B
:0C14400010000000000000000024F40078
:040000050800019955
:00000001FF
