:020000040800F2
:1000000020050020AD0100084B110008D5100008A4
:1000100049110008B9020008CD15000800000000D1
:100020000000000000000000000000004F11000868
:1000300079030008000000004D110008511100086C
:10004000C7010008C7010008C7010008C701000870
:10005000C7010008C7010008C7010008C701000860
:10006000C7010008C7010008C7010008C701000850
:10007000C7010008C7010008C7010008C701000840
:10008000BD020008C9020008C70100080000000006
:10009000000000000000000000000000C701000890
:1000A000C7010008C7010008C7010008C701000810
:1000B000C7010008C7010008C7010008C701000800
:1000C000C7010008C7010008C7010008C7010008F0
:1000D000C7010008C7010008C701000800000000B0
:1000E000C7010008C7010008C701000800000000A0
:1000F000000000000000000000000000C701000830
:1001000000000000C7010008C7010008C70100087F
:1001100000000000000000000000000000000000DF
:10012000C7010008C7010008C7010008C70100088F
:10013000C7010008000000000000000000000000EF
:10014000000000000000000000000000C7010008DF
:10015000C7010008C7010008C7010008C70100085F
:10016000C7010008C70100080000000000000000EF
:10017000000000000000000000000000000000007F
:1001800000000000C701000800000000000000009F
:10019000C7010008C7010008DFF80CD000F07AF8AA
:1001A000004800470D16000820050020064880473B
:1001B00006480047FEE7FEE7FEE7FEE7FEE7FEE74C
:1001C000FEE7FEE7FEE7FEE7D5110008990100080B
:1001D0002DE9F05F0546002092469B46884606467C
:1001E000814640241BE0284641464746224600F00F
:1001F00041F853465A46C01A914110D31146184649
:10020000224600F028F82D1A67EB01084F462246D7
:100210000120002100F01FF817EB00094E41201EBD
:10022000A4F10104DFDC484631462A464346BDE8D6
:10023000F09FD2B201E000F8012B491EFBD27047BB
:100240000022F6E710B513460A4604461946FFF7A2
:10025000F0FF204610BD202A04DB203A00FA02F10C
:10026000002070479140C2F1200320FA03F31943A4
:1002700090407047202A04DB203A21FA02F0002146
:10028000704721FA02F3D040C2F1200291400843A6
:1002900019467047064C074D06E0E06840F0010340
:1002A00094E8070098471034AC42F6D3FFF778FF84
:1002B0000017000820170008FEE70000014800F0C2
:1002C0005DB8000060000020014800F057B8000051
:1002D000C000002001681823CAB2103AB2FBF3F242
:1002E000054B6FF30901032A9B5CC36500D9091D07
:1002F0008165084670470000E016000810B5014609
:1003000000208B698A6A4FF0C07453B1B3F5005F67
:1003100015D072B1012A0CD0022A0AD0032A09D1C1
:1003200004E01AB1012A06D0022A03D1C96AC90120
:1003300000D5012010BDC96AA142FAD010BD002A23
:10034000F7D0012AF2D0022AF3D0032AF3D010BD4D
:1003500030B50468256825F480252560046863604D
:100360008368402B036803D099600068C26030BD89
:100370009A600068C16030BD704770472DE9F8434E
:1003800004464FF00009CDF8009063484FF4165131
:10039000A56D0068B0FBF1F72E6894F85C1008209A
:1003A00000FA01F131420FD021680A6852070BD5DB
:1003B0000A6822F004020A6094F85C108840A86081
:1003C000606D40F00100606594F85C104FF001082A
:1003D00008FA01F0304208D021684969090604D5BD
:1003E000A860606D40F00200606594F85C10042025
:1003F0008840304208D021680968890704D5A86080
:10040000606D40F00400606594F85C101020884036
:10041000304218D021680968090714D5A8602068FF
:100420000168490304D50068000308D5A16C07E002
:100430000168C90503D4016821F008010160216C3D
:1004400009B12046884794F85C102020884030424B
:1004500031D021680968C9062DD5A86094F8350007
:1004600005282068016806D0490347D500680003C5
:100470001DD4616C1CE021F0160101602068416907
:1004800021F080014161206C08B9A06C20B1206886
:10049000016821F00801016094F85C103F20884059
:1004A000A86084F8349084F83580216D1FE0E16BFA
:1004B00009B120468847606D00282BD0606DC007C9
:1004C00014D0052084F835002068016821F001016E
:1004D00001600098401C0090B84203D82068006872
:1004E000C007F6D184F8349084F83580E16C002997
:1004F00010D001B02046BDE8F04308470168C905A7
:10050000D5D4016821F01001016084F8349084F89A
:100510003580CCE7BDE8F8831C0000202DE9F041D0
:10052000044600F07DF906465CB1002584F834509D
:10053000022084F835002068016821F00101016083
:100540000DE00120BDE8F08100F06AF9801B05286C
:1005500005D920206065032084F83500F2E7206883
:100560000068C007F0D12268116820480140D4E932
:1005700001031843D4E9033633431843636918432E
:10058000A3691843E3691843236A18430843616A5F
:10059000042903D1D4E90B131943084310602068E0
:1005A0004069666A20F0070130460E43012704289F
:1005B0000CD1A06A0643E06A40B12046FFF79EFED8
:1005C00020B14020606584F83570BAE72068466144
:1005D0002046FFF77FFE94F85C203F219140816028
:1005E000656584F835700020ACE700003F8010F0AE
:1005F0002DE9F0410446866D90F83400002501286D
:100600000DD0012084F8340094F835700020012FBB
:1006100007D084F8340002252846BDE8F081022086
:10062000FBE7022784F8357060652046FFF790FEEF
:1006300094F85C103F208840B0602068016841F069
:10064000160101602068416941F080014161206C20
:1006500020B12068016841F008010160206801684C
:1006600041F001010160D7E770B5044600F0D8F809
:100670000546601C02D004480078044400F0D0F81D
:10068000401BA042FAD370BD100000202DE9F84FA6
:10069000DFF860B100224FF001084FF0030A4FF07D
:1006A0000F090BF1040E00BF0B6808FA02F4234097
:1006B000A3426ED14D68022D01D0122D0ED1D50866
:1006C00000EB850CDCF820505607F70E09FA07F608
:1006D000B5430E69BE402E43CCF820600668550035
:1006E0000F790AFA05FC07F0030726EA0C06AF406B
:1006F000374307604E68012E05D0022E03D0112E1D
:1007000001D0122E0ED18668CF6826EA0C06AF40C3
:10071000374387604668A6430C79C4F300149440BD
:1007200034434460C6688C6826EA0C06AC40344307
:10073000C4604C68E40056D52F4C256845F48045CC
:100740002560246822F0030504F4804400942B4CB7
:100750002E19D6F8084895072F0F09FA07F5AC436C
:10076000274DA84201D1002515E0264DA84201D110
:10077000012510E0244DA84201D102250BE0234DB4
:10078000A84201D1032506E0214DA84202D104254B
:1007900001E028E00725BD402543C6F80858DBF8EE
:1007A00000405D464E689C43F60300D51C432C6018
:1007B000DEF8004075464E689C43B60300D51C43E6
:1007C0002C600C4D08352C684E689C43F60200D511
:1007D0001C432C60074D0C352C684E689C43B602B8
:1007E00000D51C432C60521C102AFFF45DAFBDE8FD
:1007F000F88F0000003C01404438024000300140C6
:10080000000002400004024000080240000C0240C8
:10081000001002400AB1816170470904FBE7000043
:10082000014880687047000010000020024881687D
:100830000278114481607047100000200B4810B509
:10084000016841F400710160016841F48061016058
:10085000016841F480710160032000F06FF800200E
:1008600000F006F800F024F8002010BD003C024023
:1008700070B50D4D04464FF47A712878B1FBF0F055
:100880000A490968B1FBF0F000F0E0FA48B9102C11
:1008900007D200222146501E00F030F800206C6084
:1008A00070BD012070BD0000100000201C00002061
:1008B0000A4808B5016841F480410160006800F40D
:1008C000804000900548001F016841F080510160A0
:1008D000006800F08050009008BD000044380240DD
:1008E000002809DB00F01F0201219140400980002F
:1008F00000F1E020C0F8001170470000F0B40E4B8A
:100900001B680C46C3F30223C3F10705042D00D96D
:100910000425191D072901D2002300E0DB1E012652
:1009200006FA05F1491E214099409E40761E164068
:100930003143F0BC00F04BBE0CED00E0064900F086
:10094000070208684FF6FF03184040EA0220034AF6
:1009500010430860704700000CED00E00000FA054D
:100960002DE9F0470E46050065D0DFF81481D8F870
:100970000000F7B200F00F00B04207D288F8007014
:10098000D8F8000000F00F00B04254D128683D4C68
:10099000810712D5400703D5206840F4E05020605D
:1009A0002878000703D5206840F460402060206864
:1009B000A96820F0F000084320602878C0072DD0F7
:1009C000304968680839012812D0022813D003285A
:1009D00011D00968890700292DDA216821F0030167
:1009E00001432160FFF71CFF814641F2883A0EE087
:1009F00009688903EFE709688901ECE7FFF710FF51
:100A0000A0EB0901514502D90320BDE8F087206819
:100A1000696800F00C00B0EB810FEFD1D8F800103E
:100A2000404601F00F01B14207D90770006800F09D
:100A30000F00B04201D00120E7E72878400705D534
:100A40002068E96820F4E050084320602878000717
:100A500006D52068296920F4604040EAC100206082
:100A600000F036F82168084AC1F30311515CC84010
:100A7000064908600020FFF7FBFE0020C5E70000E4
:100A8000003C024008380240E81600081C00002024
:100A90000448054900680968044AC1F38221515C91
:100AA000C84070471C00002008380240F8160008B3
:100AB0000448054900680968044AC1F34231515CA1
:100AC000C84070471C00002008380240F816000893
:100AD000154810B5006810F00C02144813D04110EE
:100AE000042A0FD0082A0ED10F4C241F2268236835
:100AF00002F03F025B0207D52068C0F38810A0FB1C
:100B0000010106E0084610BD2168C1F38811A1FB70
:100B100000010023FFF75CFB2168C1F30141491C80
:100B20004900B0FBF1F010BD083802400024F40089
:100B30002DE9F84F050076D02878DFF8F8B2BE4CE2
:100B4000C00749D0DBF800105846C1F381010129E4
:100B500008D00068C0F3810002280AD1201D006877
:100B6000400206D52068800336D568680028E2D0A8
:100B700032E06868B0F5803F10D0B0F5A02F206853
:100B800010D020F480302060206820F48020206085
:100B90006868A0B1FFF744FE06460CE0206840F408
:100BA0008030F4E740F480202060F7E7FFF738FE5C
:100BB000801B642873D820688003F7D50CE0FFF70A
:100BC0002FFE064605E000BFFFF72AFE801B6428C3
:100BD000F0D820688003F7D42878DFF86082800797
:100BE0004FF000093ED5DBF80010584611F00C0F0D
:100BF00009D00068C0F3810002280BD18D48001F86
:100C00000068400206D42068800715D5E8680128EE
:100C100009D111E0E868B8B10120C8F80000FFF779
:100C2000FFFD064605E002E1FFF7FAFD801B022802
:100C3000C0D820688007F7D52068296920F0F8001F
:100C400040EAC10020600DE0C8F80090FFF7E8FD21
:100C5000064604E0FFF7E4FD801B02281FD8206849
:100C60008007F7D42878000722D5724E7448696946
:100C70006C3671B101210160FFF7D2FD074604E037
:100C8000FFF7CEFDC01B022809D830688007F7D5D2
:100C90000EE0C0F80090FFF7C3FD074605E083E0D3
:100CA000FFF7BEFDC01B02287ED830688007F7D44E
:100CB0002878400768D5DFF87CA100270AF1380AB8
:100CC000DAF80000C0000BD4DAF8001041F08051CF
:100CD000CAF80010DAF80000012700F080500090F8
:100CE000584E3068C00510D4306840F480703060D1
:100CF000FFF796FD009005E0FFF792FD0099401A7E
:100D0000022851D83068C005F6D54A4EA868683622
:100D100001280FD00528306810D020F00100306085
:100D2000306820F004003060A868B8B1FFF778FDA3
:100D300000900FE0306840F00100F4E740F004005C
:100D40003060F7E7FFF76CFD0099411A41F28830F7
:100D5000814264D830688007F4D50EE0FFF760FD6B
:100D6000009007E0FFF75CFD0099411A41F28830DE
:100D7000814254D830688007F4D42FB1DAF80010DB
:100D800021F08051CAF80010A869C0B3DBF8001048
:100D9000C1F3810102294AD00228484607D0C8F889
:100DA0006000FFF73DFD00E039E005463AE04746C8
:100DB000C8F86000FFF734FD064604E0FFF730FD99
:100DC000801B02282BD820688001F7D4D5E90701C1
:100DD0000843A96A1C4A490802EB01416A6A41EAD0
:100DE0008211084395F82C1040EA01611148001F58
:100DF000016001203866FFF713FD054605E014E0A9
:100E0000FFF70EFD401B022809D820688001F7D5A6
:100E10000BE000BFFFF704FD401B022802D90320AE
:100E2000BDE8F88F20688001F4D40020F8E70120A5
:100E3000F6E7000008380240003802400000474250
:100E4000800E4742007000400000FFFF10B5401EBA
:100E5000B0F1807F01D3012010BD4FF0E02460612C
:100E60000F21601700F0B3FB0020A0610720206174
:100E7000002010BD704770B5040004D094F839000C
:100E8000002510B106E0012070BD84F838502046DE
:100E900000F022F8242084F839002068C16821F489
:100EA0000051C160204600F03BFA2068016921F43E
:100EB000904101612068416921F02A014161206867
:100EC000C16841F40051C160E563202084F8390015
:100ED00084F83A00002070BD2DE9F04387B0064643
:100EE00014216846FFF7ACF92C493068884251D18B
:100EF0002B480025016841F400310160006800F4CE
:100F00000030059026481038016841F00101016069
:100F10000068694600F0010005900C200090022056
:100F200001900120029003200390072004901D48A7
:100F3000FFF7ACFB1D4C1C484FF000672060C4E974
:100F400001754FF48068C4E903584FF480796561F6
:100F5000C4E90659256220466562FFF7DFFA08B149
:100F6000FFF70BFA7463A6630F48114C1830E4E8DE
:100F700002074020A4E821010D4844F81459C4E9AF
:100F8000065925626562FFF7C9FA08B1FFF7F5F95E
:100F90003463A66307B0BDE8F0830000004400405E
:100FA000403802400000024088600240600000209B
:100FB000C0000020F8B5044690F83A0020283CD143
:100FC000C1B3BAB394F83800012836D0012084F8B0
:100FD0003800A162A2850025E563222084F83A004A
:100FE000636B1748D863636B16481864636B1648C5
:100FF000D864606B134605650846666B2168024637
:101000003046091DFFF7F4FA206801684168009135
:1010100084F83850C16841F48071C160206841692A
:1010200041F0010141612068416941F040014161A5
:101030000020F8BDFFE70120FBE70220F9E70000F0
:1010400073120008AF120008291200087047704799
:1010500070B5044690F83900202830D169B362B3E6
:1010600094F8380001282AD0012084F83800216241
:10107000A284E2840025E563212084F83900236BF3
:101080001048D863236B10481864236B0F48D8644A
:10109000206B134605652668206B321DFFF7A8FA02
:1010A00021686FF04000086084F83850206841697A
:1010B00041F080014161002070BD012070BD02201F
:1010C00070BD0000B9120008E712000829120008DC
:1010D00070477047FEE7000070B586B0142168467F
:1010E000FFF7AEF816480024016841F08001016066
:1010F000016801F080010591016841F00101016082
:10110000016801F001010591016841F008010160E9
:1011100000680C4E00F008004FF440550590002286
:1011200029463046FFF776FB01200095CDE9010402
:10113000694630460394FFF7A9FA06B070BD000077
:1011400030380240000C0240FEE77047704770479D
:10115000FFF76CBB30B593B030216846FFF770F8ED
:1011600014210CA8FFF76CF818480025016841F01D
:1011700080510160006800F08050119014480168AF
:1011800041F4404101600068022400F440401190A5
:1011900001200090000401908001CDE9064008AADA
:1011A0000420642182E813000B906846FFF7C0FC1E
:1011B0000CA90F2081E83100E002CDE90F050321E1
:1011C0000CA8FFF7CDFB13B030BD00004038024043
:1011D000007000401048016841F4700101600F4840
:1011E000016841F0010101600C4A002108321160E0
:1011F00002680B4B1A400260031D0A4A1A6002681B
:1012000022F48022026005480C3001600249580631
:10121000803908607047000088ED00E00038024027
:10122000FFFFF6FE1030002470B5846B2068406923
:1012300094F83910C0F3C0100025212904D118B149
:10124000E584204600F062F82068406994F83A107E
:10125000C0F38010222904D118B1E585204600F0A2
:1012600047F8E06B40F01000E0632046FFF702FE15
:1012700070BD10B50146806B09680968C90513D4B3
:101280000021C1850168CA6822F48072CA600168C1
:101290004A6922F001024A6101684A6922F040026B
:1012A0004A61202180F83A10FFF7D0FE10BD10B53A
:1012B000806BFFF7CCFE10BD10B50146806B09684E
:1012C0000968C9050CD40021C18401684A6922F06B
:1012D00080024A610068C16841F04001C16010BDF0
:1012E000FFF7F6FE10BD10B5806BFFF7F2FE10BDE4
:1012F0000168CA6822F49072CA6001684A6922F0E3
:1013000001024A61202180F83A1070470168CA68DA
:1013100022F0C002CA60202180F839107047000016
:101320002DE9F041044600680169E26821F440516A
:10133000114301612169A068E269084361691143B1
:1013400022680843D16849F20C6399430143D16094
:1013500020684169A26921F4407111434161E26949
:101360006425B2F5004F9748974922684FF032083C
:101370003FD08A4201D082427CD1FFF799FB00EB3B
:10138000C00101EB001061688900B0FBF1F6FFF7C6
:101390008FFB00EBC00101EB001061688900B0FB1E
:1013A000F1F0B0FBF5F06FF01801484306EB800157
:1013B00008EB0110B0FBF5F000F0F006FFF778FB4A
:1013C00000EBC00101EB001061688900B0FBF1F097
:1013D000B0FBF5F006EB0016FFF76AFB00EBC0016F
:1013E00001EB001061688900B0FBF1F7FFF760FBCB
:1013F000D2E08A4201D082423DD1FFF759FB00EB97
:10140000C00101EB001061684900B0FBF1F0B0FBD6
:10141000F5F00601FFF74CFB00EBC00101EB0010FB
:1014200061684900B0FBF1F7FFF742FB00EBC00138
:1014300001EB001061684900B0FBF1F0B0FBF5F082
:101440006FF01801484307EB800108EBC100B0FBC7
:10145000F5F000F0F80006EB4006FFF729FB00EB83
:10146000C00101EB001061684900B0FBF1F7FFF724
:101470001FFB3CE055E0FFF70BFB00EBC00101EB6D
:10148000001061684900B0FBF1F0B0FBF5F0060117
:10149000FFF7FEFA00EBC00101EB001061684900A4
:1014A000B0FBF1F7FFF7F4FA00EBC00101EB00101D
:1014B00061684900B0FBF1F0B0FBF5F06FF0180186
:1014C000484307EB800108EBC100B0FBF5F000F0EA
:1014D000F80006EB4006FFF7DBFA00EBC00101EB7A
:1014E000001061684900B0FBF1F7FFF7D1FA00EB9B
:1014F000C00101EB001061684900B0FBF1F0B0FBE6
:10150000F5F06FF01801484307EB800108EBC100CC
:10151000B0FBF5F000F00700216830448860BDE8BA
:10152000F081FFF7B5FA00EBC00101EB0010616834
:101530008900B0FBF1F6FFF7ABFA00EBC00101EB5D
:10154000001061688900B0FBF1F0B0FBF5F06FF0BE
:101550001801484306EB800108EB0110B0FBF5F0E1
:1015600000F0F006FFF794FA00EBC00101EB001069
:1015700061688900B0FBF1F0B0FBF5F006EB0016F6
:10158000FFF786FA00EBC00101EB001061688900EB
:10159000B0FBF1F7FFF77CFA00EBC00101EB0010A4
:1015A00061688900B0FBF1F0B0FBF5F06FF0180155
:1015B000484307EB800108EB0110B0FBF5F000F0A9
:1015C0000F00A9E70014014000100140FEE70907E1
:1015D000090E002804DB00F1E02080F800147047B9
:1015E00000F00F0000F1E02080F8141D704702E0C9
:1015F00008C8121F08C1002AFAD17047704700209E
:1016000001E001C1121F002AFBD170472DED028BB2
:1016100082B0FFF713F9FFF79DFDFFF75DFD2C4842
:101620000024016841F4001101600068224600F4C2
:101630000010009021461020FFF760F91020FFF7FE
:101640004FF9002211461120FFF758F91120FFF73A
:1016500047F921481F4901604FF4E131C0E9011405
:101660000C21C460C0E904418461C461FFF703FC3C
:1016700004221A491848FFF79DFC1849042208392A
:101680001548FFF7E5FC154CB7EE008AA4F10805F4
:10169000271F261DA8464FF47A7938782870787865
:1016A0006870B878A870F878E87020783070207882
:1016B00070702078B0702078F07098ED010A48467C
:1016C00030EE080A88ED010AFEF7CEFFE5E70000DC
:1016D0003038024000440040200000200800002074
:1016E00000061016000610160000000000000000A2
:1016F00001020304060708090000000001020304B8
:10170000201700080000002020000000EE1500084F
:10171000401700082000002000050000FE1500080A
:10172000000000000000F041000000000000000088
:101730000100000010000000000000000024F40080
:040000050800019955
:00000001FF
