:020000040800F2
:1000000078040020AD01000833130008890F0008B0
:1000100031130008B90200081114000800000000A4
:10002000000000000000000000000000371300087E
:10003000BB02000800000000351300083913000857
:10004000C7010008C7010008C7010008C701000870
:10005000C7010008C7010008C7010008C701000860
:10006000C7010008C7010008C7010008C701000850
:10007000C7010008C7010008C7010008C701000840
:10008000C7010008C7010008C70100080000000000
:10009000000000000000000000000000C701000890
:1000A000C7010008C7010008C7010008C701000810
:1000B000C7010008C7010008C7010008C701000800
:1000C000C7010008C7010008C7010008C7010008F0
:1000D000C7010008C7010008C701000800000000B0
:1000E000C7010008C7010008C701000800000000A0
:1000F000000000000000000000000000C701000830
:1001000000000000C7010008C7010008C70100087F
:1001100000000000000000000000000000000000DF
:10012000C7010008C7010008C7010008C70100088F
:10013000C7010008000000000000000000000000EF
:10014000000000000000000000000000C7010008DF
:10015000C7010008C7010008C7010008C70100085F
:10016000C7010008C70100080000000000000000EF
:10017000000000000000000000000000000000007F
:1001800000000000C701000800000000000000009F
:10019000C7010008C7010008DFF80CD000F07AF8AA
:1001A00000480047511400087804002006488047A2
:1001B00006480047FEE7FEE7FEE7FEE7FEE7FEE74C
:1001C000FEE7FEE7FEE7FEE7BD1300089901000821
:1001D0002DE9F05F0546002092469B46884606467C
:1001E000814640241BE0284641464746224600F00F
:1001F00041F853465A46C01A914110D31146184649
:10020000224600F028F82D1A67EB01084F462246D7
:100210000120002100F01FF817EB00094E41201EBD
:10022000A4F10104DFDC484631462A464346BDE8D6
:10023000F09FD2B201E000F8012B491EFBD27047BB
:100240000022F6E710B513460A4604461946FFF7A2
:10025000F0FF204610BD202A04DB203A00FA02F10C
:10026000002070479140C2F1200320FA03F31943A4
:1002700090407047202A04DB203A21FA02F0002146
:10028000704721FA02F3D040C2F1200291400843A6
:1002900019467047064C074D06E0E06840F0010340
:1002A00094E8070098471034AC42F6D3FFF778FF84
:1002B0002415000844150008FEE7704770B5044691
:1002C00000F0D2F80546601C02D0044800780444CF
:1002D00000F0CAF8401BA042FAD370BD1000002005
:1002E0002DE9F84FDFF860B100224FF001084FF020
:1002F000030A4FF00F090BF1040E00BF0B6808FA58
:1003000002F42340A3426ED14D68022D01D0122D7C
:100310000ED1D50800EB850CDCF820505607F70EFF
:1003200009FA07F6B5430E69BE402E43CCF82060AB
:10033000066855000F790AFA05FC07F0030726EA5C
:100340000C06AF40374307604E68012E05D0022EE1
:1003500003D0112E01D0122E0ED18668CF6826EA66
:100360000C06AF40374387604668A6430C79C4F358
:100370000014944034434460C6688C6826EA0C0636
:10038000AC403443C4604C68E40056D52F4C25681B
:1003900045F480452560246822F0030504F4804478
:1003A00000942B4C2E19D6F8084895072F0F09FA00
:1003B00007F5AC43274DA84201D1002515E0264D95
:1003C000A84201D1012510E0244DA84201D1022507
:1003D0000BE0234DA84201D1032506E0214DA842A0
:1003E00002D1042501E028E00725BD402543C6F8D9
:1003F0000858DBF800405D464E689C43F60300D584
:100400001C432C60DEF8004075464E689C43B603E2
:1004100000D51C432C600C4D08352C684E689C435D
:10042000F60200D51C432C60074D0C352C684E6835
:100430009C43B60200D51C432C60521C102AFFF4CA
:100440005DAFBDE8F88F0000003C01404438024039
:100450000030014000000240000402400008024059
:10046000000C024000100240014880687047000004
:100470001000002070B504001BD094F83D0000254A
:1004800020B984F83C50204600F042FA242084F839
:100490003D002068016821F00101016000F092FB3D
:1004A0004D4A6168914201D84C4900E04C4988426C
:1004B00001D2012070BD4B492368B0FBF1F15E68A9
:1004C00026F03F060E435E606368934206D94FF400
:1004D000967359434FF47A73B1FBF3F12368491CC7
:1004E0001E6A26F03F06314319626168914210D8B6
:1004F0004900401EB0FBF1F2521CC2F30B02042A69
:1005000001D2042022E0B0FBF1F0401CC0F30B004C
:100510001CE0A368F3B301EBC10202EB0116421E1B
:10052000B2FBF6F2521C42F48042120549D093B35A
:1005300001EBC10202EB0111401EB0FBF1F0401CC7
:10054000C0F30B0040F4804040F400402168CA69C9
:100550004CF6FF739A431043C861D4E9070108437E
:1005600021680A6822F0C00210430860D4E9030140
:1005700001432068826848F2FF339A431143816047
:10058000D4E9050108432168CA6822F0FF0210433C
:10059000C86001E00EE016E02068016841F001014A
:1005A00001602564202084F83D00256384F83E50D6
:1005B000002070BD01EB4106421EB2FBF6F2521C58
:1005C000B3E70120C2E701EB4101401EB0FBF1F0AF
:1005D000401CC0F30B00B7E7A086010080841E001A
:1005E00000093D0040420F002DE9FF4F83B09A46BD
:1005F000DDE9119793460446DDF84080FFF734FFAC
:10060000054694F83D00202870D119230122714934
:100610002046009500F0B4FD0028F5D194F83C0088
:10062000012863D0012084F83C0020680168C907D4
:1006300003D1016841F0010101602068016821F4E3
:1006400000610160222084F83D00402084F83E00D3
:1006500000262664C4F82480A4F82A90608D2085A2
:100660005D48E062CDE9007553465A46204604993C
:1006700000F0A2FC00287CD1208DD0B1012821D02F
:100680000228206824D0416980690090208D0328C9
:1006900069D801282BD0514902283B464FF000026F
:1006A000009559D08846204600F06AFD002860D1A8
:1006B0003CE02068416981690091016841F4007162
:1006C000016077E02068016821F480610160F0E753
:1006D000016821F4806101602068016841F40061D3
:1006E0000160206841698069009063E06FE02A46FC
:1006F0003946204600F0C3FD98BB20680069616A56
:1007000008704EE02068016841F4007101602068C3
:100710000069616A0870606A401C6062218D491E30
:100720002185618D491E6185216838E02068016856
:1007300021F48061016020680069616A0870606A64
:10074000401C6062208D401E2085608D401E6085AB
:100750003B46002241460095204600F011FD00B9BD
:10076000D0E706E0FFE72A463946204600F087FD3D
:1007700018B1012007B0BDE8F08F20680069616AF8
:100780000870606A401C6062218D491E2185618D60
:10079000491E618521684A69D24352070AD4096912
:1007A0000170606A401C6062208D401E2085608D53
:1007B000401E6085208D00287FF468AF202084F8DB
:1007C0003D0084F83E6084F83C600020D2E70220BF
:1007D000D0E70000020010000000FFFF040001004D
:1007E0002DE9FF4F83B09A46DDE911979346044601
:1007F000DDF84080FFF738FE054694F83D002028DC
:100800007FD11923012240492046009500F0B8FC11
:10081000002876D194F83C00012872D0012084F899
:100820003C0020680168C90703D1016841F001015B
:1008300001602068016821F400610160212084F8D2
:100840003D00402084F83E0000262664C4F8248041
:10085000A4F82A90608D20852C48E062CDE90075CF
:1008600053465A462046049900F01AFC70B930E00D
:100870002A463946204600F035FD58B1206C042840
:1008800004D12068016841F400710160012007B0C3
:10089000BDE8F08F606A216800780861606A401CDA
:1008A0006062218D491E89B22185628D521E62854A
:1008B00022685369DB435B070BD469B10078106190
:1008C000606A401C6062208D401E2085608D401E45
:1008D0006085208D0028CBD12A463946204600F07D
:1008E00029FC0028CAD154F83D0B016841F400717D
:1008F0000160202004F81E09E67766770020C6E72D
:10090000FFE70220C3E70000020010000000FFFF25
:1009100010B586B0044614216846FFF791FC1449CF
:100920002068884221D11348016841F0020101602A
:100930000068694600F0020005904FF410700090C6
:1009400012200190012002900320039004200490C3
:100950000948FFF7C5FC07481030016841F4001151
:100960000160006800F40010059006B010BD0000A2
:1009700000540040303802400004024002488168C0
:100980000278114481607047100000200B4810B5B8
:10099000016841F400710160016841F48061016007
:1009A000016841F480710160032000F061F80020CB
:1009B00000F006F800F024F8002010BD003C0240D2
:1009C00070B50D4D04464FF47A712878B1FBF0F004
:1009D0000A490968B1FBF0F000F0C2FA48B9102CDE
:1009E00007D200222146501E00F022F800206C6041
:1009F00070BD012070BD0000100000201C00002010
:100A00000A4808B5016841F480410160006800F4BB
:100A1000804000900548001F016841F0805101604E
:100A2000006800F08050009008BD0000443802408B
:100A3000F0B40E4B1B680C46C3F30223C3F1070549
:100A4000042D00D90425191D072901D2002300E037
:100A5000DB1E012606FA05F1491E214099409E4001
:100A6000761E16403143F0BC00F0D3BC0CED00E024
:100A7000064900F0070208684FF6FF03184040EAF5
:100A80000220034A10430860704700000CED00E0AC
:100A90000000FA052DE9F0470E46050065D0DFF8A5
:100AA0001481D8F80000F7B200F00F00B04207D26E
:100AB00088F80070D8F8000000F00F00B04254D160
:100AC00028683D4C810712D5400703D5206840F4C3
:100AD000E05020602878000703D5206840F460408B
:100AE00020602068A96820F0F00008432060287882
:100AF000C0072DD0304968680839012812D0022873
:100B000013D0032811D00968890700292DDA21683C
:100B100021F0030101432160FFF7A6FC814641F269
:100B2000883A0EE009688903EFE709688901ECE774
:100B3000FFF79AFCA0EB0901514502D90320BDE85B
:100B4000F0872068696800F00C00B0EB810FEFD1EE
:100B5000D8F80010404601F00F01B14207D90770E4
:100B6000006800F00F00B04201D00120E7E72878CC
:100B7000400705D52068E96820F4E050084320606C
:100B80002878000706D52068296920F4604040EAEB
:100B9000C100206000F026F82168084AC1F3031163
:100BA000515CC840064908600020FFF709FF00209B
:100BB000C5E70000003C0240083802400C15000860
:100BC0001C0000200448054900680968044AC1F374
:100BD0008221515CC84070471C0000200838024048
:100BE0001C150008154810B5006810F00C021448D8
:100BF00013D04110042A0FD0082A0ED10F4C241F05
:100C00002268236802F03F025B0207D52068C0F328
:100C10008810A0FB010106E0084610BD2168C1F361
:100C20008811A1FB00010023FFF7D2FA2168C1F36C
:100C30000141491C4900B0FBF1F010BD08380240E9
:100C40000024F4002DE9F84F050076D02878DFF86D
:100C5000F8B2BE4CC00749D0DBF800105846C1F3CB
:100C60008101012908D00068C0F3810002280AD15F
:100C7000201D0068400206D52068800336D56868CC
:100C80000028E2D032E06868B0F5803F10D0B0F5BF
:100C9000A02F206810D020F480302060206820F43D
:100CA000802020606868A0B1FFF7DEFB06460CE0FC
:100CB000206840F48030F4E740F480202060F7E7BB
:100CC000FFF7D2FB801B642873D820688003F7D518
:100CD0000CE0FFF7C9FB064605E000BFFFF7C4FBC9
:100CE000801B6428F0D820688003F7D42878DFF8C8
:100CF000608280074FF000093ED5DBF800105846AF
:100D000011F00C0F09D00068C0F3810002280BD14C
:100D10008D48001F0068400206D42068800715D562
:100D2000E868012809D111E0E868B8B10120C8F8E5
:100D30000000FFF799FB064605E002E1FFF794FB90
:100D4000801B0228C0D820688007F7D52068296951
:100D500020F0F80040EAC10020600DE0C8F80090E3
:100D6000FFF782FB064604E0FFF77EFB801B0228AC
:100D70001FD820688007F7D42878000722D5724E44
:100D8000744869696C3671B101210160FFF76CFB31
:100D9000074604E0FFF768FBC01B022809D830684B
:100DA0008007F7D50EE0C0F80090FFF75DFB07461F
:100DB00005E083E0FFF758FBC01B02287ED83068AF
:100DC0008007F7D42878400768D5DFF87CA1002792
:100DD0000AF1380ADAF80000C0000BD4DAF8001083
:100DE00041F08051CAF80010DAF80000012700F045
:100DF00080500090584E3068C00510D4306840F4E0
:100E000080703060FFF730FB009005E0FFF72CFBAF
:100E10000099401A022851D83068C005F6D54A4ECC
:100E2000A868683601280FD00528306810D020F057
:100E300001003060306820F004003060A868B8B16C
:100E4000FFF712FB00900FE0306840F00100F4E77C
:100E500040F004003060F7E7FFF706FB0099411A05
:100E600041F28830814264D830688007F4D50EE0C2
:100E7000FFF7FAFA009007E0FFF7F6FA0099411A37
:100E800041F28830814254D830688007F4D42FB1C1
:100E9000DAF8001021F08051CAF80010A869C0B338
:100EA000DBF80010C1F3810102294AD0022848462C
:100EB00007D0C8F86000FFF7D7FA00E039E0054630
:100EC0003AE04746C8F86000FFF7CEFA064604E06D
:100ED000FFF7CAFA801B02282BD820688001F7D4BC
:100EE000D5E907010843A96A1C4A490802EB0141F8
:100EF0006A6A41EA8211084395F82C1040EA0161C0
:100F00001148001F016001203866FFF7ADFA054661
:100F100005E014E0FFF7A8FA401B022809D8206872
:100F20008001F7D50BE000BFFFF79EFA401B0228B7
:100F300002D90320BDE8F88F20688001F4D4002096
:100F4000F8E70120F6E700000838024000380240C8
:100F500000004742800E4742007000400000FFFF43
:100F600010B5401EB0F1807F01D3012010BD4FF0BD
:100F7000E02460610F21601700F04BFA0020A061AF
:100F800007202061002010BDFEE701684A69D243B6
:100F900052050FD46FF480624A61002140F8301F7F
:100FA000202242738173026942F0040202610173DC
:100FB00001207047002070472DE9F84F0446006873
:100FC00089460B9D01689846174641F4806101608F
:100FD0002068016841F48071016000954FF0011AAA
:100FE0000022514620460A9B00F0CAF8002853D13F
:100FF000216809F0FE0008610AF1010B2B465946F1
:1010000020460A9A00F0F0F8F0BB20684169806938
:1010100000902A4620460A9900F064F940B1206CFD
:10102000042839D12068016841F40071016033E07F
:10103000FEB2B8F1010F09D02168380A08612A46CA
:1010400020460A9900F04EF90028E8D12068066190
:101050002A4620460A9900F045F90028DFD1206889
:10106000016841F4807101600095002251462046DC
:101070000A9B00F085F838B9216809F0FF0040F0BC
:10108000010008612B4600E006E0594620460A9A16
:1010900000F0AAF8002800D00120BDE8F88F000079
:1010A0002DE9F843044600680D46DDE9089701681C
:1010B0009846164641F4807101604B4600224FF07D
:1010C00001112046009700F05BF8E0B9216805F0B7
:1010D000FE0008613B464A461549204600F084F868
:1010E00088B920684169806900903A46494620469F
:1010F00000F0F8F850B1206C042804D12068016891
:1011000041F4007101600120BDE8F883F5B2B8F147
:10111000010F09D02168300A08613A464946204645
:1011200000F0E0F80028E6D1206805610020EBE738
:101130000200010070B516460D4604460DE020463B
:10114000FFF723FF08B1012070BD681C05D0FFF731
:101150008BF9801BA84207D835B120684069C0438D
:101160004007ECD4002070BD002044F8300F20214F
:101170006173A073216941F0200121612073E2E7CE
:101180002DE9F0471E4690460D460446C1F3074739
:10119000DDF8209008E0701C06D0FFF765F9A0EBA1
:1011A0000900B0420FD876B12068012F18D08069AD
:1011B00025EA00000004000C14D000214145EAD0CB
:1011C0000020BDE8F087002044F8300F2021617333
:1011D000A073216941F02001216120730120F0E713
:1011E0004069E5E70121E9E72DE9F0479A46914694
:1011F0000E46044600254FF02008C1F3074725E0BE
:1012000020684069C043400514D42068016841F457
:101210000071016021686FF480604861256384F883
:101220003D8084F83E50206C40F00400206484F837
:101230003C501FE0B9F1FF3F08D0FFF715F9A0EBD4
:101240000A0149450CD8B9F1000F09D02068012FD7
:1012500013D0806926EA00000004000C0BD0CFE711
:1012600044F8305F84F80D80A573206940F02000B9
:10127000206125730120BDE8F0874069EAE72DE988
:10128000F041002590460E460446202717E04069AD
:10129000C043C0060CD454F8301B6FF010004861F6
:1012A00044F810596777A577206A2062257717E000
:1012B000FFF7DAF8A0EB0800B04208D83EB120688A
:1012C0004169C9434906E2D40020BDE8F08144F8F1
:1012D000305F6773A573206940F02000206125739B
:1012E0000120F2E770B516460D4604460DE0204693
:1012F000FFF74BFE08B1012070BD681C05D0FFF759
:10130000B3F8801BA84207D835B120684069C043B4
:101310000006ECD4002070BD002044F8300F2021DE
:101320006173A073216941F0200121612073E2E71C
:10133000FEE7704770477047FFF720BB30B593B0AA
:1013400030216846FEF77CFF14210CA8FEF778FFD9
:1013500018480025016841F080510160006800F0E4
:10136000805011901448016841F4404101600068C8
:10137000022400F4404011900120009000040190EC
:101380008001CDE9064008AA0420642182E8130008
:101390000B906846FFF756FC0CA90F2081E831003E
:1013A000E002CDE90F0503210CA8FFF773FB13B092
:1013B00030BD000040380240007000401048016815
:1013C00041F4700101600F48016841F001010160C2
:1013D0000C4A00210832116002680B4B1A4002606F
:1013E000031D0A4A1A60026822F48022026005483E
:1013F0000C300160024958068039086070470000CF
:1014000088ED00E000380240FFFFF6FE10300024B7
:10141000FEE70907090E002804DB00F1E02080F850
:101420000014704700F00F0000F1E02080F8141D58
:10143000704702E008C8121F08C1002AFAD170479D
:101440007047002001E001C1121F002AFBD1704744
:101450000EB5FFF79BFAFFF771FF274800210268DE
:1014600042F080020260026802F08002009202688C
:1014700042F0020202600068204A00F00200009080
:101480001F4802601F4AC0E901214FF48042C0E9B1
:10149000031241618161C1610162FEF7EBFF1A49EC
:1014A000012464200091CDE901400D462346AA782D
:1014B00069781348FFF794F9A0464FF47A7705F15D
:1014C0000A0600243119CDE9001804F1280082B27F
:1014D0000297012369780A48FFF786F8641C062CF6
:1014E000F0DB3088A8807088E880B0882881384692
:1014F000FEF7E4FEE5E7000030380240005400400B
:1015000020000020A0860100000000200000000054
:1015100000000000010203040607080900000000A3
:101520000102030444150008000000202000000010
:101530003214000864150008200000205804000040
:1015400042140008473220000000000000000000A4
:10155000000000000100000010000000000000007A
:041560000024F4006F
:040000050800019955
:00000001FF
