:020000040800F2
:1000000048040020AD010008FF120008EB110008B1
:10001000FD120008B9020008651400080000000085
:100020000000000000000000000000007313000842
:10003000BB0200080000000001130008751300084F
:10004000C7010008C7010008C7010008C701000870
:10005000C7010008C7010008C7010008C701000860
:10006000C7010008C7010008C7010008C701000850
:10007000C7010008C7010008C7010008C701000840
:10008000C7010008C7010008C70100080000000000
:10009000000000000000000000000000C701000890
:1000A000C7010008C7010008C7010008C701000810
:1000B000C7010008C7010008C7010008C701000800
:1000C000C7010008C7010008C7010008C7010008F0
:1000D000C7010008C7010008C701000800000000B0
:1000E000C701000805130008C70100080000000050
:1000F000000000000000000000000000C701000830
:1001000000000000C7010008C7010008C70100087F
:1001100000000000000000000000000000000000DF
:10012000C7010008C7010008C7010008C70100088F
:10013000C7010008000000000000000000000000EF
:10014000000000000000000000000000C7010008DF
:10015000C7010008C7010008C7010008C70100085F
:10016000C7010008C70100080000000000000000EF
:10017000000000000000000000000000000000007F
:1001800000000000C701000800000000000000009F
:10019000C7010008C7010008DFF80CD000F07AF8AA
:1001A00000480047A514000848040020064880477E
:1001B00006480047FEE7FEE7FEE7FEE7FEE7FEE74C
:1001C000FEE7FEE7FEE7FEE71114000899010008CC
:1001D0002DE9F05F0546002092469B46884606467C
:1001E000814640241BE0284641464746224600F00F
:1001F00041F853465A46C01A914110D31146184649
:10020000224600F028F82D1A67EB01084F462246D7
:100210000120002100F01FF817EB00094E41201EBD
:10022000A4F10104DFDC484631462A464346BDE8D6
:10023000F09FD2B201E000F8012B491EFBD27047BB
:100240000022F6E710B513460A4604461946FFF7A2
:10025000F0FF204610BD202A04DB203A00FA02F10C
:10026000002070479140C2F1200320FA03F31943A4
:1002700090407047202A04DB203A21FA02F0002146
:10028000704721FA02F3D040C2F1200291400843A6
:1002900019467047064C074D06E0E06840F0010340
:1002A00094E8070098471034AC42F6D3FFF778FF84
:1002B000F014000810150008FEE7704770B50446FA
:1002C00000F0DEF80546601C02D0044800780444C3
:1002D00000F0D6F8401BA042FAD370BD0400002005
:1002E0002DE9F84FDFF860B100224FF001084FF020
:1002F000030A4FF00F090BF1040E00BF0B6808FA58
:1003000002F42340A3426ED14D68022D01D0122D7C
:100310000ED1D50800EB850CDCF820505607F70EFF
:1003200009FA07F6B5430E69BE402E43CCF82060AB
:10033000066855000F790AFA05FC07F0030726EA5C
:100340000C06AF40374307604E68012E05D0022EE1
:1003500003D0112E01D0122E0ED18668CF6826EA66
:100360000C06AF40374387604668A6430C79C4F358
:100370000014944034434460C6688C6826EA0C0636
:10038000AC403443C4604C68E40056D52F4C25681B
:1003900045F480452560246822F0030504F4804478
:1003A00000942B4C2E19D6F8084895072F0F09FA00
:1003B00007F5AC43274DA84201D1002515E0264D95
:1003C000A84201D1012510E0244DA84201D1022507
:1003D0000BE0234DA84201D1032506E0214DA842A0
:1003E00002D1042501E028E00725BD402543C6F8D9
:1003F0000858DBF800405D464E689C43F60300D584
:100400001C432C60DEF8004075464E689C43B603E2
:1004100000D51C432C600C4D08352C684E689C435D
:10042000F60200D51C432C60074D0C352C684E6835
:100430009C43B60200D51C432C60521C102AFFF4CA
:100440005DAFBDE8F88F0000003C01404438024039
:100450000030014000000240000402400008024059
:10046000000C024000100240426931EA020200D151
:100470000904816170470AB1816170470904FBE793
:10048000014880687047000004000020024881682D
:100490000278114481607047040000200B4810B5B9
:1004A000016841F400710160016841F480610160FC
:1004B000016841F480710160032000F06FF80020B2
:1004C00000F006F800F024F8002010BD003C0240C7
:1004D00070B50D4D04464FF47A712878B1FBF0F0F9
:1004E0000A490968B1FBF0F000F06BFE48B9102C26
:1004F00007D200222146501E00F030F800206C6028
:1005000070BD012070BD000004000020100000201C
:100510000A4808B5016841F480410160006800F4B0
:10052000804000900548001F016841F08051016043
:10053000006800F08050009008BD00004438024080
:10054000002809DB00F01F020121914040098000D2
:1005500000F1E020C0F8001170470000F0B40E4B2D
:100560001B680C46C3F30223C3F10705042D00D911
:100570000425191D072901D2002300E0DB1E0126F6
:1005800006FA05F1491E214099409E40761E16400C
:100590003143F0BC00F067BF0CED00E0064900F00D
:1005A000070208684FF6FF03184040EA0220034A9A
:1005B00010430860704700000CED00E00000FA05F1
:1005C0002DE9F843044600684FF00109C1074FF0D8
:1005D000000601D1400729D5DFF82081C8F86860FE
:1005E000FFF74EFF0746464D05E000BFFFF748FF07
:1005F000C01B022859D828680001F7D4A068217BC5
:10060000800140EA0170616808433D498431086017
:10061000C8F86890FFF734FF074604E0FFF730FFA3
:10062000C01B022841D828680001F7D52078800730
:1006300052D533484030016841F080510160006874
:10064000304D00F080500090286840F480702860A1
:10065000FFF716FF074604E0FFF712FFC01B022852
:1006600023D82868C005F7D5254D7035286810F4C3
:10067000407020D0218A01F4407181421BD028684B
:10068000214920F44070C1F800900E60286028686D
:10069000C00710D0FFF7F4FE064641F2883707E0A6
:1006A000FFF7EEFE801BB84202D90320BDE8F883B5
:1006B00028688007F4D521691148C1F30122083068
:1006C000032A12D0016821F4F81101602868218AF8
:1006D000C1F30B01084328602078000703D50B49BC
:1006E000207DC1F8E0010020E0E70268084B22F419
:1006F000F81219400A430260E8E700000000474290
:100700000038024000700040400E4742001047424F
:10071000FFFCFF0F2DE9F0470E46050065D0DFF81E
:100720001481D8F80000F7B200F00F00B04207D2F1
:1007300088F80070D8F8000000F00F00B04254D1E3
:1007400028683D4C810712D5400703D5206840F446
:10075000E05020602878000703D5206840F460400E
:1007600020602068A96820F0F00008432060287805
:10077000C0072DD0304968680839012812D00228F6
:1007800013D0032811D00968890700292DDA2168C0
:1007900021F0030101432160FFF772FE814641F21F
:1007A000883A0EE009688903EFE709688901ECE7F8
:1007B000FFF766FEA0EB0901514502D90320BDE811
:1007C000F0872068696800F00C00B0EB810FEFD172
:1007D000D8F80010404601F00F01B14207D9077068
:1007E000006800F00F00B04201D00120E7E7287850
:1007F000400705D52068E96820F4E05008432060F0
:100800002878000706D52068296920F4604040EA6E
:10081000C100206000F016F82168084AC1F30311F6
:10082000515CC840064908600020FFF751FE0020D7
:10083000C5E70000003C024008380240E014000810
:1008400010000020154810B5006810F00C02144884
:1008500013D04110042A0FD0082A0ED10F4C241FA8
:100860002268236802F03F025B0207D52068C0F3CC
:100870008810A0FB010106E0084610BD2168C1F305
:100880008811A1FB00010023FFF7A2FC2168C1F33E
:100890000141491C4900B0FBF1F010BD083802408D
:1008A0000024F4002DE9F84F050076D02878DFF811
:1008B000F8B2BE4CC00749D0DBF800105846C1F36F
:1008C0008101012908D00068C0F3810002280AD103
:1008D000201D0068400206D52068800336D5686870
:1008E0000028E2D032E06868B0F5803F10D0B0F563
:1008F000A02F206810D020F480302060206820F4E1
:10090000802020606868A0B1FFF7BAFD06460CE0C1
:10091000206840F48030F4E740F480202060F7E75E
:10092000FFF7AEFD801B642873D820688003F7D5DD
:100930000CE0FFF7A5FD064605E000BFFFF7A0FDB0
:10094000801B6428F0D820688003F7D42878DFF86B
:10095000608280074FF000093ED5DBF80010584652
:1009600011F00C0F09D00068C0F3810002280BD1F0
:100970008D48001F0068400206D42068800715D506
:10098000E868012809D111E0E868B8B10120C8F889
:100990000000FFF775FD064605E002E1FFF770FD78
:1009A000801B0228C0D820688007F7D520682969F5
:1009B00020F0F80040EAC10020600DE0C8F8009087
:1009C000FFF75EFD064604E0FFF75AFD801B022894
:1009D0001FD820688007F7D42878000722D5724EE8
:1009E000744869696C3671B101210160FFF748FDF7
:1009F000074604E0FFF744FDC01B022809D8306811
:100A00008007F7D50EE0C0F80090FFF739FD0746E4
:100A100005E083E0FFF734FDC01B02287ED8306874
:100A20008007F7D42878400768D5DFF87CA1002735
:100A30000AF1380ADAF80000C0000BD4DAF8001026
:100A400041F08051CAF80010DAF80000012700F0E8
:100A500080500090584E3068C00510D4306840F483
:100A600080703060FFF70CFD009005E0FFF708FD97
:100A70000099401A022851D83068C005F6D54A4E70
:100A8000A868683601280FD00528306810D020F0FB
:100A900001003060306820F004003060A868B8B110
:100AA000FFF7EEFC00900FE0306840F00100F4E743
:100AB00040F004003060F7E7FFF7E2FC0099411ACC
:100AC00041F28830814264D830688007F4D50EE066
:100AD000FFF7D6FC009007E0FFF7D2FC0099411A1F
:100AE00041F28830814254D830688007F4D42FB165
:100AF000DAF8001021F08051CAF80010A869C0B3DC
:100B0000DBF80010C1F3810102294AD002284846CF
:100B100007D0C8F86000FFF7B3FC00E039E00546F5
:100B20003AE04746C8F86000FFF7AAFC064604E032
:100B3000FFF7A6FC801B02282BD820688001F7D481
:100B4000D5E907010843A96A1C4A490802EB01419B
:100B50006A6A41EA8211084395F82C1040EA016163
:100B60001148001F016001203866FFF789FC054627
:100B700005E014E0FFF784FC401B022809D8206838
:100B80008001F7D50BE000BFFFF77AFC401B02287D
:100B900002D90320BDE8F88F20688001F4D400203A
:100BA000F8E70120F6E7000008380240003802406C
:100BB00000004742800E4742007000400000FFFFE7
:100BC0007047000010B58AB0044600234FF48072CD
:100BD000694600F049F89DF802103A2903D900202F
:100BE0008DF8020002E0491C8DF8021000226946CF
:100BF000204600F035F90028F8D14FF48051024822
:100C0000FFF732FC0AB010BD000C024010B50446DC
:100C10000068C168C9050CD58068C00409D52046A4
:100C2000FFF7D0FF2068C16801F0800161F4C07156
:100C3000C1602068C16889050CD58068800409D529
:100C40002046FFF7BDFF2068C16801F0800161F414
:100C50002071C16003494FF40030086001206077C3
:100C600010BD0000143C014030B50C464FF48071BB
:100C70008A4204D161620068C169406C05E04FF4AA
:100C8000007161620068016A806CC1F30625C0F3DF
:100C90000E02C1F305402070657001F07F05A5705C
:100CA000402505EA1145E5706260C1F3056284F8EC
:100CB000202001F0804201F08031E261616183B95E
:100CC00000F026FB2070607800F022FB6070A078B6
:100CD00000F01EFBA07094F8200000F019FB84F8CF
:100CE0002000002030BD000010B500680B464168B0
:100CF0000D480140080CD870C1F304245C7001F069
:100D00003F049C70C1F34231197052B900F000FBEE
:100D1000D870587800F0FCFA5870987800F0F8FA1B
:100D20009870002010BD00003FFFFF0010B50B467B
:100D30000168896A596001680969C1F30E01996007
:100D4000006801680E480140C1F305401870C1F306
:100D500006245C7001F07F049C70402404EA114179
:100D6000D97052B900F0D4FA1870587800F0D0FA5F
:100D70005870987800F0CCFA9870002010BD0000F0
:100D80007F7F7F0070B5040002D0607F10B106E065
:100D9000012070BD00202077204600F049F8022095
:100DA00060772168CA204862216853204862204643
:100DB00000F0C2FAFF25042618BB206881681B4A90
:100DC000114081602168886862681043D4E9042377
:100DD0001A43104388602168E0680861206801694F
:100DE000228941EA024101612068C16821F0800145
:100DF000C16020688068800607D4204600F0C6F9EC
:100E000018B1206845626677C2E72068016C21F45A
:100E1000802101642068016CA2691143016420688B
:100E2000456201206077002070BD0000BFFF8FFF8A
:100E300010B50068084988420CD1084901200860B3
:100E4000002211462920FFF789FBBDE81040292028
:100E5000FFF776BB10BD0000002800403C0E474263
:100E6000F8B503465A480C464FF4FA410068B0FB07
:100E7000F1F0491148430090187F012863D0012602
:100E80001E770220587718680025002A80684FEAEC
:100E900040605AD0002800DBE570A0782278E7781F
:100EA00040EA02406278E169120242EA07421043D6
:100EB00094F8202040EA026008436169A26908436F
:100EC00061681F681143CA227A621F6853227A62DE
:100ED000626AFF27B2F5807F1A684FF0030C9468AE
:100EE0004ED024F4007494601A68D46804F080042E
:100EF00064F42074D4601A68009CB4F1010ECDF83B
:100F000000E05ED3D468A407F6D510621868816447
:100F10001868816841F4007181601868816841F443
:100F2000005181602B48016841F40031016029487B
:100F30000830016841F400310160186847625E774B
:100F40001D770020F8BD0220F8BD002800DBE57009
:100F5000207800F0E6F90204607800F0E2F942EA55
:100F60000022A07800F0DDF90243E07842EA004276
:100F700094F8200000F0D5F942EA0060E1699BE7AF
:100F800024F4807494601A68D46804F0800464F4D3
:100F9000C074D4601A68009CB4F1010ECDF800E072
:100FA0000FD3D468E407F6D0D0611868416418689C
:100FB000816841F4807181601868816841F48051D2
:100FC000AFE7576283F81DC01D770320F8BD00000E
:100FD00010000020003C01402DE9F0470446007F4E
:100FE0000B4601281FD04FF0010984F81C90022005
:100FF0006077DAB19878D97840EA0145587819785D
:10100000000240EA413005432168CA204862216855
:1010100053204862204600F08FF90026FF274FF04A
:10102000040860BB1AE00220BDE8F0875878C106CA
:1010300003D500F0EF000A305870D87800F071F94D
:101040000204587800F06DF942EA0022987800F026
:1010500068F90243187842EA4035D5E70F48054061
:10106000206845602068C16821F08001C160206867
:10107000806880060AD4204600F088F830B12068E5
:10108000476284F81D8026770120CDE720684762FB
:1010900084F81D9026770020C6E700003FFFFF0080
:1010A0002DE9F0470446007F0D46012827D04FF078
:1010B000010A84F81CA0022060772068002680685E
:1010C0004FEA4060F2B1002800DBEE70A878297882
:1010D00040EA01476878E978000240EA01400743A6
:1010E0002168CA204862216853204862204600F0E7
:1010F00023F94FF0FF084FF00409A0BB16E00220CF
:10110000BDE8F087002800DBEE70287800F009F9D0
:101110000204687800F005F942EA0022A87800F09D
:1011200000F90243E87842EA0047D9E71648074049
:10113000206807602068816821F480218160D5E9FA
:101140000301084321688A68104388602068C168E9
:1011500021F08001C1602068806880060BD42046A1
:1011600000F014F838B12168C1F8248084F81D908B
:1011700026770120C4E72168C1F8248084F81DA0E7
:1011800026770020BCE700007F7F7F0070B5044613
:101190000068C16821F0A001C160FFF771F9054640
:1011A0004FF47A7607E000BFFFF76AF9401BB042C0
:1011B00001D9032070BD2068C0688006F4D50020E6
:1011C00070BD10B5401EB0F1807F01D3012010BD6D
:1011D0004FF0E02460610F21601700F044F9002017
:1011E000A06107202061002010BDFEE770B586B029
:1011F00014216846FFF724F812480024016841F0E2
:1012000080010160016801F080010591016841F0F1
:101210000801016000680C4E00F008004FF4805592
:101220000590224629463046FFF725F90120009512
:10123000CDE90104694630460394FFF751F806B042
:1012400070BD000030380240000C024070B590B014
:1012500014210AA8FEF7F4FF0024282168460F9401
:10126000FEF7EEFF23482249C0E900147F21816088
:10127000F921C0E9031444618461FFF783FD13255C
:101280008DF8285019208DF829008DF82A400D94EA
:1012900000220AA917480E94FFF702FF04208DF8D8
:1012A0003C0005208DF83D001E268DF83E608DF82F
:1012B0003F5000220FA90F48FFF78EFE8DF8005017
:1012C0008DF801600C488DF80240CDE9044003948C
:1012D00001208DF8200000020194099006940794E3
:1012E000002269460348FFF7BBFD10B070BD000047
:1012F000002800401400002000808080FEE7704736
:10130000704700000148FFF781BC00001400002076
:10131000010901EB810100F00F0000EB4100C0B2B8
:101320007047002102E00A38C0B2491C0A28FAD2EC
:10133000090740EA1160704770B504460068C1684B
:10134000490614D44FF0FF31C160FFF799F8054604
:101350004FF47A7607E000BFFFF792F8401BB042E7
:1013600001D9032070BD2068C0684006F4D5002074
:1013700070BD7047FFF78AB830B599B03021684624
:10138000FEF75EFF14210CA8FEF75AFF182111A8E2
:10139000FEF756FF1C480025016841F080510160AE
:1013A000006800F0805017901848016841F44041EF
:1013B00001600068022400F440401790092000906A
:1013C0004FF4803001900120CDE90504800507909D
:1013D00008AA0420642182E813000B906846FFF7F6
:1013E00061FA0CA90F2081E83100E002CDE90F0578
:1013F00003210CA8FFF78EF920021590119411A873
:10140000FFF7DEF819B030BD4038024000700040F0
:101410001048016841F4700101600F48016841F013
:10142000010101600C4A00210832116002680B4B77
:101430001A400260031D0A4A1A60026822F48022E0
:10144000026005480C300160024958068039086086
:101450007047000088ED00E000380240FFFFF6FE14
:1014600010300024FEE70907090E002804DB00F114
:10147000E02080F80014704700F00F0000F1E02039
:1014800080F8141D704702E008C8121F08C1002A26
:10149000FAD170477047002001E001C1121F002AF5
:1014A000FBD17047FEF7FAFFFFF766FFFFF79EFEDE
:1014B000FFF7CCFE4FF47A7407490022A1F1200017
:1014C000FFF734FC0448002204492038FFF70CFCE5
:1014D0002046FEF7F3FEEFE7340000200000002076
:1014E00000000000000000000102030406070809D4
:1014F00010150008000000201400000086140008E9
:10150000241500081400002034040000961400087C
:1015100000000000010000001000000000000000BA
:041520000024F400AF
:040000050800019955
:00000001FF
