:020000040800F2
:1000000060040020AD010008A3120008451200089A
:10001000A11200081D07000881130008000000005D
:10002000000000000000000000000000A71200080F
:100030001F07000800000000A5120008A912000810
:10004000C7010008C7010008C7010008C701000870
:10005000C7010008C7010008C7010008C701000860
:10006000C7010008C7010008C7010008C701000850
:10007000C7010008C7010008C7010008C701000840
:10008000C7010008C7010008C70100080000000000
:10009000000000000000000000000000C701000890
:1000A000C7010008C7010008C7010008C701000810
:1000B000C7010008C7010008C7010008C701000800
:1000C000C7010008C7010008C7010008C7010008F0
:1000D000C7010008C7010008C701000800000000B0
:1000E000C7010008C7010008C701000800000000A0
:1000F000000000000000000000000000C701000830
:1001000000000000C7010008C7010008C70100087F
:1001100000000000000000000000000000000000DF
:10012000C7010008C7010008C7010008C70100088F
:10013000C7010008000000000000000000000000EF
:10014000000000000000000000000000C7010008DF
:10015000C7010008C7010008C7010008C70100085F
:10016000C7010008C70100080000000000000000EF
:10017000000000000000000000000000000000007F
:1001800000000000C701000800000000000000009F
:10019000C7010008C7010008DFF80CD000F018FA0A
:1001A00000480047C113000860040020064880474B
:1001B00006480047FEE7FEE7FEE7FEE7FEE7FEE74C
:1001C000FEE7FEE7FEE7FEE72D13000899010008B1
:1001D0002DE9F05F0546002092469B46884606467C
:1001E000814640241BE0284641464746224600F00F
:1001F0004BF953465A46C01A914110D3114618463E
:10020000224600F032F92D1A67EB01084F462246CC
:100210000120002100F029F917EB00094E41201EB2
:10022000A4F10104DFDC484631462A464346BDE8D6
:10023000F09FD2B201E000F8012B491EFBD27047BB
:100240000022F6E710B513460A4604461946FFF7A2
:10025000F0FF204610BD2DE9FE4F81EA030404F0B3
:10026000004421F0004100944FF0000B23F00043C4
:1002700050EA01045ED052EA03045BD0C3F30A548F
:10028000C1F30A552C44A4F2F3340194A0FB0254A8
:10029000C1F3130141F48011C3F3130343F480133A
:1002A00001FB024400FB034E840A970A44EA81548E
:1002B00047EA8357A4FB076802958D0A05FB07856B
:1002C0004FEA932C04FB0C542705029D4FEA065875
:1002D00047EA1637B5EB08056EEB070C870E920E52
:1002E00047EA811742EA8312A7FB0201B6EB0B0132
:1002F00064EB00042B0D43EA0C335E1844EB1C50F6
:10030000DA465146E7FB0201C5F313044FEA0B330B
:1003100043EA14534FEA0432019C43EA0603A4F172
:100320000C040294009CCDE900B400F003F903B082
:10033000BDE8F08F00200146F9E72DE9F04D81EA94
:10034000030404F0004B21F0004514464FF0000A6E
:1003500023F0004150EA050220D054EA01021DD0EA
:10036000C5F30A570246C5F31303C1F31300C1F3E3
:100370000A5640F4801543F48013A7EB0608101BBF
:10038000D64608F2FD3873EB050002D308F10108E8
:1003900001E092185B41B8F1000F03DA002001463A
:1003A000BDE8F08D00204FF48011064684460EE033
:1003B000171B73EB050705D3121B63EB05030643FD
:1003C0004CEA010C49084FEA300092185B4150EAB0
:1003D0000107EDD152EA030012D082EA040083EA59
:1003E0000501084305D0101BAB4106D201220023B2
:1003F00006E000224FF0004302E06FF001025310CC
:100400001AEB06004CEB085110EB0A0041EB0B0114
:10041000BDE8F04D00F07FB80EB540F233410291D7
:100420000021CDE900110A460B4600F083F803B025
:1004300000BD01F0004330B421F0004150EA010258
:1004400006D00A0DA2F56072C1F31301002A02DC86
:1004500030BC00207047440F44EAC104C100E018DA
:1004600030BC00EBC25000F01FB8202A04DB203A59
:1004700000FA02F1002070479140C2F1200320FAF7
:1004800003F3194390407047202A04DB203A21FAF5
:1004900002F00021704721FA02F3D040C2F120029D
:1004A00091400843194670470029A8BF7047401C77
:1004B000490008BF20F00100704710B4B0FA80FC7A
:1004C00000FA0CF050EA010404BF10BC704749B1B7
:1004D000CCF1200421FA04F411FA0CF118BF012127
:1004E00021430843A3EB0C01CB1D4FEA00614FEA07
:1004F000102042BF002010BC704700EBC3501044D6
:100500000029A4BF10BC7047401C490008BF20F060
:10051000010010BC704710B5141E73F1000408DA16
:10052000401C41F1000192185B411A4301D120F0B7
:10053000010010BD2DE9F04D92469B4611B1B1FA74
:1005400081F202E0B0FA80F220329046FFF78DFF90
:1005500004460F4640EA0A0041EA0B0153465A4658
:10056000084313D0114653EA010019D0C8F14002E4
:100570005046FFF789FF05460E465046594642460B
:10058000FFF773FF084305D0012004E020463946F9
:10059000BDE8F08D0020054346EAE0762C43374362
:1005A0000A986305E40AA0EB08000022FD0A44EA69
:1005B00047540A3002D500200146E9E70105101929
:1005C0006941DDE9084500196941BDE8F04DA2E740
:1005D000064C074D06E0E06840F0010394E8070090
:1005E00098471034AC42F6D3FFF7DAFD7C140008CC
:1005F0009C140008464910B54A6822F440324A600B
:100600004A6843681A434A6001684A6822F4807263
:100610004A6001684A68036942EA03224A60016845
:100620004A6822F040724A6001684A6883681A4347
:100630004A6001688A6822F400628A6001688A68F8
:10064000C3681A438A60816A6FF07062D1420168A0
:100650008A6822F070628A6001688A680CD0836AB6
:100660001A438A6001688A6822F040528A600168F1
:100670008A68C36A1A4301E022F040528A60016826
:100680008A6822F002028A6001688A68037E42EA70
:1006900043028A6090F82010002901684A680FD050
:1006A00042F400624A6001684A6822F460424A608B
:1006B00001684A68174C436A04EB43331A4301E06C
:1006C00022F400624A600168CA6A22F47002CA62B7
:1006D0000168CA6A838B104C04EB03531A43CA6245
:1006E00001688A6822F400728A6001688A6890F85A
:1006F000303042EA43228A6001688A6822F48062CC
:100700008A6001688A68406942EA8020886010BD7A
:100710000023014000E0FFFF0000F0FFFEE770470C
:1007200078B50024009490F83C20012A19D00122C9
:1007300080F83C200A6807230568092A13D9EE6867
:100740000A3A02EB420293409E43EE600B788A68BD
:100750000A3B03EB43039A400368DD682A43DA60EF
:1007600010E0022078BD2E6902EB420293409E43C6
:100770002E610B788A6803EB43039A4003681D6976
:100780002A431A614A681F23072A13D205686E6B31
:10079000521E02EB820293409E436E630A8893B21C
:1007A0000A79521E02EB820293400268556B2B437A
:1007B000536327E005680D2A12D22E6BD21F02EB7D
:1007C000820293409E432E630B790A88DB1F92B20C
:1007D00003EB83039A4003681D6B2A431A6311E0FD
:1007E000EE6A0D3A02EB820293409E43EE620B7971
:1007F0000A880D3B92B203EB83039A400368DD6ADB
:100800002A43DA621B4B0568194A9D420AD10D68DA
:10081000122D07D1556825F400055560556845F43B
:100820008005556005689D421DD1134D0B68AB4294
:1008300001D0112B17D1536823F480035360536800
:1008400043F4000353600968A9420CD10B490C4AD8
:100850000968B1FBF2F101EB8101490000E0491E9A
:1008600000910029FBD180F83C40002078BD0000B9
:10087000002301400020014012000010140000205D
:1008800040420F000068C06C704770B504004FF024
:10089000000503D0206C002610B107E0012070BDD8
:1008A000204600F01DF8666484F83C60206CC006A9
:1008B00010D4206C20F4885040F0020020642046C0
:1008C000FFF798FE6664206C20F0020040F0010003
:1008D000206400E0012584F83C60284670BD0000DB
:1008E00010B586B0044614216846FFF7A9FC1149EB
:1008F000206888421CD110480021026842F48072AE
:100900000260006800F4807005900B48143802689B
:1009100042F004020260006800F004000590082024
:1009200000900320CDE901016946044800F0CAF8AF
:1009300006B010BD002001404438024000080240CB
:100940002DE9F041044600680D4681684FF000072C
:1009500049050BD58068C00508D5206C40F0200003
:10096000206484F83C700120BDE8F08100F06EF94D
:1009700006460FE0681C0DD025B100F067F9801B1A
:10098000A84207D9206C40F00400206484F83C7031
:100990000320E9E7206800688007EBD521686FF045
:1009A00012000860206C40F40070206420688168A8
:1009B00011F0405F13D1217E89B9C16A11F4700F23
:1009C00002D0806840050AD4206C20F48070206436
:1009D000206CC00403D4206C40F00100206400208F
:1009E000C2E7000018B50021009190F83C20012AD0
:1009F00007D0012280F83C2002689368DB0702D010
:100A000011E0022018BD936843F001039360204A6F
:100A1000204B1268B2FBF3F202EB420200E0521EDE
:100A20000092002AFBD102689368DB072DD0036C8B
:100A300040F20164A34343F48073036453685B058D
:100A400005D5036C23F4005343F480530364036C13
:100A5000DB0404D5436C23F00603436400E04164E7
:100A600080F83C100C496FF022031360496800685D
:100A7000C90602D00949884207D1816811F0405F58
:100A800003D1816841F080418160002018BD0000E1
:100A90001400002040420F000023014000200140CC
:100AA00070B5044600F0D2F80546601C02D0044838
:100AB0000078044400F0CAF8401BA042FAD370BD8D
:100AC000080000202DE9F84FDFF860B100224FF058
:100AD00001084FF0030A4FF00F090BF1040E00BF9D
:100AE0000B6808FA02F42340A3426ED14D68022D30
:100AF00001D0122D0ED1D50800EB850CDCF820506A
:100B00005607F70E09FA07F6B5430E69BE402E43A5
:100B1000CCF82060066855000F790AFA05FC07F04A
:100B2000030726EA0C06AF40374307604E68012EE4
:100B300005D0022E03D0112E01D0122E0ED18668C0
:100B4000CF6826EA0C06AF40374387604668A64365
:100B50000C79C4F30014944034434460C6688C6834
:100B600026EA0C06AC403443C4604C68E40056D519
:100B70002F4C256845F480452560246822F0030544
:100B800004F4804400942B4C2E19D6F8084895079D
:100B90002F0F09FA07F5AC43274DA84201D10025D4
:100BA00015E0264DA84201D1012510E0244DA842B0
:100BB00001D102250BE0234DA84201D1032506E017
:100BC000214DA84202D1042501E028E00725BD40BF
:100BD0002543C6F80858DBF800405D464E689C4344
:100BE000F60300D51C432C60DEF8004075464E68C5
:100BF0009C43B60300D51C432C600C4D08352C6873
:100C00004E689C43F60200D51C432C60074D0C3502
:100C10002C684E689C43B60200D51C432C60521CC5
:100C2000102AFFF45DAFBDE8F88F0000003C0140E2
:100C300044380240003001400000024000040240FD
:100C400000080240000C0240001002400148806889
:100C500070470000080000200248816802781144B3
:100C600081607047080000200B4810B5016841F40E
:100C700000710160016841F480610160016841F424
:100C800080710160032000F061F8002000F006F898
:100C900000F024F8002010BD003C024070B50D4D5E
:100CA00004464FF47A712878B1FBF0F00A490968DC
:100CB000B1FBF0F000F0B2FA48B9102C07D20022D4
:100CC0002146501E00F022F800206C6070BD01200B
:100CD00070BD000008000020140000200A4808B57C
:100CE000016841F480410160006800F48040009098
:100CF0000548001F016841F080510160006800F064
:100D00008050009008BD000044380240F0B40E4B03
:100D10001B680C46C3F30223C3F10705042D00D959
:100D20000425191D072901D2002300E0DB1E01263E
:100D300006FA05F1491E214099409E40761E164054
:100D40003143F0BC00F01DBB0CED00E0064900F0A3
:100D5000070208684FF6FF03184040EA0220034AE2
:100D600010430860704700000CED00E00000FA0539
:100D70002DE9F0470E46050065D0DFF81481D8F85C
:100D80000000F7B200F00F00B04207D288F8007000
:100D9000D8F8000000F00F00B04254D128683D4C54
:100DA000810712D5400703D5206840F4E050206049
:100DB0002878000703D5206840F460402060206850
:100DC000A96820F0F000084320602878C0072DD0E3
:100DD000304968680839012812D0022813D0032846
:100DE00011D00968890700292DDA216821F0030153
:100DF00001432160FFF72AFF814641F2883A0EE065
:100E000009688903EFE709688901ECE7FFF71EFF2E
:100E1000A0EB0901514502D90320BDE8F087206805
:100E2000696800F00C00B0EB810FEFD1D8F800102A
:100E3000404601F00F01B14207D90770006800F089
:100E40000F00B04201D00120E7E72878400705D520
:100E50002068E96820F4E050084320602878000703
:100E600006D52068296920F4604040EAC10020606E
:100E700000F016F82168084AC1F30311515CC8401C
:100E8000064908600020FFF709FF0020C5E70000C1
:100E9000003C0240083802406C1400081400002096
:100EA000154810B5006810F00C02144813D041101A
:100EB000042A0FD0082A0ED10F4C241F2268236861
:100EC00002F03F025B0207D52068C0F38810A0FB48
:100ED000010106E0084610BD2168C1F38811A1FB9D
:100EE00000010023FFF774F92168C1F30141491C97
:100EF0004900B0FBF1F010BD083802400024F400B6
:100F00002DE9F84F050076D02878DFF8F8B2BE4C0E
:100F1000C00749D0DBF800105846C1F38101012910
:100F200008D00068C0F3810002280AD1201D0068A3
:100F3000400206D52068800336D568680028E2D0D4
:100F400032E06868B0F5803F10D0B0F5A02F20687F
:100F500010D020F480302060206820F480202060B1
:100F60006868A0B1FFF772FE06460CE0206840F406
:100F70008030F4E740F480202060F7E7FFF766FE5A
:100F8000801B642873D820688003F7D50CE0FFF736
:100F90005DFE064605E000BFFFF758FE801B642893
:100FA000F0D820688003F7D42878DFF860828007C3
:100FB0004FF000093ED5DBF80010584611F00C0F39
:100FC00009D00068C0F3810002280BD18D48001FB2
:100FD0000068400206D42068800715D5E86801281B
:100FE00009D111E0E868B8B10120C8F80000FFF7A6
:100FF0002DFE064605E002E1FFF728FE801B0228D1
:10100000C0D820688007F7D52068296920F0F8004B
:1010100040EAC10020600DE0C8F80090FFF716FE1E
:10102000064604E0FFF712FE801B02281FD8206846
:101030008007F7D42878000722D5724E7448696972
:101040006C3671B101210160FFF700FE074604E034
:10105000FFF7FCFDC01B022809D830688007F7D5D0
:101060000EE0C0F80090FFF7F1FD074605E083E0D1
:10107000FFF7ECFDC01B02287ED830688007F7D44C
:101080002878400768D5DFF87CA100270AF1380AE4
:10109000DAF80000C0000BD4DAF8001041F08051FB
:1010A000CAF80010DAF80000012700F08050009024
:1010B000584E3068C00510D4306840F480703060FD
:1010C000FFF7C4FD009005E0FFF7C0FD0099401A4E
:1010D000022851D83068C005F6D54A4EA86868364F
:1010E00001280FD00528306810D020F001003060B2
:1010F000306820F004003060A868B8B1FFF7A6FDA2
:1011000000900FE0306840F00100F4E740F0040088
:101110003060F7E7FFF79AFD0099411A41F28830F5
:10112000814264D830688007F4D50EE0FFF78EFD69
:10113000009007E0FFF78AFD0099411A41F28830DC
:10114000814254D830688007F4D42FB1DAF8001007
:1011500021F08051CAF80010A869C0B3DBF8001074
:10116000C1F3810102294AD00228484607D0C8F8B5
:101170006000FFF76BFD00E039E005463AE04746C6
:10118000C8F86000FFF762FD064604E0FFF75EFD69
:10119000801B02282BD820688001F7D4D5E90701ED
:1011A0000843A96A1C4A490802EB01416A6A41EAFC
:1011B0008211084395F82C1040EA01611148001F84
:1011C000016001203866FFF741FD054605E014E0A7
:1011D000FFF73CFD401B022809D820688001F7D5A5
:1011E0000BE000BFFFF732FD401B022802D90320AD
:1011F000BDE8F88F20688001F4D40020F8E70120D2
:10120000F6E700000838024000380240000047427C
:10121000800E4742007000400000FFFF10B5401EE6
:10122000B0F1807F01D3012010BD4FF0E024606158
:101230000F21601700F0A5F80020A06107202061B1
:10124000002010BDFEE700007FB500241248009486
:10125000019402940F49039401604FF4803141607E
:10126000090204618160047680F820400B49C0E9DE
:101270000A140125C561C46080F830404561FFF75C
:1012800004FB0D20CDE90005694602940248FFF7F2
:1012900047FA7FBD00200140180000200100000F28
:1012A000FEE7704770477047FFF7D6BC30B593B084
:1012B00030216846FEF7C4FF14210CA8FEF7C0FFDA
:1012C00018480025016841F080510160006800F075
:1012D000805011901448016841F440410160006859
:1012E000022400F44040119001200090000401907D
:1012F0008001CDE9064008AA0420642182E8130099
:101300000B906846FFF7FCFD0CA90F2081E8310027
:10131000E002CDE90F0503210CA8FFF729FD13B06A
:1013200030BD0000403802400070004010480168A5
:1013300041F4700101600F48016841F00101016052
:101340000C4A00210832116002680B4B1A400260FF
:10135000031D0A4A1A60026822F4802202600548CE
:101360000C3001600249580680390860704700005F
:1013700088ED00E000380240FFFFF6FE1030002448
:10138000FEE70907090E002804DB00F1E02080F8E1
:101390000014704700F00F0000F1E02080F8141DE9
:1013A000704702E008C8121F08C1002AFAD170472E
:1013B0007047002001E001C1121F002AFBD17047D5
:1013C0002DED068B82B0FFF74FFCFFF76FFF1E4835
:1013D000016841F080010160016801F08001009125
:1013E000016841F004010160006800F00400009011
:1013F000FFF72AFF154C9FED168B9FED179B9FED76
:1014000018AB4FF47A751848FFF7ECFA64211648C8
:10141000FFF796FA1448FFF735FA80B22080FEF7FE
:10142000FBFF53EC182BFEF716FF53EC192BFEF7BE
:1014300084FF53EC1A2BFEF70EFFFEF7FAFF6060F5
:101440002846FFF72DFBDEE7303802400000002081
:1014500000000000000008400000000000F88F407D
:1014600000000000000059401800002000000000AB
:101470000000000001020304060708099C1400088C
:101480000000002018000000A2130008B414000897
:101490001800002048040000B213000800000000FB
:1014A000000000000100000010000000000000002B
:0414B0000024F40020
:040000050800019955
:00000001FF
