:020000040800F2
:1000000088040020AD0100087F0C0008290C0008BE
:100010007D0C0008B90200085D0D0008000000001A
:10002000000000000000000000000000830C000839
:100030006103000800000000810C0008850C000826
:10004000C7010008C7010008C7010008C701000870
:10005000C7010008C7010008C7010008C701000860
:10006000C7010008C7010008C7010008C701000850
:10007000C7010008C7010008C7010008C701000840
:10008000C7010008C7010008C70100080000000000
:10009000000000000000000000000000C701000890
:1000A000C7010008C7010008C7010008C701000810
:1000B000C7010008C7010008C7010008C701000800
:1000C000C7010008C7010008C7010008C7010008F0
:1000D000C7010008C7010008C701000800000000B0
:1000E000C7010008C7010008C701000800000000A0
:1000F000000000000000000000000000C701000830
:1001000000000000C7010008C7010008C70100087F
:1001100000000000000000000000000000000000DF
:10012000C7010008C7010008C7010008C70100088F
:10013000C7010008000000000000000000000000EF
:10014000000000000000000000000000C7010008DF
:10015000C7010008C7010008C7010008C70100085F
:10016000C7010008C70100080000000000000000EF
:10017000000000000000000000000000000000007F
:1001800000000000C701000800000000000000009F
:10019000C7010008C7010008DFF80CD000F07AF8AA
:1001A000004800479D0D000888040020064880474D
:1001B00006480047FEE7FEE7FEE7FEE7FEE7FEE74C
:1001C000FEE7FEE7FEE7FEE7090D000899010008DB
:1001D0002DE9F05F0546002092469B46884606467C
:1001E000814640241BE0284641464746224600F00F
:1001F00041F853465A46C01A914110D31146184649
:10020000224600F028F82D1A67EB01084F462246D7
:100210000120002100F01FF817EB00094E41201EBD
:10022000A4F10104DFDC484631462A464346BDE8D6
:10023000F09FD2B201E000F8012B491EFBD27047BB
:100240000022F6E710B513460A4604461946FFF7A2
:10025000F0FF204610BD202A04DB203A00FA02F10C
:10026000002070479140C2F1200320FA03F31943A4
:1002700090407047202A04DB203A21FA02F0002146
:10028000704721FA02F3D040C2F1200291400843A6
:1002900019467047064C074D06E0E06840F0010340
:1002A00094E8070098471034AC42F6D3FFF778FF84
:1002B000FC0D00081C0E0008FEE700000168182372
:1002C000CAB2103AB2FBF3F2054B6FF30901032AED
:1002D0009B5CC36500D9091D816508467047000015
:1002E000E40D000810B5014600208B698A6A4FF0C2
:1002F000C07453B1B3F5005F15D072B1012A0CD0B0
:10030000022A0AD0032A09D104E01AB1012A06D030
:10031000022A03D1C96AC90100D5012010BDC96AEA
:10032000A142FAD010BD002AF7D0012AF2D0022A49
:10033000F3D0032AF3D010BD30B50468256825F446
:1003400080252560046863608368402B036803D0C0
:1003500099600068C26030BD9A600068C16030BDBD
:1003600070472DE9F0410446876D00F061F90646BB
:1003700094F835000025022806D08020606584F8B6
:1003800034500120BDE8F0812068016821F0160199
:1003900001602068416921F080014161206C08B949
:1003A000A06C20B12068016821F00801016020687C
:1003B000016821F0010101600BE000F039F9801BB8
:1003C000052806D92020606504F8345F032060709A
:1003D000D8E720680068C007EFD194F85C103F2090
:1003E0008840B86004F8345F012060700020C9E7DD
:1003F0002DE9F041044600F01BF906465CB10025EA
:1004000084F83450022084F835002068016821F017
:10041000010101600DE00120BDE8F08100F008F964
:10042000801B052805D920206065032084F835004D
:10043000F2E720680068C007F0D122681168204800
:100440000140D4E901031843D4E903363343184388
:1004500063691843A3691843E3691843236A18437F
:100460000843616A042903D1D4E90B1319430843F3
:10047000106020684069666A20F0070130460E432C
:10048000012704280CD1A06A0643E06A40B1204647
:10049000FFF728FF20B14020606584F83570BAE787
:1004A000206846612046FFF709FF94F85C203F2151
:1004B00091408160656584F835700020ACE70000EC
:1004C0003F8010F02DE9F74F82B0044600208946A6
:1004D000019000F0ADF8009094F835000027022854
:1004E00004D08020606584F8347068E0206800687B
:1004F000C00503D54FF48070606560E094F85C003F
:100500004FF0200B4FF0100AB9F1000F06D00AFA95
:1005100000F6A56D28684FF001083AE00BFA00F6E6
:10052000F7E70498401C12D0049830B100F080F82E
:100530000099411A0498814209D9C4F854B004F8CA
:10054000347F84F80180032005B0BDE8F08F28686F
:1005500094F85C2008219140014204D0626D42F081
:1005600001026265A96094F85C2008FA02F1014278
:1005700004D0626D42F002026265A96094F85C20CA
:1005800004219140014204D0626D42F00402626590
:10059000A960304202D1606DC007C2D0606D3026C4
:1005A00078B1606DC0070CD02046FFF7DAFE94F8F2
:1005B0005C008640AE6004F8347F84F8018001203E
:1005C000C2E7B9F1000F06D094F85C100AFA01F006
:1005D000A8600198B8E794F85C008640AE6004F823
:1005E000347F84F80180F4E770B5044690F8340055
:1005F000002501280CD0012084F8340094F83560DF
:100600000020012E06D084F834000225284670BD53
:10061000022070BD022684F8356060652046FFF731
:100620008BFE2068016841F001010160EEE70000E7
:1006300001488068704700000C0000200248816873
:1006400002781144816070470C0000200B4810B5FF
:10065000016841F400710160016841F4806101604A
:10066000016841F480710160032000F061F800200E
:1006700000F006F800F024F8002010BD003C024015
:1006800070B50D4D04464FF47A712878B1FBF0F047
:100690000A490968B1FBF0F000F0B2FA48B9102C31
:1006A00007D200222146501E00F022F800206C6084
:1006B00070BD012070BD00000C000020180000205B
:1006C0000A4808B5016841F480410160006800F4FF
:1006D000804000900548001F016841F08051016092
:1006E000006800F08050009008BD000044380240CF
:1006F000F0B40E4B1B680C46C3F30223C3F107058D
:10070000042D00D90425191D072901D2002300E07A
:10071000DB1E012606FA05F1491E214099409E4044
:10072000761E16403143F0BC00F019BB0CED00E022
:10073000064900F0070208684FF6FF03184040EA38
:100740000220034A10430860704700000CED00E0EF
:100750000000FA052DE9F0470E46050065D0DFF8E8
:100760001481D8F80000F7B200F00F00B04207D2B1
:1007700088F80070D8F8000000F00F00B04254D1A3
:1007800028683D4C810712D5400703D5206840F406
:10079000E05020602878000703D5206840F46040CE
:1007A00020602068A96820F0F000084320602878C5
:1007B000C0072DD0304968680839012812D00228B6
:1007C00013D0032811D00968890700292DDA216880
:1007D00021F0030101432160FFF72AFF814641F226
:1007E000883A0EE009688903EFE709688901ECE7B8
:1007F000FFF71EFFA0EB0901514502D90320BDE818
:10080000F0872068696800F00C00B0EB810FEFD131
:10081000D8F80010404601F00F01B14207D9077027
:10082000006800F00F00B04201D00120E7E728780F
:10083000400705D52068E96820F4E05008432060AF
:100840002878000706D52068296920F4604040EA2E
:10085000C100206000F016F82168084AC1F30311B6
:10086000515CC840064908600020FFF709FF0020DE
:10087000C5E70000003C024008380240EC0D0008CB
:1008800018000020154810B5006810F00C0214483C
:1008900013D04110042A0FD0082A0ED10F4C241F68
:1008A0002268236802F03F025B0207D52068C0F38C
:1008B0008810A0FB010106E0084610BD2168C1F3C5
:1008C0008811A1FB00010023FFF782FC2168C1F31E
:1008D0000141491C4900B0FBF1F010BD083802404D
:1008E0000024F4002DE9F84F050076D02878DFF8D1
:1008F000F8B2BE4CC00749D0DBF800105846C1F32F
:100900008101012908D00068C0F3810002280AD1C2
:10091000201D0068400206D52068800336D568682F
:100920000028E2D032E06868B0F5803F10D0B0F522
:10093000A02F206810D020F480302060206820F4A0
:10094000802020606868A0B1FFF772FE06460CE0C8
:10095000206840F48030F4E740F480202060F7E71E
:10096000FFF766FE801B642873D820688003F7D5E4
:100970000CE0FFF75DFE064605E000BFFFF758FEFE
:10098000801B6428F0D820688003F7D42878DFF82B
:10099000608280074FF000093ED5DBF80010584612
:1009A00011F00C0F09D00068C0F3810002280BD1B0
:1009B0008D48001F0068400206D42068800715D5C6
:1009C000E868012809D111E0E868B8B10120C8F849
:1009D0000000FFF72DFE064605E002E1FFF728FEC6
:1009E000801B0228C0D820688007F7D520682969B5
:1009F00020F0F80040EAC10020600DE0C8F8009047
:100A0000FFF716FE064604E0FFF712FE801B0228E1
:100A10001FD820688007F7D42878000722D5724EA7
:100A2000744869696C3671B101210160FFF700FEFD
:100A3000074604E0FFF7FCFDC01B022809D8306818
:100A40008007F7D50EE0C0F80090FFF7F1FD0746EC
:100A500005E083E0FFF7ECFDC01B02287ED830687C
:100A60008007F7D42878400768D5DFF87CA10027F5
:100A70000AF1380ADAF80000C0000BD4DAF80010E6
:100A800041F08051CAF80010DAF80000012700F0A8
:100A900080500090584E3068C00510D4306840F443
:100AA00080703060FFF7C4FD009005E0FFF7C0FDE7
:100AB0000099401A022851D83068C005F6D54A4E30
:100AC000A868683601280FD00528306810D020F0BB
:100AD00001003060306820F004003060A868B8B1D0
:100AE000FFF7A6FD00900FE0306840F00100F4E74A
:100AF00040F004003060F7E7FFF79AFD0099411AD3
:100B000041F28830814264D830688007F4D50EE025
:100B1000FFF78EFD009007E0FFF78AFD0099411A6C
:100B200041F28830814254D830688007F4D42FB124
:100B3000DAF8001021F08051CAF80010A869C0B39B
:100B4000DBF80010C1F3810102294AD0022848468F
:100B500007D0C8F86000FFF76BFD00E039E00546FC
:100B60003AE04746C8F86000FFF762FD064604E039
:100B7000FFF75EFD801B02282BD820688001F7D488
:100B8000D5E907010843A96A1C4A490802EB01415B
:100B90006A6A41EA8211084395F82C1040EA016123
:100BA0001148001F016001203866FFF741FD05462E
:100BB00005E014E0FFF73CFD401B022809D820683F
:100BC0008001F7D50BE000BFFFF732FD401B022884
:100BD00002D90320BDE8F88F20688001F4D40020FA
:100BE000F8E70120F6E7000008380240003802402C
:100BF00000004742800E4742007000400000FFFFA7
:100C000010B5401EB0F1807F01D3012010BD4FF020
:100C1000E02460610F21601700F0A1F80020A061BE
:100C200007202061002010BDFEE70000104882B0C0
:100C30000021026842F48002026000680D4A00F45C
:100C4000800000900C48C0E9002180228260920060
:100C5000C2605200C0E9042181610422C161C0E97F
:100C600008120322C0E90A21016302B0FFF7C0BBEA
:100C700030380240106402401C000020FEE770473C
:100C800070477047FFF7DABC30B593B03021684643
:100C9000FFF7D6FA14210CA8FFF7D2FA184800255E
:100CA000016841F080510160006800F080501190AF
:100CB0001448016841F4404101600068022400F4D6
:100CC0004040119001200090000401908001CDE986
:100CD000064008AA0420642182E813000B906846AD
:100CE000FFF700FE0CA90F2081E83100E002CDE9FA
:100CF0000F0503210CA8FFF72DFD13B030BD000038
:100D000040380240007000401048016841F4700112
:100D100001600F48016841F0010101600C4A0021A7
:100D20000832116002680B4B1A400260031D0A4A28
:100D30001A60026822F48022026005480C300160CB
:100D400002495806803908607047000088ED00E0CD
:100D500000380240FFFFF6FE10300024FEE70907CE
:100D6000090E002804DB00F1E02080F80014704731
:100D700000F00F0000F1E02080F8141D704702E041
:100D800008C8121F08C1002AFAD170477047002016
:100D900001E001C1121F002AFBD1704708B5FFF71F
:100DA00055FCFFF771FF0C48016841F080010160BC
:100DB000006800F080000090FFF738FF074A0A2320
:100DC0000749A2F16000FFF70FFC044864220021EC
:100DD0006038FFF777FBFEE7303802407C000020E8
:100DE000000000200006101600061016000000008B
:100DF0000000000001020304060708091C0E000899
:100E0000000000201C0000007E0D0008380E0008C5
:100E10001C0000206C0400008E0D0008000102037D
:100E2000040506070809000001000000100000008A
:080E3000000000000024F400A2
:040000050800019955
:00000001FF
