:020000040800F2
:1000000070040020AD0100087B15000831120008C3
:1000100079150008110500085916000800000000B5
:100020000000000000000000000000007F15000834
:1000300013050008000000007D1500088115000868
:10004000C7010008C7010008C7010008C701000870
:10005000C7010008C7010008C7010008C701000860
:10006000C7010008C7010008C7010008C701000850
:10007000C7010008C7010008C7010008C701000840
:10008000C7010008C7010008C70100080000000000
:10009000000000000000000000000000C701000890
:1000A000C7010008C7010008C7010008C701000810
:1000B000C7010008C7010008C7010008C701000800
:1000C000C7010008C7010008C7010008C7010008F0
:1000D000C7010008C7010008C701000800000000B0
:1000E000C7010008C7010008C701000800000000A0
:1000F000000000000000000000000000C701000830
:1001000000000000C7010008C7010008C70100087F
:1001100000000000000000000000000000000000DF
:10012000C7010008C7010008C7010008C70100088F
:10013000C7010008000000000000000000000000EF
:10014000000000000000000000000000C7010008DF
:10015000C7010008C7010008C7010008C70100085F
:10016000C7010008C70100080000000000000000EF
:10017000000000000000000000000000000000007F
:1001800000000000C701000800000000000000009F
:10019000C7010008C7010008DFF80CD000F0A6F97D
:1001A0000048004799160008700400200648804760
:1001B00006480047FEE7FEE7FEE7FEE7FEE7FEE74C
:1001C000FEE7FEE7FEE7FEE70516000899010008D6
:1001D0002DE9F05F0546002092469B46884606467C
:1001E000814640241BE0284641464746224600F00F
:1001F000D9F853465A46C01A914110D311461846B1
:10020000224600F0C0F82D1A67EB01084F4622463F
:100210000120002100F0B7F817EB00094E41201E25
:10022000A4F10104DFDC484631462A464346BDE8D6
:10023000F09FD2B201E000F8012B491EFBD27047BB
:100240000022F6E710B513460A4604461946FFF7A2
:10025000F0FF204610BD2DE9F04D81EA030404F0C3
:10026000004B21F0004514464FF0000A23F00041F6
:1002700050EA050220D054EA01021DD0C5F30A5706
:100280000246C5F31303C1F31300C1F30A5640F449
:10029000801543F48013A7EB0608101BD64608F21E
:1002A000FD3873EB050002D308F1010801E0921854
:1002B0005B41B8F1000F03DA00200146BDE8F08D84
:1002C00000204FF48011064684460EE0171B73EBA6
:1002D000050705D3121B63EB050306434CEA010C2B
:1002E00049084FEA300092185B4150EA0107EDD10E
:1002F00052EA030012D082EA040083EA05010843AF
:1003000005D0101BAB4106D20122002306E00022DB
:100310004FF0004302E06FF0010253101AEB0600A9
:100320004CEB085110EB0A0041EB0B01BDE8F04D1E
:1003300000F07FB80EB540F2334102910021CDE9C3
:1003400000110A460B4600F083F803B000BD01F02F
:10035000004330B421F0004150EA010206D00A0DFA
:10036000A2F56072C1F31301002A02DC30BC002048
:100370007047440F44EAC104C100E01830BC00EBF0
:10038000C25000F01FB8202A04DB203A00FA02F124
:10039000002070479140C2F1200320FA03F3194373
:1003A00090407047202A04DB203A21FA02F0002115
:1003B000704721FA02F3D040C2F120029140084375
:1003C000194670470029A8BF7047401C490008BF64
:1003D00020F00100704710B4B0FA80FC00FA0CF075
:1003E00050EA010404BF10BC704749B1CCF12004AD
:1003F00021FA04F411FA0CF118BF0121214308433A
:10040000A3EB0C01CB1D4FEA00614FEA102042BF65
:10041000002010BC704700EBC35010440029A4BF5B
:1004200010BC7047401C490008BF20F0010010BC00
:10043000704710B5141E73F1000408DA401C41F136
:10044000000192185B411A4301D120F0010010BD58
:100450002DE9F04D92469B4611B1B1FA81F202E0CE
:10046000B0FA80F220329046FFF78DFF04460F4627
:1004700040EA0A0041EA0B0153465A46084313D0AA
:10048000114653EA010019D0C8F140025046FFF767
:1004900089FF05460E46504659464246FFF773FF10
:1004A000084305D0012004E020463946BDE8F08D20
:1004B0000020054346EAE0762C4337430A9863055B
:1004C000E40AA0EB08000022FD0A44EA47540A307F
:1004D00002D500200146E9E7010510196941DDE96F
:1004E000084500196941BDE8F04DA2E7064C074DEB
:1004F00006E0E06840F0010394E8070098471034F4
:10050000AC42F6D3FFF74CFE5C1700087C170008DE
:10051000FEE7704770B5044600F0D8F80546601C49
:1005200002D004480078044400F0D0F8401BA042F8
:10053000FAD370BD0C0000202DE9F84FDFF860B150
:1005400000224FF001084FF0030A4FF00F090BF1A2
:10055000040E00BF0B6808FA02F42340A3426ED1D8
:100560004D68022D01D0122D0ED1D50800EB850C5F
:10057000DCF820505607F70E09FA07F6B5430E6966
:10058000BE402E43CCF82060066855000F790AFA69
:1005900005FC07F0030726EA0C06AF403743076067
:1005A0004E68012E05D0022E03D0112E01D0122E3E
:1005B0000ED18668CF6826EA0C06AF4037438760C5
:1005C0004668A6430C79C4F3001494403443446055
:1005D000C6688C6826EA0C06AC403443C4604C689C
:1005E000E40056D52F4C256845F4804525602468E5
:1005F00022F0030504F4804400942B4C2E19D6F805
:10060000084895072F0F09FA07F5AC43274DA84274
:1006100001D1002515E0264DA84201D1012510E0A9
:10062000244DA84201D102250BE0234DA84201D15F
:10063000032506E0214DA84202D1042501E028E06F
:100640000725BD402543C6F80858DBF800405D4645
:100650004E689C43F60300D51C432C60DEF8004036
:1006600075464E689C43B60300D51C432C600C4D68
:1006700008352C684E689C43F60200D51C432C605C
:10068000074D0C352C684E689C43B60200D51C43C0
:100690002C60521C102AFFF45DAFBDE8F88F0000FB
:1006A000003C01404438024000300140000002405C
:1006B0000004024000080240000C0240001002400A
:1006C0000AB1816170470904FBE7000001488068B6
:1006D000704700000C00002070B504001BD094F897
:1006E0003D00002520B984F83C50204600F056FA21
:1006F000242084F83D002068016821F00101016098
:1007000000F0B4FB4D4A6168914201D84C4900E0C9
:100710004C49884201D2012070BD4B492368B0FB8F
:10072000F1F15E6826F03F060E435E606368934217
:1007300006D94FF4967359434FF47A73B1FBF3F132
:100740002368491C1E6A26F03F063143196261681E
:10075000914210D84900401EB0FBF1F2521CC2F386
:100760000B02042A01D2042022E0B0FBF1F0401C6D
:10077000C0F30B001CE0A368F3B301EBC10202EB72
:100780000116421EB2FBF6F2521C42F480421205E0
:1007900049D093B301EBC10202EB0111401EB0FB43
:1007A000F1F0401CC0F30B0040F4804040F40040E6
:1007B0002168CA694CF6FF739A431043C861D4E9B3
:1007C0000701084321680A6822F0C002104308604C
:1007D000D4E9030101432068826848F2FF339A4359
:1007E00011438160D4E9050108432168CA6822F0F9
:1007F000FF021043C86001E00EE016E020680168C7
:1008000041F0010101602564202084F83D0025634A
:1008100084F83E50002070BD01EB4106421EB2FB41
:10082000F6F2521CB3E70120C2E701EB4101401E82
:10083000B0FBF1F0401CC0F30B00B7E7A08601004D
:1008400080841E0000093D0040420F002DE9FF4F4B
:1008500081B089460446FFF739FF054694F83D000C
:100860004FF0010820287AD1192301224B49204654
:10087000009500F068FD002871D194F83C00012833
:100880006DD0012084F83C0020680168C90703D1BD
:10089000016841F0010101602068016821F40061F4
:1008A0000160242084F83D00002626643C48E06274
:1008B0004FF0011B20272068016841F4807101601E
:1008C0000095002259462046049B00F03CFD00287C
:1008D00056D1216809F0FE000861FFF7F7FE216894
:1008E000054648694969C0F34000C1F380214FF0D3
:1008F000A00A0FE0FFF7EAFE411B0498814200D8EE
:1009000008B984F83DA0216848694969C0F34000EE
:10091000C1F3802194F83D20A02A02D008B9002913
:10092000E8D084F83D7020684169C943890717D42D
:10093000016841F4007101602068416980691923F0
:10094000012216492046009500F0FDFCC0B984F84C
:100950003D7084F83C60002005B0BDE8F08F1BE0DE
:10096000016841F40071016021686FF480604861A2
:100970001923012209492046009500F0E4FC08B142
:100980000120E9E7039808F10108804593D384F832
:100990003D7084F83C60F3E70220DDE702001000C0
:1009A0000000FFFF2DE9FF4F83B09A46DDE9119764
:1009B00093460446DDF84080FFF788FE054694F82C
:1009C0003D00202870D1192301227149204600954D
:1009D00000F0B9FC0028F5D194F83C00012863D060
:1009E000012084F83C0020680168C90703D1016830
:1009F00041F0010101602068016821F4006101609B
:100A0000222084F83D00402084F83E000026266421
:100A1000C4F82480A4F82A90608D20855D48E062A7
:100A2000CDE9007553465A462046049900F018FC5B
:100A300000287CD1208DD0B1012821D00228206847
:100A400024D0416980690090208D032869D801284D
:100A50002BD0514902283B464FF00002009559D057
:100A60008846204600F06FFC002860D13CE02068FA
:100A7000416981690091016841F40071016077E08A
:100A80002068016821F480610160F0E7016821F4C9
:100A9000806101602068016841F4006101602068A4
:100AA00041698069009063E06FE02A46394620463C
:100AB00000F0C8FC98BB20680069616A08704EE0CD
:100AC0002068016841F40071016020680069616A72
:100AD0000870606A401C6062218D491E2185618D0D
:100AE000491E6185216838E02068016821F4806131
:100AF000016020680069616A0870606A401C606279
:100B0000208D401E2085608D401E60853B46002262
:100B100041460095204600F016FC00B9D0E706E0FB
:100B2000FFE72A463946204600F08CFC18B1012028
:100B300007B0BDE8F08F20680069616A0870606ADC
:100B4000401C6062218D491E2185618D491E618591
:100B500021684A69D24352070AD409690170606A60
:100B6000401C6062208D401E2085608D401E608587
:100B7000208D00287FF468AF202084F83D0084F8A1
:100B80003E6084F83C600020D2E70220D0E70000FD
:100B9000020010000000FFFF04000100F0B587B064
:100BA000044614216846FFF74BFB1A492068884227
:100BB0002DD11948016841F004010160016801F07C
:100BC00004010591016841F00101016000681224EF
:100BD00000F0010005904FF4007001250326042762
:100BE0008DE8F10069460D48FFF7A6FC28028DE864
:100BF000F10069460A48FFF79FFC0748103001687A
:100C000041F400010160006800F40000059007B0A5
:100C1000F0BD0000005C0040303802400008024097
:100C200000000240024881680278114481607047E8
:100C30000C0000200B4810B5016841F40071016000
:100C4000016841F480610160016841F480710160D4
:100C5000032000F061F8002000F006F800F024F80E
:100C6000002010BD003C024070B50D4D04464FF40D
:100C70007A712878B1FBF0F00A490968B1FBF0F00D
:100C800000F0C2FA48B9102C07D200222146501EAB
:100C900000F022F800206C6070BD012070BD0000E3
:100CA0000C000020180000200A4808B5016841F433
:100CB00080410160006800F4804000900548001FFA
:100CC000016841F080510160006800F080500090A0
:100CD00008BD000044380240F0B40E4B1B680C46BF
:100CE000C3F30223C3F10705042D00D90425191D00
:100CF000072901D2002300E0DB1E012606FA05F1D8
:100D0000491E214099409E40761E16403143F0BC5A
:100D100000F0A3BC0CED00E0064900F007020868F3
:100D20004FF6FF03184040EA0220034A10430860D0
:100D3000704700000CED00E00000FA052DE9F047D7
:100D40000E46050065D0DFF81481D8F80000F7B230
:100D500000F00F00B04207D288F80070D8F8000009
:100D600000F00F00B04254D128683D4C810712D5E5
:100D7000400703D5206840F4E05020602878000741
:100D800003D5206840F4604020602068A96820F006
:100D9000F000084320602878C0072DD030496868EB
:100DA0000839012812D0022813D0032811D009686D
:100DB000890700292DDA216821F003010143216010
:100DC000FFF784FC814641F2883A0EE00968890306
:100DD000EFE709688901ECE7FFF778FCA0EB090170
:100DE000514502D90320BDE8F0872068696800F00A
:100DF0000C00B0EB810FEFD1D8F80010404601F0A5
:100E00000F01B14207D90770006800F00F00B0422F
:100E100001D00120E7E72878400705D52068E96878
:100E200020F4E050084320602878000706D52068A9
:100E3000296920F4604040EAC100206000F026F8F3
:100E40002168084AC1F30311515CC8400649086093
:100E50000020FFF709FF0020C5E70000003C02402A
:100E600008380240441700081800002004480549CB
:100E700000680968044AC1F38221515CC840704788
:100E8000180000200838024054170008154810B513
:100E9000006810F00C02144813D04110042A0FD03F
:100EA000082A0ED10F4C241F2268236802F03F024B
:100EB0005B0207D52068C0F38810A0FB010106E0A3
:100EC000084610BD2168C1F38811A1FB0001002371
:100ED000FFF77EF92168C1F30141491C4900B0FBCD
:100EE000F1F010BD083802400024F4002DE9F84F5D
:100EF000050076D02878DFF8F8B2BE4CC00749D09C
:100F0000DBF800105846C1F38101012908D00068C0
:100F1000C0F3810002280AD1201D0068400206D5D6
:100F20002068800336D568680028E2D032E068681F
:100F3000B0F5803F10D0B0F5A02F206810D020F47D
:100F400080302060206820F4802020606868A0B194
:100F5000FFF7BCFB06460CE0206840F48030F4E765
:100F600040F480202060F7E7FFF7B0FB801B642887
:100F700073D820688003F7D50CE0FFF7A7FB06467F
:100F800005E000BFFFF7A2FB801B6428F0D82068B3
:100F90008003F7D42878DFF8608280074FF00009DB
:100FA0003ED5DBF80010584611F00C0F09D0006850
:100FB000C0F3810002280BD18D48001F0068400259
:100FC00006D42068800715D5E868012809D111E00A
:100FD000E868B8B10120C8F80000FFF777FB0646C3
:100FE00005E002E1FFF772FB801B0228C0D82068F1
:100FF0008007F7D52068296920F0F80040EAC10091
:1010000020600DE0C8F80090FFF760FB064604E0A2
:10101000FFF75CFB801B02281FD820688007F7D4ED
:101020002878000722D5724E744869696C3671B110
:1010300001210160FFF74AFB074604E0FFF746FB8A
:10104000C01B022809D830688007F7D50EE0C0F829
:101050000090FFF73BFB074605E083E0FFF736FB18
:10106000C01B02287ED830688007F7D42878400754
:1010700068D5DFF87CA100270AF1380ADAF8000009
:10108000C0000BD4DAF8001041F08051CAF800100B
:10109000DAF80000012700F080500090584E3068C8
:1010A000C00510D4306840F480703060FFF70EFB4C
:1010B000009005E0FFF70AFB0099401A022851D87A
:1010C0003068C005F6D54A4EA868683601280FD0AA
:1010D0000528306810D020F001003060306820F022
:1010E00004003060A868B8B1FFF7F0FA00900FE094
:1010F000306840F00100F4E740F004003060F7E7AA
:10110000FFF7E4FA0099411A41F28830814264D82D
:1011100030688007F4D50EE0FFF7D8FA009007E0BA
:10112000FFF7D4FA0099411A41F28830814254D82D
:1011300030688007F4D42FB1DAF8001021F0805124
:10114000CAF80010A869C0B3DBF80010C1F3810130
:1011500002294AD00228484607D0C8F86000FFF7A5
:10116000B5FA00E039E005463AE04746C8F86000C5
:10117000FFF7ACFA064604E0FFF7A8FA801B022846
:101180002BD820688001F7D4D5E907010843A96A64
:101190001C4A490802EB01416A6A41EA821108438C
:1011A00095F82C1040EA01611148001F01600120F0
:1011B0003866FFF78BFA054605E014E0FFF786FA7C
:1011C000401B022809D820688001F7D50BE000BF3A
:1011D000FFF77CFA401B022802D90320BDE8F88FF4
:1011E00020688001F4D40020F8E70120F6E7000031
:1011F000083802400038024000004742800E474253
:10120000007000400000FFFF10B5401EB0F1807F6D
:1012100001D3012010BD4FF0E02460610F21601761
:1012200000F01BFA0020A06107202061002010BD03
:10123000FEE701684A69D24352050FD46FF4806219
:101240004A61002140F8301F2022427381730269F5
:1012500042F00402026101730120704700207047D0
:101260002DE9F84F0446006889460B9D01689846B1
:10127000174641F4806101602068016841F4807183
:10128000016000954FF0011A0022514620460A9B4A
:1012900000F059F8002853D1216809F0FE000861D8
:1012A0000AF1010B2B46594620460A9A00F07FF8B6
:1012B000F0BB20684169806900902A4620460A995F
:1012C00000F0F3F840B1206C042839D1206801689F
:1012D00041F40071016033E0FEB2B8F1010F09D0B2
:1012E0002168380A08612A4620460A9900F0DDF88C
:1012F0000028E8D1206806612A4620460A9900F0B5
:10130000D4F80028DFD12068016841F480710160C1
:1013100000950022514620460A9B00F014F838B987
:10132000216809F0FF0040F0010008612B4600E051
:1013300006E0594620460A9A00F039F8002800D005
:101340000120BDE8F88F2DE9F0471E4690460D4676
:101350000446C1F30747DDF8209008E0701C06D072
:10136000FFF7B4F9A0EB0900B0420FD876B12068BE
:10137000012F18D0806925EA00000004000C14D069
:1013800000214145EAD00020BDE8F087002044F864
:10139000300F20216173A073216941F02001216188
:1013A00020730120F0E74069E5E70121E9E72DE935
:1013B000F0479A4691460E46044600254FF0200815
:1013C000C1F3074725E020684069C043400514D4B5
:1013D0002068016841F40071016021686FF4806049
:1013E0004861256384F83D8084F83E50206C40F0CD
:1013F0000400206484F83C501FE0B9F1FF3F08D09E
:10140000FFF764F9A0EB0A0149450CD8B9F1000FC8
:1014100009D02068012F13D0806926EA000000045B
:10142000000C0BD0CFE744F8305F84F80D80A57333
:10143000206940F02000206125730120BDE8F0877D
:101440004069EAE72DE9F041002590460E46044642
:10145000202717E04069C043C0060CD454F8301B65
:101460006FF01000486144F810596777A577206A3B
:101470002062257717E0FFF729F9A0EB0800B042BA
:1014800008D83EB120684169C9434906E2D400202A
:10149000BDE8F08144F8305F6773A573206940F0C0
:1014A0002000206125730120F2E770B516460D4635
:1014B00004460DE02046FFF7BCFE08B1012070BDD8
:1014C000681C05D0FFF702F9801BA84207D835B188
:1014D00020684069C0430006ECD4002070BD0020A5
:1014E00044F8300F20216173A073216941F020017D
:1014F00021612073E2E7000070B586B014216846D0
:10150000FEF79EFE1A480024016841F08001016048
:10151000016801F080010591016841F00801016056
:10152000016801F008010591016841F004010160C2
:10153000016801F004010591016841F001010160B9
:1015400000680C4E00F001004FF440550590002259
:1015500029463046FFF7B4F801200095CDE9010493
:10156000694630460394FEF7E7FF06B070BD000001
:1015700030380240000C0240FEE770477047704769
:10158000FFF750BB30B593B030216846FEF758FEE8
:1015900014210CA8FEF754FE18480025016841F0FC
:1015A00080510160006800F080501190144801687B
:1015B00041F4404101600068022400F44040119071
:1015C00001200090000401908001CDE9064008AAA6
:1015D0000420642182E813000B906846FFF786FC24
:1015E0000CA90F2081E83100E002CDE90F050321AD
:1015F0000CA8FFF7A3FB13B030BD00004038024039
:10160000007000401048016841F4700101600F480B
:10161000016841F0010101600C4A002108321160AB
:1016200002680B4B1A400260031D0A4A1A600268E6
:1016300022F48022026005480C30016002495806FD
:10164000803908607047000088ED00E000380240F3
:10165000FFFFF6FE10300024FEE70907090E002800
:1016600004DB00F1E02080F80014704700F00F0068
:1016700000F1E02080F8141D704702E008C8121F36
:1016800008C1002AFAD170477047002001E001C16B
:10169000121F002AFBD170472DED028B84B0FFF79B
:1016A000C9FAFFF76FFFFFF727FF21481F49002501
:1016B00001602049C0E901154FF48041C0E90351A0
:1016C00045618561C5610562FFF706F81A4C257012
:1016D0006423022221781648FFF7B8F828B1207851
:1016E000401CC0B22070C828F2D3134D64260227D4
:1016F0009FED128BED1C4FF47A78CDE900570296DE
:10170000607801234100A2780948FFF74BF9288847
:1017100040BAFEF70FFE53EC182BFEF79CFDFEF7C8
:1017200016FEA0604046FEF7F5FEE6E7005C0040CE
:101730001C000020A086010000000020333333335A
:101740003333F33F000000000000000001020304F7
:101750000607080900000000010203047C170008C6
:10176000000000201C0000007A16000898170008EE
:101770001C000020540400008A16000800231000FA
:101780000000000000000000010000001000000048
:08179000000000000024F40039
:040000050800019955
:00000001FF
