:020000040800F2
:1000000060040020AD010008310F00082D0F00082A
:100010002F0F0008B90200081110000800000000AE
:10002000000000000000000000000000350F000884
:10003000BB02000800000000330F0008370F000863
:10004000C7010008C7010008C7010008C701000870
:10005000C7010008C7010008C7010008C701000860
:10006000C7010008C7010008C7010008C701000850
:10007000C7010008C7010008C7010008C701000840
:10008000C7010008C7010008C70100080000000000
:10009000000000000000000000000000C701000890
:1000A000C7010008C7010008C7010008C701000810
:1000B000C7010008C7010008C7010008C701000800
:1000C000C7010008C7010008C7010008C7010008F0
:1000D000C7010008C7010008C701000800000000B0
:1000E000C7010008C7010008C701000800000000A0
:1000F000000000000000000000000000C701000830
:1001000000000000C7010008C7010008C70100087F
:1001100000000000000000000000000000000000DF
:10012000C7010008C7010008C7010008C70100088F
:10013000C7010008000000000000000000000000EF
:10014000000000000000000000000000C7010008DF
:10015000C7010008C7010008C7010008C70100085F
:10016000C7010008C70100080000000000000000EF
:10017000000000000000000000000000000000007F
:1001800000000000C701000800000000000000009F
:10019000C7010008C7010008DFF80CD000F07AF8AA
:1001A00000480047511000086004002006488047BE
:1001B00006480047FEE7FEE7FEE7FEE7FEE7FEE74C
:1001C000FEE7FEE7FEE7FEE7BD0F00089901000825
:1001D0002DE9F05F0546002092469B46884606467C
:1001E000814640241BE0284641464746224600F00F
:1001F00041F853465A46C01A914110D31146184649
:10020000224600F028F82D1A67EB01084F462246D7
:100210000120002100F01FF817EB00094E41201EBD
:10022000A4F10104DFDC484631462A464346BDE8D6
:10023000F09FD2B201E000F8012B491EFBD27047BB
:100240000022F6E710B513460A4604461946FFF7A2
:10025000F0FF204610BD202A04DB203A00FA02F10C
:10026000002070479140C2F1200320FA03F31943A4
:1002700090407047202A04DB203A21FA02F0002146
:10028000704721FA02F3D040C2F1200291400843A6
:1002900019467047064C074D06E0E06840F0010340
:1002A00094E8070098471034AC42F6D3FFF778FF84
:1002B000B8100008D8100008FEE770470C490A88FB
:1002C0000C49098860B1012810D14EF6EE6009B1E1
:1002D0001AB107E0824209D006E0814204D005E06D
:1002E00022B109B1AB207047012070470020704750
:1002F0000080000800C0000810B586B000200590FE
:10030000009002200121124CCDE902010490204608
:1003100000F038F928B905A9684600F06BFA002802
:1003200014D1002213462146012000F0AFFA002824
:100330000CD103200290074800F024F928B905A940
:10034000684600F057FA002800D1002006B010BD22
:100350000080000800C000082DE9F04F87B05D4F15
:10036000002405943988661EDFF86CA1BAF80000F5
:1003700002254FF00108CDE90258584A584B009425
:100380004FF003094FF6FF7C049500296BD0A1F6CE
:10039000EE61B1F5604122D001F6EF61B1F5005F89
:1003A0001AD140B1A0F56E41EE3915D1384600F0B2
:1003B000E9F838B10CE038465CE005A9684600F081
:1003C00019FA4AE005A9684600F014FA002847D156
:1003D0000022134651463DE0FFF78EFF3DE040B15D
:1003E0006045F9D15046CDF8089000F0CBF840B305
:1003F0002DE09346FA883BF81400824200D126B2E1
:10040000B4420CD0364900F06DF8012807D03449C9
:100410003BF81400098800F089F8002820D1641CFA
:10042000A4B2032CE6D3002213463946012000F083
:100430002DFA002814D1CDF80890CDE90385504657
:1004400018E005A9684600F0D5F9002808D1002277
:1004500013463946012000F019FA002800D1002087
:1004600007B0BDE8F08F0028B6D0604507D15046F0
:10047000CDF8089000F086F800289ED0EFE791466E
:100480004FEA030BBAF8061039F81420914200D154
:1004900026B2B4420DD01249104600F023F80128CC
:1004A00007D039F81400BBF8001000F03FF800281E
:1004B000D6D1641CA4B2032CE4D3002213465146C7
:1004C000012000F0E3F90028CAD1CDE902580495D3
:1004D00071E700000080000800C000080000002054
:1004E000060000202DE9F04106460D4601240D4F7F
:1004F0000020FFF7E3FEAB2812D00B4A07EB803158
:1005000002EB8032891C08E01088B04204D132F836
:10051000020C2880002402E0121F8A42F4D82046F0
:10052000BDE8F08100800008FEBF000870B50646F7
:100530000D46124C0120FFF7C1FEAB280CD010492C
:1005400004EB803401EB803003E02168491C04D0C7
:10055000241D8442F9D3802070BD2A460023214601
:10056000012000F093F90028F6D1A11C3246BDE825
:1005700070400023012000F089B9000000800008CD
:10058000FFBF000810B501214FF6FF74054B05E0D1
:100590000288A24201D0002102E0001D9842F7D952
:1005A000084610BDFFBF0008002229B101291AD05A
:1005B00002291BD04FF440720E490B6823F440739C
:1005C0000B600B6813430B600A6822F0F8020A60A4
:1005D0000A68022303EBC00002430A60086840F483
:1005E0008030086070474FF48072E5E74FF4007286
:1005F000E2E70000103C02401348016889050FD56E
:10060000016821F400710160016841F4006101603A
:10061000016821F400610160016841F4007101602A
:10062000016849050FD5016821F480610160016806
:1006300041F480510160016821F48051016001683A
:1006400041F4806101607047003C024008490A683B
:1006500022F440720A600A6842F004020A600A68E2
:100660004FF4803343EA002002430A6070470000E1
:10067000103C0240064A136823F440731360136869
:100680001360136843F001031360017070470000AA
:10069000103C0240084910B50C6824F440740C600A
:1006A0000C6844F440740C600C6844F001040C6065
:1006B0000260436010BD0000103C0240074A13680E
:1006C00023F440731360136843F48073136013685A
:1006D00043F001031360018070470000103C0240AA
:1006E000074A136823F440731360136843F40073DC
:1006F0001360136843F0010313600160704700004A
:10070000103C02401C490868C2061C4805D5C26955
:1007100042F01002C26110220A600A68920605D5F2
:10072000C26942F00802C26120220A600A685206C9
:1007300005D5C26942F00402C26140220A600A681B
:10074000120605D5C26942F00202C26180220A6027
:100750000A68D20506D5C26942F00102C2614FF4AF
:1007600080720A600A68920705D5C26942F02002C9
:10077000C2610220086070470C3C0240400000202B
:1007800070B5114904460020C86100F0D3F8064650
:100790000E4D09E0601C07D024B100F0CBF8801B9F
:1007A000A04201D9032070BD2868C003F2D4286894
:1007B000C00701D001202860286810F4F970F2D039
:1007C000FFF7A0FF012070BD400000200C3C02405C
:1007D00070B5044600F0AEF80546601C02D004482F
:1007E0000078044400F0A6F8401BA042FAD370BD84
:1007F000080000202DE9F047044622480F46017EFC
:1008000001290AD00121804601764CF25039484630
:10081000FFF7B6FF020003D02FE00220BDE8F0870B
:100820004FF0FF3038602068174D012801D0A668CE
:100830001CE0207C6168FFF709FF4846FFF7A0FF36
:100840000246286820F00400286014E0217C30462D
:10085000FFF7AAFE4846FFF793FF0200286820F042
:10086000FA00286001D03E6005E0761CD4E9021051
:100870000844B042EAD8FFF7BFFE002188F81810FC
:100880001046CBE740000020103C02402DE9F04725
:100890001B4E05461446307E1F468946012808D067
:1008A000012030764CF250384046FFF769FF18B10E
:1008B00014E00220BDE8F0879DB1012D16D0022D75
:1008C00019D022463B464846FFF7E4FE4046FFF774
:1008D00057FF0C490A6822F001020A6000213176B4
:1008E000E8E7E1B24846FFF7C5FEEFE7A1B24846A8
:1008F000FFF7E4FEEAE721464846FFF7F1FEE5E7A9
:1009000040000020103C0240074900200A68002AED
:1009100009DA054A054B0C3A1360054B1360096868
:10092000002900DA01207047103C0240230167458E
:10093000AB89EFCD014880687047000008000020B7
:1009400002488168027811448160704708000020E5
:100950000B4810B5016841F400710160016841F471
:1009600080610160016841F480710160032000F042
:1009700061F8002000F006F800F024F8002010BD17
:10098000003C024070B50D4D04464FF47A71287852
:10099000B1FBF0F00A490968B1FBF0F000F0B2FADF
:1009A00048B9102C07D200222146501E00F022F830
:1009B00000206C6070BD012070BD000008000020A8
:1009C000140000200A4808B5016841F48041016024
:1009D000006800F4804000900548001F016841F065
:1009E00080510160006800F08050009008BD000058
:1009F00044380240F0B40E4B1B680C46C3F302238C
:100A0000C3F10705042D00D90425191D072901D2BA
:100A1000002300E0DB1E012606FA05F1491E2140F5
:100A200099409E40761E16403143F0BC00F0F1BA6A
:100A30000CED00E0064900F0070208684FF6FF03DE
:100A4000184040EA0220034A104308607047000043
:100A50000CED00E00000FA052DE9F0470E46050018
:100A600065D0DFF81481D8F80000F7B200F00F006D
:100A7000B04207D288F80070D8F8000000F00F00EC
:100A8000B04254D128683D4C810712D5400703D5A8
:100A9000206840F4E05020602878000703D52068E3
:100AA00040F4604020602068A96820F0F00008430E
:100AB00020602878C0072DD030496868083901289F
:100AC00012D0022813D0032811D009688907002901
:100AD0002DDA216821F0030101432160FFF72AFF8D
:100AE000814641F2883A0EE009688903EFE7096818
:100AF0008901ECE7FFF71EFFA0EB0901514502D980
:100B00000320BDE8F0872068696800F00C00B0EBB6
:100B1000810FEFD1D8F80010404601F00F01B1422B
:100B200007D90770006800F00F00B04201D0012023
:100B3000E7E72878400705D52068E96820F4E05009
:100B4000084320602878000706D52068296920F42A
:100B5000604040EAC100206000F016F82168084AB1
:100B6000C1F30311515CC840064908600020FFF73B
:100B700009FF0020C5E70000003C024008380240A1
:100B8000A810000814000020154810B5006810F0E7
:100B90000C02144813D04110042A0FD0082A0ED199
:100BA0000F4C241F2268236802F03F025B0207D526
:100BB0002068C0F38810A0FB010106E0084610BDC4
:100BC0002168C1F38811A1FB00010023FFF700FB9E
:100BD0002168C1F30141491C4900B0FBF1F010BD8F
:100BE000083802400024F4002DE9F84F050076D0C3
:100BF0002878DFF8F8B2BE4CC00749D0DBF8001007
:100C00005846C1F38101012908D00068C0F3810072
:100C100002280AD1201D0068400206D52068800302
:100C200036D568680028E2D032E06868B0F5803FC9
:100C300010D0B0F5A02F206810D020F480302060B4
:100C4000206820F4802020606868A0B1FFF772FE61
:100C500006460CE0206840F48030F4E740F4802041
:100C60002060F7E7FFF766FE801B642873D82068D2
:100C70008003F7D50CE0FFF75DFE064605E000BFF8
:100C8000FFF758FE801B6428F0D820688003F7D453
:100C90002878DFF8608280074FF000093ED5DBF846
:100CA0000010584611F00C0F09D00068C0F3810005
:100CB00002280BD18D48001F0068400206D420682E
:100CC000800715D5E868012809D111E0E868B8B1B6
:100CD0000120C8F80000FFF72DFE064605E002E1FE
:100CE000FFF728FE801B0228C0D820688007F7D5B0
:100CF0002068296920F0F80040EAC10020600DE07A
:100D0000C8F80090FFF716FE064604E0FFF712FE53
:100D1000801B02281FD820688007F7D42878000796
:100D200022D5724E744869696C3671B10121016037
:100D3000FFF700FE074604E0FFF7FCFDC01B02289A
:100D400009D830688007F7D50EE0C0F80090FFF7AB
:100D5000F1FD074605E083E0FFF7ECFDC01B02282C
:100D60007ED830688007F7D42878400768D5DFF848
:100D70007CA100270AF1380ADAF80000C0000BD481
:100D8000DAF8001041F08051CAF80010DAF80000DB
:100D9000012700F080500090584E3068C00510D4F4
:100DA000306840F480703060FFF7C4FD009005E0CB
:100DB000FFF7C0FD0099401A022851D83068C005DD
:100DC000F6D54A4EA868683601280FD00528306845
:100DD00010D020F001003060306820F00400306056
:100DE000A868B8B1FFF7A6FD00900FE0306840F0AA
:100DF0000100F4E740F004003060F7E7FFF79AFDE8
:100E00000099411A41F28830814264D830688007E5
:100E1000F4D50EE0FFF78EFD009007E0FFF78AFDA6
:100E20000099411A41F28830814254D830688007D5
:100E3000F4D42FB1DAF8001021F08051CAF8001074
:100E4000A869C0B3DBF80010C1F3810102294AD0C0
:100E50000228484607D0C8F86000FFF76BFD00E0A5
:100E600039E005463AE04746C8F86000FFF762FD02
:100E7000064604E0FFF75EFD801B02282BD82068A1
:100E80008001F7D4D5E907010843A96A1C4A49083B
:100E900002EB01416A6A41EA8211084395F82C107D
:100EA00040EA01611148001F016001203866FFF728
:100EB00041FD054605E014E0FFF73CFD401B02281C
:100EC00009D820688001F7D50BE000BFFFF732FD9D
:100ED000401B022802D90320BDE8F88F206880015A
:100EE000F4D40020F8E70120F6E7000008380240BB
:100EF0000038024000004742800E47420070004028
:100F00000000FFFF10B5401EB0F1807F01D301202B
:100F100010BD4FF0E02460610F21601700F079F8F8
:100F20000020A06107202061002010BDFEE7FEE741
:100F3000704770477047FFF703BD000030B593B0AE
:100F400030216846FFF77CF914210CA8FFF778F9E7
:100F500018480025016841F080510160006800F0E8
:100F6000805011901448016841F4404101600068CC
:100F7000022400F4404011900120009000040190F0
:100F80008001CDE9064008AA0420642182E813000C
:100F90000B906846FFF728FE0CA90F2081E831006E
:100FA000E002CDE90F0503210CA8FFF755FD13B0B2
:100FB00030BD000040380240007000401048016819
:100FC00041F4700101600F48016841F001010160C6
:100FD0000C4A00210832116002680B4B1A40026073
:100FE000031D0A4A1A60026822F480220260054842
:100FF0000C300160024958068039086070470000D3
:1010000088ED00E000380240FFFFF6FE10300024BB
:10101000FEE70907090E002804DB00F1E02080F854
:101020000014704700F00F0000F1E02080F8141D5C
:10103000704702E008C8121F08C1002AFAD17047A1
:101040007047002001E001C1121F002AFBD1704748
:1010500008B5FFF77DFCFFF771FF1048016841F00C
:1010600080010160006800F080000090FFF74CFCF8
:10107000FFF772F90A4D0B4E00244FF47A77288857
:10108000411C298006EB4401FFF72CFA3846FFF794
:101090009FFB641C142CF2DBFEE70000303802409A
:1010A00000000020180000200000000000000000E8
:1010B0000102030406070809D810000800000020F8
:1010C0001800000032100008F0100008180000207E
:1010D0004804000042100008555566667777000006
:1010E0000100000010000000000000000024F400D7
:040000050800019955
:00000001FF
