:020000040800F2
:1000000070040020AD0100080F100008370F000831
:100010000D100008E502000869110008000000004A
:100020000000000000000000000000007710000841
:10003000E702000800000000111000087910000815
:10004000C7010008C7010008C7010008C701000870
:10005000C7010008C7010008C7010008C701000860
:10006000C7010008C7010008C7010008C701000850
:10007000C7010008C7010008C7010008C701000840
:10008000C7010008C7010008C70100080000000000
:10009000000000000000000000000000C701000890
:1000A000C7010008C7010008C7010008C701000810
:1000B000C7010008C7010008C7010008C701000800
:1000C000C7010008C7010008C7010008C7010008F0
:1000D000C7010008C7010008C701000800000000B0
:1000E000C7010008C7010008C701000800000000A0
:1000F000000000000000000000000000C701000830
:1001000000000000C7010008C7010008C70100087F
:1001100000000000000000000000000000000000DF
:10012000C7010008C7010008C7010008C70100088F
:10013000C7010008000000000000000000000000EF
:10014000000000000000000000000000C7010008DF
:10015000C7010008C7010008C7010008C70100085F
:10016000C7010008C70100080000000000000000EF
:10017000000000000000000000000000000000007F
:1001800000000000C701000800000000000000009F
:10019000C7010008C7010008DFF80CD000F090F894
:1001A0000048004781150008700400200648804779
:1001B00006480047FEE7FEE7FEE7FEE7FEE7FEE74C
:1001C000FEE7FEE7FEE7FEE71511000899010008CB
:1001D0002DE9F05F0546002092469B46884606467C
:1001E000814640241BE0284641464746224600F00F
:1001F00057F853465A46C01A914110D31146184633
:10020000224600F03EF82D1A67EB01084F462246C1
:100210000120002100F035F817EB00094E41201EA7
:10022000A4F10104DFDC484631462A464346BDE8D6
:10023000F09FD2B201E000F8012B491EFBD27047BB
:100240000022F6E710B513460A4604461946FFF7A2
:10025000F0FF204610BD30B50B460146002020229D
:10026000012409E021FA02F59D4205D303FA02F5C3
:10027000491B04FA02F52844151EA2F10102F1DC23
:1002800030BD202A04DB203A00FA02F1002070473A
:100290009140C2F1200320FA03F3194390407047C4
:1002A000202A04DB203A21FA02F00021704721FACB
:1002B00002F3D040C2F12002914008431946704732
:1002C000064C074D06E0E06840F0010394E80700A3
:1002D00098471034AC42F6D3FFF762FF3C16000893
:1002E0005C160008FEE7704770B5044600F0D8F8C9
:1002F0000546601C02D004480078044400F0D0F8A1
:10030000401BA042FAD370BD080000202DE9F84F31
:10031000DFF860B100224FF001084FF0030A4FF000
:100320000F090BF1040E00BF0B6808FA02F423401A
:10033000A3426ED14D68022D01D0122D0ED1D508E9
:1003400000EB850CDCF820505607F70E09FA07F68B
:10035000B5430E69BE402E43CCF8206006685500B8
:100360000F790AFA05FC07F0030726EA0C06AF40EE
:10037000374307604E68012E05D0022E03D0112EA0
:1003800001D0122E0ED18668CF6826EA0C06AF4047
:10039000374387604668A6430C79C4F30014944041
:1003A00034434460C6688C6826EA0C06AC4034438B
:1003B000C4604C68E40056D52F4C256845F4804550
:1003C0002560246822F0030504F4804400942B4C3B
:1003D0002E19D6F8084895072F0F09FA07F5AC43F0
:1003E000274DA84201D1002515E0264DA84201D194
:1003F000012510E0244DA84201D102250BE0234D38
:10040000A84201D1032506E0214DA84202D10425CE
:1004100001E028E00725BD402543C6F80858DBF871
:1004200000405D464E689C43F60300D51C432C609B
:10043000DEF8004075464E689C43B60300D51C4369
:100440002C600C4D08352C684E689C43F60200D594
:100450001C432C60074D0C352C684E689C43B6023B
:1004600000D51C432C60521C102AFFF45DAFBDE880
:10047000F88F0000003C0140443802400030014049
:10048000000002400004024000080240000C02404C
:10049000001002400AB1816170470904FBE70000C7
:1004A0000148806870470000080000200248816809
:1004B0000278114481607047080000200B4810B595
:1004C000016841F400710160016841F480610160DC
:1004D000016841F480710160032000F061F80020A0
:1004E00000F006F800F024F8002010BD003C0240A7
:1004F00070B50D4D04464FF47A712878B1FBF0F0D9
:100500000A490968B1FBF0F000F001FD48B9102C70
:1005100007D200222146501E00F022F800206C6015
:1005200070BD012070BD00000800002014000020F4
:100530000A4808B5016841F480410160006800F490
:10054000804000900548001F016841F08051016023
:10055000006800F08050009008BD00004438024060
:10056000F0B40E4B1B680C46C3F30223C3F107051E
:10057000042D00D90425191D072901D2002300E00C
:10058000DB1E012606FA05F1491E214099409E40D6
:10059000761E16403143F0BC00F020BE0CED00E0AA
:1005A000064900F0070208684FF6FF03184040EACA
:1005B0000220034A10430860704700000CED00E081
:1005C0000000FA052DE9F843044600684FF00109E0
:1005D000C1074FF0000601D1400729D5DFF820817F
:1005E000C8F86860FFF75CFF0746464D05E000BFAE
:1005F000FFF756FFC01B022859D828680001F7D41E
:10060000A068217B800140EA0170616808433D4990
:1006100084310860C8F86890FFF742FF074604E09D
:10062000FFF73EFFC01B022841D828680001F7D51C
:100630002078800752D533484030016841F080511E
:1006400001600068304D00F080500090286840F450
:1006500080702860FFF724FF074604E0FFF720FFC3
:10066000C01B022823D82868C005F7D5254D703552
:10067000286810F4407020D0218A01F44071814232
:100680001BD02868214920F44070C1F800900E600A
:1006900028602868C00710D0FFF702FF064641F225
:1006A000883707E0FFF7FCFE801BB84202D9032021
:1006B000BDE8F88328688007F4D521691148C1F3A3
:1006C00001220830032A12D0016821F4F8110160D8
:1006D0002868218AC1F30B010843286020780007AD
:1006E00003D50B49207DC1F8E0010020E0E7026856
:1006F000084B22F4F81219400A430260E8E70000B0
:10070000000047420038024000700040400E47425F
:1007100000104742FFFCFF0F2DE9F0470E46050091
:1007200065D0DFF81481D8F80000F7B200F00F00B0
:10073000B04207D288F80070D8F8000000F00F002F
:10074000B04254D128683D4C810712D5400703D5EB
:10075000206840F4E05020602878000703D5206826
:1007600040F4604020602068A96820F0F000084351
:1007700020602878C0072DD03049686808390128E2
:1007800012D0022813D0032811D009688907002944
:100790002DDA216821F0030101432160FFF780FE7B
:1007A000814641F2883A0EE009688903EFE709685B
:1007B0008901ECE7FFF774FEA0EB0901514502D96E
:1007C0000320BDE8F0872068696800F00C00B0EBFA
:1007D000810FEFD1D8F80010404601F00F01B1426F
:1007E00007D90770006800F00F00B04201D0012067
:1007F000E7E72878400705D52068E96820F4E0504D
:10080000084320602878000706D52068296920F46D
:10081000604040EAC100206000F016F82168084AF4
:10082000C1F30311515CC840064908600020FFF77E
:100830005FFE0020C5E70000003C0240083802408F
:100840002C16000814000020154810B5006810F0A0
:100850000C02144813D04110042A0FD0082A0ED1DC
:100860000F4C241F2268236802F03F025B0207D569
:100870002068C0F38810A0FB010106E0084610BD07
:100880002168C1F38811A1FB00010023FFF7A0FC40
:100890002168C1F30141491C4900B0FBF1F010BDD2
:1008A000083802400024F4002DE9F84F050076D006
:1008B0002878DFF8F8B2BE4CC00749D0DBF800104A
:1008C0005846C1F38101012908D00068C0F38100B6
:1008D00002280AD1201D0068400206D52068800346
:1008E00036D568680028E2D032E06868B0F5803F0D
:1008F00010D0B0F5A02F206810D020F480302060F8
:10090000206820F4802020606868A0B1FFF7C8FD4F
:1009100006460CE0206840F48030F4E740F4802084
:100920002060F7E7FFF7BCFD801B642873D82068C0
:100930008003F7D50CE0FFF7B3FD064605E000BFE6
:10094000FFF7AEFD801B6428F0D820688003F7D441
:100950002878DFF8608280074FF000093ED5DBF889
:100960000010584611F00C0F09D00068C0F3810048
:1009700002280BD18D48001F0068400206D4206871
:10098000800715D5E868012809D111E0E868B8B1F9
:100990000120C8F80000FFF783FD064605E002E1EC
:1009A000FFF77EFD801B0228C0D820688007F7D59E
:1009B0002068296920F0F80040EAC10020600DE0BD
:1009C000C8F80090FFF76CFD064604E0FFF768FDED
:1009D000801B02281FD820688007F7D428780007DA
:1009E00022D5724E744869696C3671B1012101607B
:1009F000FFF756FD074604E0FFF752FDC01B022833
:100A000009D830688007F7D50EE0C0F80090FFF7EE
:100A100047FD074605E083E0FFF742FDC01B0228C3
:100A20007ED830688007F7D42878400768D5DFF88B
:100A30007CA100270AF1380ADAF80000C0000BD4C4
:100A4000DAF8001041F08051CAF80010DAF800001E
:100A5000012700F080500090584E3068C00510D437
:100A6000306840F480703060FFF71AFD009005E0B8
:100A7000FFF716FD0099401A022851D83068C005CA
:100A8000F6D54A4EA868683601280FD00528306888
:100A900010D020F001003060306820F00400306099
:100AA000A868B8B1FFF7FCFC00900FE0306840F098
:100AB0000100F4E740F004003060F7E7FFF7F0FCD6
:100AC0000099411A41F28830814264D83068800729
:100AD000F4D50EE0FFF7E4FC009007E0FFF7E0FC40
:100AE0000099411A41F28830814254D83068800719
:100AF000F4D42FB1DAF8001021F08051CAF80010B8
:100B0000A869C0B3DBF80010C1F3810102294AD003
:100B10000228484607D0C8F86000FFF7C1FC00E093
:100B200039E005463AE04746C8F86000FFF7B8FCF0
:100B3000064604E0FFF7B4FC801B02282BD820688F
:100B40008001F7D4D5E907010843A96A1C4A49087E
:100B500002EB01416A6A41EA8211084395F82C10C0
:100B600040EA01611148001F016001203866FFF76B
:100B700097FC054605E014E0FFF792FC401B0228B5
:100B800009D820688001F7D50BE000BFFFF788FC8B
:100B9000401B022802D90320BDE8F88F206880019D
:100BA000F4D40020F8E70120F6E7000008380240FE
:100BB0000038024000004742800E4742007000406B
:100BC0000000FFFF10B500680B4641680D4801406A
:100BD000080CD870C1F304245C7001F03F049C70D1
:100BE000C1F34231197052B900F013FAD870587835
:100BF00000F00FFA5870987800F00BFA9870002007
:100C000010BD00003FFFFF0010B50B460168896A68
:100C1000596001680969C1F30E01996000680168B3
:100C20000E480140C1F305401870C1F306245C7002
:100C300001F07F049C70402404EA1141D97052B93C
:100C400000F0E7F91870587800F0E3F958709878D8
:100C500000F0DFF99870002010BD00007F7F7F005A
:100C600070B5040002D0607F10B106E0012070BDB5
:100C700000202077204600F049F8022060772168A4
:100C8000CA204862216853204862204600F0D6F905
:100C9000FF25042618BB206881681B4A114081602B
:100CA0002168886862681043D4E904231A4310431A
:100CB00088602168E068086120680169228941EA4A
:100CC000024101612068C16821F08001C160206893
:100CD0008068800607D4204600F0FEF818B120682E
:100CE00045626677C2E72068016C21F480210164C7
:100CF0002068016CA26911430164206845620120EB
:100D00006077002070BD0000BFFF8FFF00680349BF
:100D1000884202D102490120086070470028004043
:100D20003C0E47422DE9F0470446007F0B46012860
:100D30001FD04FF0010984F81C9002206077DAB1CF
:100D40009878D97840EA014558781978000240EA45
:100D5000413005432168CA20486221685320486217
:100D6000204600F06BF90026FF274FF0040860BB17
:100D70001AE00220BDE8F0875878C10603D500F0DC
:100D8000EF000A305870D87800F04CF90204587817
:100D900000F048F942EA0022987800F043F9024353
:100DA000187842EA4035D5E70F480540206845608D
:100DB0002068C16821F08001C160206880688006D9
:100DC0000AD4204600F088F830B12068476284F8E1
:100DD0001D8026770120CDE72068476284F81D90AA
:100DE00026770020C6E700003FFFFF002DE9F0470F
:100DF0000446007F0D46012827D04FF0010A84F8F1
:100E00001CA0022060772068002680684FEA4060BE
:100E1000F2B1002800DBEE70A878297840EA01479B
:100E20006878E978000240EA014007432168CA2057
:100E30004862216853204862204600F0FFF84FF0D6
:100E4000FF084FF00409A0BB16E00220BDE8F087C0
:100E5000002800DBEE70287800F0E4F802046878DF
:100E600000F0E0F842EA0022A87800F0DBF8024344
:100E7000E87842EA0047D9E716480740206807604B
:100E80002068816821F480218160D5E9030108434D
:100E900021688A68104388602068C16821F0800159
:100EA000C1602068806880060BD4204600F014F8EA
:100EB00038B12168C1F8248084F81D90267701207C
:100EC000C4E72168C1F8248084F81DA0267700209B
:100ED000BCE700007F7F7F0070B504460068C168F2
:100EE00021F0A001C160FFF7DBFA05464FF47A76E6
:100EF00007E000BFFFF7D4FA401BB04201D903203E
:100F000070BD2068C0688006F4D5002070BD10B5A3
:100F1000401EB0F1807F01D3012010BD4FF0E024CE
:100F200060610F21601700F059F90020A0610720CF
:100F30002061002010BDFEE730B587B0142168465F
:100F4000FFF77EF911480024016841F0800101603B
:100F5000016801F080010591016841F0080101601C
:100F600000680B4D00F00800059022463F212846FE
:100F7000FFF790FA3F2000900120CDE90104694677
:100F800028460394FFF7C2F907B030BD303802405D
:100F9000000C024010B586B014216846FFF750F9E6
:100FA0001948002417490594C0E900147F21816085
:100FB000F921C0E9031444618461FFF751FE142054
:100FC0008DF800002D208DF801008DF8024003946B
:100FD000002269460C480494FFF708FF02208DF8B0
:100FE000140005208DF815001C208DF81600132024
:100FF0008DF81700002205A90348FFF793FE06B0FD
:1010000010BD00000028004018000020FEE77047D7
:101010007047010901EB810100F00F0000EB410076
:10102000C0B27047002102E00A38C0B2491C0A2849
:10103000FAD2090740EA11607047000070B5044613
:101040000068C168490614D44FF0FF31C160FFF752
:1010500027FA05464FF47A7607E000BFFFF720FA3B
:10106000401BB04201D9032070BD2068C068400613
:10107000F4D5002070BD7047FFF718BA30B599B0AD
:1010800030216846FFF7DCF814210CA8FFF7D8F8E8
:10109000182111A8FFF7D4F81C480025016841F079
:1010A00080510160006800F0805017901848016876
:1010B00041F4404101600068022400F44040179070
:1010C000092000904FF4803001900120CDE9050403
:1010D0008005079008AA0420642182E813000B9081
:1010E0006846FFF7E1FB0CA90F2081E83100E00220
:1010F000CDE90F0503210CA8FFF70EFB2002159088
:10110000119411A8FFF75EFA19B030BD40380240C3
:10111000007000401048016841F4700101600F4800
:10112000016841F0010101600C4A002108321160A0
:1011300002680B4B1A400260031D0A4A1A600268DB
:1011400022F48022026005480C30016002495806F2
:10115000803908607047000088ED00E000380240E8
:10116000FFFFF6FE10300024FEE70000072811D232
:10117000DFE800F0041006080A0C0E0006A0704715
:1011800006A0704706A0704706A0704706A07047EB
:1011900006A0704706A0704753756E005475650031
:1011A00057656400546875004672690053617400A5
:1011B0004D6F6E000FB4084B10B504A902AA039836
:1011C00000F02CF8044602A9002000F003F92046A4
:1011D00010BC5DF814FB0000D51300080907090EC8
:1011E000002804DB00F1E02080F80014704700F0D4
:1011F0000F0000F1E02080F8141D704702E008C8DD
:10120000121F08C1002AFAD170477047002001E080
:1012100001C1121F002AFBD1704700002DE9FF4FCA
:101220008BB09A460F460546002606E025280BD0CF
:1012300052460D9990476D1C761C28780028F5D1F0
:101240000FB03046BDE8F08F0024A046012260496F
:1012500000E0044315F8013F203B02FA03F0084286
:10126000F7D128782E2817D115F8010F44F004047F
:101270002A280ED06FF02F022878A0F1300109291A
:101280000AD808EB880102EB410100EB01086D1C54
:10129000F2E757F8048B6D1C287869283ED006DCED
:1012A0000028CDD063280BD0642804D136E0732801
:1012B00010D075284BD052460D999047761C85E08A
:1012C00017F8040B8DF8000000208DF80100E946A6
:1012D000012003E057F8049B4FF0FF3061074FF007
:1012E000000401D40AE0641C44450DDA8442FADBB0
:1012F00019F804100029F6D106E0641C8442FCDBD6
:1013000019F804100029F8D1264404E019F8010B5B
:1013100052460D999047641EF8D257E001CF4FF026
:101320000A0B002802DA40422D2102E0210504D5F3
:101330002B218DF82410012103E0E10705D02021A5
:10134000F7E70DF1200908910CE00021F9E701CF42
:101350004FF00A0BF9E75946FEF77DFF01F1300225
:1013600009F8012D0028F6D1ADEB090000F1200BA2
:10137000600701D44FF00108D84502DDA8EB0B004F
:1013800000E000208046002406E009A85246005DE7
:101390000D999047641C761C08988442F5DB04E0A4
:1013A000302052460D999047761CB8F10001A8F103
:1013B0000108F5DC05E019F8010B52460D9990473C
:1013C000761CBBF10001ABF1010BF4DC6D1C34E7C2
:1013D000092801000A68531C0B6010707047012136
:1013E000002000F05DB8000010B53220FEF77CFF51
:1013F0001A4C002204212046FFF74CF80122082154
:101400002046FFF747F8002210212046FFF742F858
:10141000002220212046FFF73DF80022012120462E
:10142000FFF738F8012202212046FFF733F80022A7
:1014300002212046FFF72EF82821002000F030F886
:101440000C21002000F02CF80621002000F028F8E4
:101450000121BDE81040002000F022B8000C02403D
:1014600010B5144630B1012806D0022806D0032852
:1014700011D105E0803104E0C03102E0903100E09C
:10148000D031C9B2002000F00BF804E0C1B2012055
:1014900000F006F8641C20780028F7D110BD000089
:1014A00070B506460C460220FEF71EFF334D0EB106
:1014B000012200E0002201212846FEF7EBFF200672
:1014C00001D5012200E0002220212846FEF7E2FF9C
:1014D000600601D5012200E0002210212846FEF717
:1014E000D9FFA00601D5012200E0002208212846EC
:1014F000FEF7D0FFE00601D5012200E00022042122
:101500002846FEF7C7FF012202212846FEF7C2FF48
:10151000002202212846FEF7BDFF200701D5012247
:1015200000E0002220212846FEF7B4FF600701D525
:10153000012200E0002210212846FEF7ABFFA007A1
:1015400001D5012200E0002208212846FEF7A2FF73
:10155000E00701D0012200E0002204212846FEF726
:1015600099FF012202212846FEF794FF2846BDE894
:10157000704000220221FEF78DBF0000000C0240E7
:101580001CB5FEF79BFFFFF779FDFFF7D5FCFFF7D2
:1015900001FDFFF729FF1E4C1C4D26464FF47A77BC
:1015A0001A490022A1F12000FFF72EFB1748002264
:1015B00017492038FFF706FBA878009013486B788E
:1015C0002A7814A11430FFF7F5FD2078FFF7CEFD3F
:1015D00070600246E1786078CDE900010B48A3789D
:1015E0000FA12430FFF7E6FD084A00211432084617
:1015F000FFF736FF054A002124320120FFF730FFB4
:101600003846FEF771FEFFF7EAFEC9E73800002012
:101610000000002025643A25643A2564000000009B
:1016200025732F25642F25642F25640000000000FA
:101630000000000001020304060708095C16000808
:101640000000002018000000FC11000874160008BB
:1016500018000020580400000C12000800000000D0
:101660000000000001000000100000000000000069
:041670000024F4005E
:040000050800019955
:00000001FF
