:020000040800F2
:1000000080040020AD010008771300084B1200089F
:1000100075130008210500084D15000800000000B8
:100020000000000000000000000000007114000843
:10003000230500080000000079130008731400086D
:10004000C7010008C7010008C7010008C701000870
:10005000C7010008C7010008C7010008C701000860
:10006000C7010008C7010008C7010008C701000850
:10007000C7010008C7010008C7010008C701000840
:10008000C7010008C7010008C70100080000000000
:10009000000000000000000000000000C701000890
:1000A000C7010008C7010008C7010008C701000810
:1000B000C7010008C7010008C7010008C701000800
:1000C000C7010008C7010008C7010008C7010008F0
:1000D000C7010008C7010008C701000800000000B0
:1000E000C7010008C7010008C701000800000000A0
:1000F000000000000000000000000000C701000830
:1001000000000000C7010008C7010008C70100087F
:1001100000000000000000000000000000000000DF
:10012000C7010008C7010008C7010008C70100088F
:10013000C7010008000000000000000000000000EF
:10014000000000000000000000000000C7010008DF
:10015000C7010008C7010008C7010008C70100085F
:10016000C7010008C70100080000000000000000EF
:10017000000000000000000000000000000000007F
:1001800000000000C701000800000000000000009F
:10019000C7010008C7010008DFF80CD000F0AEF975
:1001A000004800478D15000880040020064880475D
:1001B00006480047FEE7FEE7FEE7FEE7FEE7FEE74C
:1001C000FEE7FEE7FEE7FEE7F914000899010008E4
:1001D0002DE9F05F0546002092469B46884606467C
:1001E000814640241BE0284641464746224600F00F
:1001F000E0F853465A46C01A914110D311461846AA
:10020000224600F0C7F82D1A67EB01084F46224638
:100210000120002100F0BEF817EB00094E41201E1E
:10022000A4F10104DFDC484631462A464346BDE8D6
:10023000F09FD2B201E000F8012B491EFBD27047BB
:100240000022F6E710B513460A4604461946FFF7A2
:10025000F0FF204610BD2DE9FE4F81EA030404F0B3
:10026000004421F0004100944FF0000B23F00043C4
:1002700050EA01045ED052EA03045BD0C3F30A548F
:10028000C1F30A552C44A4F2F3340194A0FB0254A8
:10029000C1F3130141F48011C3F3130343F480133A
:1002A00001FB024400FB034E840A970A44EA81548E
:1002B00047EA8357A4FB076802958D0A05FB07856B
:1002C0004FEA932C04FB0C542705029D4FEA065875
:1002D00047EA1637B5EB08056EEB070C870E920E52
:1002E00047EA811742EA8312A7FB0201B6EB0B0132
:1002F00064EB00042B0D43EA0C335E1844EB1C50F6
:10030000DA465146E7FB0201C5F313044FEA0B330B
:1003100043EA14534FEA0432019C43EA0603A4F172
:100320000C040294009CCDE900B400F098F803B0EE
:10033000BDE8F08F00200146F9E70EB5C10F80EA55
:10034000E0700844CA07002140F233438DE80E00F4
:100350000A460B4600F083F803B000BD01F00043ED
:1003600030B421F0004150EA010206D00A0DA2F596
:100370006072C1F31301002A02DC30BC0020704718
:10038000440F44EAC104C100E01830BC00EBC25085
:1003900000F01FB8202A04DB203A00FA02F1002006
:1003A00070479140C2F1200320FA03F319439040B3
:1003B0007047202A04DB203A21FA02F0002170471E
:1003C00021FA02F3D040C2F12002914008431946BD
:1003D00070470029A8BF7047401C490008BF20F0A3
:1003E0000100704710B4B0FA80FC00FA0CF050EA3B
:1003F000010404BF10BC704749B1CCF1200421FABC
:1004000004F411FA0CF118BF012121430843A3EBB6
:100410000C01CB1D4FEA00614FEA102042BF0020C3
:1004200010BC704700EBC35010440029A4BF10BC9F
:100430007047401C490008BF20F0010010BC704705
:1004400010B5141E73F1000408DA401C41F10001DC
:1004500092185B411A4301D120F0010010BD2DE933
:10046000F04D92469B4611B1B1FA81F202E0B0FA2A
:1004700080F220329046FFF78DFF04460F4640EA97
:100480000A0041EA0B0153465A46084313D011466D
:1004900053EA010019D0C8F140025046FFF789FF26
:1004A00005460E46504659464246FFF773FF08433D
:1004B00005D0012004E020463946BDE8F08D00203B
:1004C000054346EAE0762C4337430A986305E40A7D
:1004D000A0EB08000022FD0A44EA47540A3002D586
:1004E00000200146E9E7010510196941DDE90845E9
:1004F00000196941BDE8F04DA2E70000064C074D28
:1005000006E0E06840F0010394E8070098471034E3
:10051000AC42F6D3FFF744FE90160008B016000870
:10052000FEE7704770B5044600F0D8F80546601C39
:1005300002D004480078044400F0D0F8401BA042E8
:10054000FAD370BD140000202DE9F84FDFF860B138
:1005500000224FF001084FF0030A4FF00F090BF192
:10056000040E00BF0B6808FA02F42340A3426ED1C8
:100570004D68022D01D0122D0ED1D50800EB850C4F
:10058000DCF820505607F70E09FA07F6B5430E6956
:10059000BE402E43CCF82060066855000F790AFA59
:1005A00005FC07F0030726EA0C06AF403743076057
:1005B0004E68012E05D0022E03D0112E01D0122E2E
:1005C0000ED18668CF6826EA0C06AF4037438760B5
:1005D0004668A6430C79C4F3001494403443446045
:1005E000C6688C6826EA0C06AC403443C4604C688C
:1005F000E40056D52F4C256845F4804525602468D5
:1006000022F0030504F4804400942B4C2E19D6F8F4
:10061000084895072F0F09FA07F5AC43274DA84264
:1006200001D1002515E0264DA84201D1012510E099
:10063000244DA84201D102250BE0234DA84201D14F
:10064000032506E0214DA84202D1042501E028E05F
:100650000725BD402543C6F80858DBF800405D4635
:100660004E689C43F60300D51C432C60DEF8004026
:1006700075464E689C43B60300D51C432C600C4D58
:1006800008352C684E689C43F60200D51C432C604C
:10069000074D0C352C684E689C43B60200D51C43B0
:1006A0002C60521C102AFFF45DAFBDE8F88F0000EB
:1006B000003C01404438024000300140000002404C
:1006C0000004024000080240000C024000100240FA
:1006D0000AB1816170470904FBE7000001488068A6
:1006E000704700001400002002488168027811441D
:1006F00081607047140000200B4810B5016841F478
:1007000000710160016841F480610160016841F499
:1007100080710160032000F061F8002000F006F80D
:1007200000F024F8002010BD003C024070B50D4DD3
:1007300004464FF47A712878B1FBF0F00A49096851
:10074000B1FBF0F000F06DFD48B9102C07D200228B
:100750002146501E00F022F800206C6070BD012080
:1007600070BD000014000020200000200A4808B5D9
:10077000016841F480410160006800F4804000900D
:100780000548001F016841F080510160006800F0D9
:100790008050009008BD000044380240F0B40E4B79
:1007A0001B680C46C3F30223C3F10705042D00D9CF
:1007B0000425191D072901D2002300E0DB1E0126B4
:1007C00006FA05F1491E214099409E40761E1640CA
:1007D0003143F0BC00F0BBBE0CED00E0064900F078
:1007E000070208684FF6FF03184040EA0220034A58
:1007F00010430860704700000CED00E00000FA05AF
:100800002DE9F0470E46050065D0DFF81481D8F8D1
:100810000000F7B200F00F00B04207D288F8007075
:10082000D8F8000000F00F00B04254D128683D4CC9
:10083000810712D5400703D5206840F4E0502060BE
:100840002878000703D5206840F4604020602068C5
:10085000A96820F0F000084320602878C0072DD058
:10086000304968680839012812D0022813D00328BB
:1008700011D00968890700292DDA216821F00301C8
:1008800001432160FFF72AFF814641F2883A0EE0DA
:1008900009688903EFE709688901ECE7FFF71EFFA4
:1008A000A0EB0901514502D90320BDE8F08720687B
:1008B000696800F00C00B0EB810FEFD1D8F80010A0
:1008C000404601F00F01B14207D90770006800F0FF
:1008D0000F00B04201D00120E7E72878400705D596
:1008E0002068E96820F4E050084320602878000779
:1008F00006D52068296920F4604040EAC1002060E4
:1009000000F016F82168084AC1F30311515CC84091
:10091000064908600020FFF709FF0020C5E7000036
:10092000003C0240083802408016000820000020E9
:10093000154810B5006810F00C02144813D041108F
:10094000042A0FD0082A0ED10F4C241F22682368D6
:1009500002F03F025B0207D52068C0F38810A0FBBD
:10096000010106E0084610BD2168C1F38811A1FB12
:1009700000010023FFF72CFC2168C1F30141491C51
:100980004900B0FBF1F010BD083802400024F4002B
:100990002DE9F84F050076D02878DFF8F8B2BE4C84
:1009A000C00749D0DBF800105846C1F38101012986
:1009B00008D00068C0F3810002280AD1201D006819
:1009C000400206D52068800336D568680028E2D04A
:1009D00032E06868B0F5803F10D0B0F5A02F2068F5
:1009E00010D020F480302060206820F48020206027
:1009F0006868A0B1FFF772FE06460CE0206840F47C
:100A00008030F4E740F480202060F7E7FFF766FECF
:100A1000801B642873D820688003F7D50CE0FFF7AB
:100A20005DFE064605E000BFFFF758FE801B642808
:100A3000F0D820688003F7D42878DFF86082800738
:100A40004FF000093ED5DBF80010584611F00C0FAE
:100A500009D00068C0F3810002280BD18D48001F27
:100A60000068400206D42068800715D5E868012890
:100A700009D111E0E868B8B10120C8F80000FFF71B
:100A80002DFE064605E002E1FFF728FE801B022846
:100A9000C0D820688007F7D52068296920F0F800C1
:100AA00040EAC10020600DE0C8F80090FFF716FE94
:100AB000064604E0FFF712FE801B02281FD82068BC
:100AC0008007F7D42878000722D5724E74486969E8
:100AD0006C3671B101210160FFF700FE074604E0AA
:100AE000FFF7FCFDC01B022809D830688007F7D546
:100AF0000EE0C0F80090FFF7F1FD074605E083E047
:100B0000FFF7ECFDC01B02287ED830688007F7D4C1
:100B10002878400768D5DFF87CA100270AF1380A59
:100B2000DAF80000C0000BD4DAF8001041F0805170
:100B3000CAF80010DAF80000012700F08050009099
:100B4000584E3068C00510D4306840F48070306072
:100B5000FFF7C4FD009005E0FFF7C0FD0099401AC3
:100B6000022851D83068C005F6D54A4EA8686836C4
:100B700001280FD00528306810D020F00100306027
:100B8000306820F004003060A868B8B1FFF7A6FD17
:100B900000900FE0306840F00100F4E740F00400FE
:100BA0003060F7E7FFF79AFD0099411A41F288306B
:100BB000814264D830688007F4D50EE0FFF78EFDDF
:100BC000009007E0FFF78AFD0099411A41F2883052
:100BD000814254D830688007F4D42FB1DAF800107D
:100BE00021F08051CAF80010A869C0B3DBF80010EA
:100BF000C1F3810102294AD00228484607D0C8F82B
:100C00006000FFF76BFD00E039E005463AE047463B
:100C1000C8F86000FFF762FD064604E0FFF75EFDDE
:100C2000801B02282BD820688001F7D4D5E9070162
:100C30000843A96A1C4A490802EB01416A6A41EA71
:100C40008211084395F82C1040EA01611148001FF9
:100C5000016001203866FFF741FD054605E014E01C
:100C6000FFF73CFD401B022809D820688001F7D51A
:100C70000BE000BFFFF732FD401B022802D9032022
:100C8000BDE8F88F20688001F4D40020F8E7012047
:100C9000F6E70000083802400038024000004742F2
:100CA000800E4742007000400000FFFF70B5040056
:100CB00005D00025A56294F8510010B106E001208E
:100CC00070BD84F85050204600F030F8022084F8BF
:100CD00051002068016821F040010160D4E9010160
:100CE0000843D4E903121143084361690843218B87
:100CF00001F400710843E1690843216A0843A16ACD
:100D0000084321680860A069042101EA1040616A73
:100D10000843216848602068C16921F40061C1610D
:100D20006565012084F85100002070BD10B586B0C3
:100D3000044614216846FFF783FA13492068884265
:100D400020D112480021026842F4805202600068FB
:100D500000F4805005900D481438026842F00102FA
:100D60000260006800F001000590E0200090022081
:100D7000CDE9010103200390052004906946044851
:100D8000FFF7E2FB06B010BD0030014044380240DE
:100D9000000002402DE9F84F0446406800259846BF
:100DA00016460F464FF0040BB0F5827F01D1A068C4
:100DB00088B194F85000012818D0012084F8500020
:100DC000FFF78CFC814694F851004FF0000A01288F
:100DD0000ED002257DE084F851B013460A46204625
:100DE000CDF8008000F02CF9BDE8F88F0220FBE779
:100DF000002F6DD0002E6BD084F851B0C4F854A0F1
:100E0000A763A687E687C4F830A0A4F834A0A4F8A6
:100E100036A0C4F840A0C4F844A0A068B0F5004FC4
:100E200004D12068016821F48041016020680168D4
:100E3000490603D4016841F040010160E068D8B17F
:100E400039E020688168C90709D0007BA16B087070
:100E5000A06B401CA063E08F401EE0870CE0FFF712
:100E60003DFCA0EB0901414503D3B8F1FF3F03D09E
:100E700036E0B8F1000F33D0E08F0028E1D11DE05B
:100E800020688168C90709D0C068A16B0880A06B81
:100E9000801CA063E08F401EE0870CE0FFF71EFC83
:100EA000A0EB0901414503D3B8F1FF3F03D017E0A0
:100EB000B8F1000F14D0E08F0028E1D14A46414636
:100EC000204600F05AFA08B120206065606D00B13C
:100ED0000125012084F8510084F850A0284683E7BA
:100EE0000325F6E72DE9F84F044690F85000002757
:100EF0001D461646894601280DD04FF0010B84F897
:100F000050B0FFF7EBFB804694F85100BA46012839
:100F100004D002278EE00220BDE8F88FB9F1000F5F
:100F20007DD0002E7BD0032084F85100C4F854A05B
:100F3000C4F83090A686E686C4F838A0A4F83CA091
:100F4000A4F83EA0C4F844A0C4F840A0A068B0F53E
:100F5000004F04D12068016841F48041016020689D
:100F60000168490603D4016841F040010160E0686E
:100F7000B0F5006F606803D030B3012E24D040E09C
:100F800008B1012E1CD1206B21680088C86006E0E2
:100F900020688168890709D5216B0988C160206BA9
:100FA000801C2063E08E401EE08609E0FFF796FB80
:100FB000A0EB0800A84202D3681C01D031E07DB349
:100FC000E08E0028E4D11FE0206B216800780873D0
:100FD00006E020688168890709D5216B09780173CB
:100FE000206B401C2063E08E401EE08609E0FFF786
:100FF00075FBA0EB0800A84202D3681C01D010E0EA
:1010000075B1E08E0028E4D142462946204600F022
:10101000D5F908B120206065A06820B107E008E09C
:10102000FFE7032706E02068C16880680090606DD4
:1010300000B1012784F851B084F850A038466BE71E
:101040002DE9F84F044690F8500000270A9E1D46EF
:1010500092468B464FF0010901280ED0012084F8FA
:101060005000FFF73BFB804694F85100616801286F
:101070000CD0B1F5827F07D102E00220BDE8F88FE5
:10108000A16809B9042801D00227C2E0BBF1000F12
:1010900027D0BAF1000F24D01DB394F851000428D2
:1010A00002D0052084F8510000206065C4F838A003
:1010B000E587A587C4F830B0E586A586206460641E
:1010C00020680168490603D4016841F040010160CD
:1010D000E068B0F5006F606805D0E8B3012D46D038
:1010E0007FE0012795E008B1012D39D1206B2168FF
:1010F0000088C860206B801C2063E08E401EE08664
:101100002EE02068816889070FD5E18E69B1B9F1B9
:10111000010F0AD1216B0988C160206B801C2063FC
:10112000E08E401EE0864FF0000920688168C90704
:101130000CD0E18F51B1C068A16B0880A06B801CFE
:10114000A063E08F401EE0874FF00109FFF7C6FA69
:10115000A0EB0800B04200E009E001D3701C50D1C0
:10116000E08E0028CDD1E08F0028CAD13FE0206B6F
:10117000216800780873206B401C2063E08E401EBD
:10118000E0862EE02068816889070FD5E18E69B17D
:10119000B9F1010F0AD1216B09780173206B401C52
:1011A0002063E08E401EE0864FF0000920688168D1
:1011B000C9070CD0E18F51B1C068A16B0870A06B5A
:1011C000401CA063E08F401EE0874FF00109FFF74D
:1011D00085FAA0EB0800B04202D3701C01D010E0E9
:1011E0007EB1E08E0028CDD1E08F0028CAD14246E2
:1011F0003146204600F0E2F828B101272020606542
:1012000007E0032705E0A06818B92068C168806876
:101210000090012084F85100002084F850003846E6
:101220002CE710B5401EB0F1807F01D3012010BD26
:101230004FF0E02460610F21601700F088F9002072
:10124000A06107202061002010BDFEE713B50C4C03
:10125000002208212046FFF73BFA64230122694659
:101260000848FFF73FFE6423012201A90548FFF764
:1012700039FE012208212046FFF72AFA1CBD000092
:10128000001002402400002011B5104C81B0002253
:1012900008212046FFF71CFA9DF80400642340F063
:1012A00080008DF80400012201A90948FFF71AFE09
:1012B0006423012269460648FFF76CFD01220821DC
:1012C0002046FFF705FA9DF800001CBD0010024003
:1012D0002400002030B587B014216846FEF7B0FF27
:1012E00015480024016841F010010160016801F017
:1012F00010010591016841F080010160016801F071
:1013000080010591016841F00101016000680B4D09
:1013100000F001000590002208212846FFF7D8F9C7
:10132000082000900120CDE9010469462846039475
:10133000FFF70AF907B030BD303802400010024014
:101340000B480A494FF4007201604FF4827141600A
:1013500000218160C1600161C0E90512C1610162C3
:10136000416281620A21C162FFF7A0BC00300140E6
:1013700024000020FEE77047704738B504464068F7
:10138000B0F5827F0BD1A068B0F5004F02D0B0F568
:10139000806F04D12068036823F0400303600B468C
:1013A000009200228021204600F018F8002804D086
:1013B000606D40F020006065032038BD38B50B46F5
:1013C000009204460022802100F008F8002804D092
:1013D000606D40F020006065032038BD2DE9F041CC
:1013E0001D4617460E460446DDF8188008E0681CC6
:1013F00006D0FFF773F9A0EB0800A8420BD255B155
:101400002068806836EA000030D00020B842EED173
:101410000020BDE8F0812068416821F0E0014160D2
:101420006068B0F5827F0BD1A068B0F5004F02D0A4
:10143000B0F5806F04D12068016821F0400101609F
:10144000A06AB0F5005F09D12068016821F400515D
:1014500001602068016841F400510160012084F8B6
:101460005100002084F850000320D2E70120CDE78E
:101470007047FFF739B9000030B593B030216846A6
:10148000FEF7DEFE14210CA8FEF7DAFE1848002550
:10149000016841F080510160006800F080501190B7
:1014A0001448016841F4404101600068022400F4DE
:1014B0004040119001200090000401908001CDE98E
:1014C000064008AA0420642182E813000B906846B5
:1014D000FFF75EFA0CA90F2081E83100E002CDE9A8
:1014E0000F0503210CA8FFF78BF913B030BD0000E6
:1014F00040380240007000401048016841F470011B
:1015000001600F48016841F0010101600C4A0021AF
:101510000832116002680B4B1A400260031D0A4A30
:101520001A60026822F48022026005480C300160D3
:1015300002495806803908607047000088ED00E0D5
:1015400000380240FFFFF6FE10300024FEE70907D6
:10155000090E002804DB00F1E02080F80014704739
:1015600000F00F0000F1E02080F8141D704702E049
:1015700008C8121F08C1002AFAD17047704700201E
:1015800001E001C1121F002AFBD170472DED048B31
:10159000FFF7B2F8FFF770FFFFF79CFEFFF7D0FEF2
:1015A0000F20FFF771FEFF212020FFF74FFE1021D3
:1015B0002320FFF74BFE2D4C9FED2D8B9FED2E9B97
:1015C0004FF4FA762820FFF75FFE05462920FFF743
:1015D0005BFE45EA002060802A20FFF755FE0546A5
:1015E0002B20FFF751FE45EA0020A0802C20FFF7BA
:1015F0004BFE05462D20FFF747FE45EA002005B2C9
:10160000E580B4F90200FEF798FE53EC182BFEF7C4
:1016100022FE53EC192BFEF71EFEFEF79FFEA06084
:10162000B4F90400FEF789FE53EC182BFEF713FE05
:1016300053EC192BFEF70FFEFEF790FEE0602846F4
:10164000FEF77BFE53EC182BFEF705FE53EC192B2F
:10165000FEF701FEFEF782FE20612620FFF714FE52
:1016600020703046FEF75EFFACE70000000000206F
:101670000000000000803140FCA9F1D24D62503FD3
:101680000000000000000000010203040607080932
:10169000B016000800000020240000006E150008AD
:1016A000D4160008240000205C0400007E15000809
:1016B000000000000000000000000000000000002A
:1016C0000000000001000000100000000000000009
:0416D0000024F400FE
:040000050800019955
:00000001FF
