:020000040800F2
:1000000050040020AD010008B70E0008FF0D0008E5
:10001000B50E0008B9020008C71000080000000073
:10002000000000000000000000000000BB0E0008FF
:10003000BB02000800000000B90E0008BD0E000859
:10004000C7010008C7010008C7010008C701000870
:10005000C7010008C7010008C7010008C701000860
:10006000C7010008C7010008C7010008C701000850
:10007000C7010008C7010008C7010008C701000840
:10008000C7010008C7010008C70100080000000000
:10009000000000000000000000000000C701000890
:1000A000950F0008B90F0008AD0F0008A10F000858
:1000B000C7010008C7010008C7010008C701000800
:1000C000C7010008C7010008C7010008C7010008F0
:1000D000C7010008C7010008C701000800000000B0
:1000E000C7010008C7010008C701000800000000A0
:1000F000000000000000000000000000C701000830
:1001000000000000C7010008C7010008C70100087F
:1001100000000000000000000000000000000000DF
:10012000C7010008C7010008C7010008C70100088F
:10013000C7010008000000000000000000000000EF
:10014000000000000000000000000000C7010008DF
:10015000C7010008C7010008C7010008C70100085F
:10016000C7010008C70100080000000000000000EF
:10017000000000000000000000000000000000007F
:1001800000000000C701000800000000000000009F
:10019000C7010008C7010008DFF80CD000F07AF8AA
:1001A0000048004709110008500400200648804715
:1001B00006480047FEE7FEE7FEE7FEE7FEE7FEE74C
:1001C000FEE7FEE7FEE7FEE7410F000899010008A1
:1001D0002DE9F05F0546002092469B46884606467C
:1001E000814640241BE0284641464746224600F00F
:1001F00041F853465A46C01A914110D31146184649
:10020000224600F028F82D1A67EB01084F462246D7
:100210000120002100F01FF817EB00094E41201EBD
:10022000A4F10104DFDC484631462A464346BDE8D6
:10023000F09FD2B201E000F8012B491EFBD27047BB
:100240000022F6E710B513460A4604461946FFF7A2
:10025000F0FF204610BD202A04DB203A00FA02F10C
:10026000002070479140C2F1200320FA03F31943A4
:1002700090407047202A04DB203A21FA02F0002146
:10028000704721FA02F3D040C2F1200291400843A6
:1002900019467047064C074D06E0E06840F0010340
:1002A00094E8070098471034AC42F6D3FFF778FF84
:1002B0005011000870110008FEE7704770B5044641
:1002C00000F0DEF80546601C02D0044800780444C3
:1002D00000F0D6F8401BA042FAD370BD0000002009
:1002E0002DE9F84FDFF860B100224FF001084FF020
:1002F000030A4FF00F090BF1040E00BF0B6808FA58
:1003000002F42340A3426ED14D68022D01D0122D7C
:100310000ED1D50800EB850CDCF820505607F70EFF
:1003200009FA07F6B5430E69BE402E43CCF82060AB
:10033000066855000F790AFA05FC07F0030726EA5C
:100340000C06AF40374307604E68012E05D0022EE1
:1003500003D0112E01D0122E0ED18668CF6826EA66
:100360000C06AF40374387604668A6430C79C4F358
:100370000014944034434460C6688C6826EA0C0636
:10038000AC403443C4604C68E40056D52F4C25681B
:1003900045F480452560246822F0030504F4804478
:1003A00000942B4C2E19D6F8084895072F0F09FA00
:1003B00007F5AC43274DA84201D1002515E0264D95
:1003C000A84201D1012510E0244DA84201D1022507
:1003D0000BE0234DA84201D1032506E0214DA842A0
:1003E00002D1042501E028E00725BD402543C6F8D9
:1003F0000858DBF800405D464E689C43F60300D584
:100400001C432C60DEF8004075464E689C43B603E2
:1004100000D51C432C600C4D08352C684E689C435D
:10042000F60200D51C432C60074D0C352C684E6835
:100430009C43B60200D51C432C60521C102AFFF4CA
:100440005DAFBDE8F88F0000003C01404438024039
:100450000030014000000240000402400008024059
:10046000000C024000100240426931EA020200D151
:100470000904816170470AB1816170470904FBE793
:100480000148806870470000000000200248816831
:100490000278114481607047000000200B4810B5BD
:1004A000016841F400710160016841F480610160FC
:1004B000016841F480710160032000F06FF80020B2
:1004C00000F006F800F024F8002010BD003C0240C7
:1004D00070B50D4D04464FF47A712878B1FBF0F0F9
:1004E0000A490968B1FBF0F000F0C0FA48B9102CD5
:1004F00007D200222146501E00F030F800206C6028
:1005000070BD012070BD0000000000200C00002024
:100510000A4808B5016841F480410160006800F4B0
:10052000804000900548001F016841F08051016043
:10053000006800F08050009008BD00004438024080
:10054000002809DB00F01F020121914040098000D2
:1005500000F1E020C0F8001170470000F0B40E4B2D
:100560001B680C46C3F30223C3F10705042D00D911
:100570000425191D072901D2002300E0DB1E0126F6
:1005800006FA05F1491E214099409E40761E16400C
:100590003143F0BC00F098BD0CED00E0064900F0DE
:1005A000070208684FF6FF03184040EA0220034A9A
:1005B00010430860704700000CED00E00000FA05F1
:1005C0002DE9F0470E46050065D0DFF81481D8F814
:1005D0000000F7B200F00F00B04207D288F80070B8
:1005E000D8F8000000F00F00B04254D128683D4C0C
:1005F000810712D5400703D5206840F4E050206001
:100600002878000703D5206840F460402060206807
:10061000A96820F0F000084320602878C0072DD09A
:10062000304968680839012812D0022813D00328FD
:1006300011D00968890700292DDA216821F003010A
:1006400001432160FFF71CFF814641F2883A0EE02A
:1006500009688903EFE709688901ECE7FFF710FFF4
:10066000A0EB0901514502D90320BDE8F0872068BD
:10067000696800F00C00B0EB810FEFD1D8F80010E2
:10068000404601F00F01B14207D90770006800F041
:100690000F00B04201D00120E7E72878400705D5D8
:1006A0002068E96820F4E0500843206028780007BB
:1006B00006D52068296920F4604040EAC100206026
:1006C00000F016F82168084AC1F30311515CC840D4
:1006D000064908600020FFF7FBFE0020C5E7000088
:1006E000003C024008380240401100080C00002085
:1006F000154810B5006810F00C02144813D04110D2
:10070000042A0FD0082A0ED10F4C241F2268236818
:1007100002F03F025B0207D52068C0F38810A0FBFF
:10072000010106E0084610BD2168C1F38811A1FB54
:1007300000010023FFF74CFD2168C1F30141491C72
:100740004900B0FBF1F010BD083802400024F4006D
:100750002DE9F84F050076D02878DFF8F8B2BE4CC6
:10076000C00749D0DBF800105846C1F381010129C8
:1007700008D00068C0F3810002280AD1201D00685B
:10078000400206D52068800336D568680028E2D08C
:1007900032E06868B0F5803F10D0B0F5A02F206837
:1007A00010D020F480302060206820F48020206069
:1007B0006868A0B1FFF764FE06460CE0206840F4CC
:1007C0008030F4E740F480202060F7E7FFF758FE20
:1007D000801B642873D820688003F7D50CE0FFF7EE
:1007E0004FFE064605E000BFFFF74AFE801B642867
:1007F000F0D820688003F7D42878DFF8608280077B
:100800004FF000093ED5DBF80010584611F00C0FF0
:1008100009D00068C0F3810002280BD18D48001F69
:100820000068400206D42068800715D5E8680128D2
:1008300009D111E0E868B8B10120C8F80000FFF75D
:100840001FFE064605E002E1FFF71AFE801B0228A4
:10085000C0D820688007F7D52068296920F0F80003
:1008600040EAC10020600DE0C8F80090FFF708FEE4
:10087000064604E0FFF704FE801B02281FD820680C
:100880008007F7D42878000722D5724E744869692A
:100890006C3671B101210160FFF7F2FD074604E0FB
:1008A000FFF7EEFDC01B022809D830688007F7D596
:1008B0000EE0C0F80090FFF7E3FD074605E083E097
:1008C000FFF7DEFDC01B02287ED830688007F7D412
:1008D0002878400768D5DFF87CA100270AF1380A9C
:1008E000DAF80000C0000BD4DAF8001041F08051B3
:1008F000CAF80010DAF80000012700F080500090DC
:10090000584E3068C00510D4306840F480703060B4
:10091000FFF7B6FD009005E0FFF7B2FD0099401A21
:10092000022851D83068C005F6D54A4EA868683606
:1009300001280FD00528306810D020F00100306069
:10094000306820F004003060A868B8B1FFF798FD67
:1009500000900FE0306840F00100F4E740F0040040
:100960003060F7E7FFF78CFD0099411A41F28830BB
:10097000814264D830688007F4D50EE0FFF780FD2F
:10098000009007E0FFF77CFD0099411A41F28830A2
:10099000814254D830688007F4D42FB1DAF80010BF
:1009A00021F08051CAF80010A869C0B3DBF800102C
:1009B000C1F3810102294AD00228484607D0C8F86D
:1009C0006000FFF75DFD00E039E005463AE047468C
:1009D000C8F86000FFF754FD064604E0FFF750FD3D
:1009E000801B02282BD820688001F7D4D5E90701A5
:1009F0000843A96A1C4A490802EB01416A6A41EAB4
:100A00008211084395F82C1040EA01611148001F3B
:100A1000016001203866FFF733FD054605E014E06C
:100A2000FFF72EFD401B022809D820688001F7D56A
:100A30000BE000BFFFF724FD401B022802D9032072
:100A4000BDE8F88F20688001F4D40020F8E7012089
:100A5000F6E7000008380240003802400000474234
:100A6000800E4742007000400000FFFF10B5401E9E
:100A7000B0F1807F01D3012010BD4FF0E024606110
:100A80000F21601700F020FB0020A06107202061EB
:100A9000002010BD7047704770B590F83C20012AC7
:100AA00019D0012400F83C4F0222427050F83C3C1F
:100AB0005A689D6822F070060A684968324325F03A
:100AC000800529435A6050F83C2C91604470002105
:100AD0000170084670BD022070BD10B5040003D03F
:100AE00094F83D0010B107E0012010BD002084F80B
:100AF0003C00204600F00CF8022084F83D00211D47
:100B0000206800F05FFA012084F83D00002010BD4D
:100B100008B50068174988422AD11748016841F092
:100B2000010101600068002200F001000090114600
:100B30001820FFF713FD1820FFF702FD00221146D1
:100B40001920FFF70BFD1920FFF7FAFC00221146D0
:100B50001A20FFF703FD1A20FFF7F2FC00221146CE
:100B60001B20FFF7FBFCBDE808401B20FFF7E8BC9B
:100B700008BD000000000140443802400168CA6816
:100B800042F00102CA600068816801F0070106298D
:100B900003D0016841F0010101600020704770B589
:100BA000044690F83C00012817D0012584F83C50F9
:100BB000022084F83D002068826822F0770222F447
:100BC0007F4282600868502830D00DDC20284DD04C
:100BD00005DC98B310283BD148E0022070BD3028D6
:100BE00044D0402834D139E0602828D0702806D07D
:100BF000B0F5805F2CD0B0F5005F29D10AE0CB685A
:100C0000D1E90121206800F029FA2068816841F0CB
:100C1000770109E0CB68D1E90121206800F01EFAD4
:100C20002068816841F48041816011E0CA684968A8
:100C3000206800F025FA5021206807E016E0CA6815
:100C40004968206800F02DFA6021206800F010FA51
:100C500084F83D50002084F83C0070BDCA684968A3
:100C6000206800F00DFA40212068EFE72268014675
:100C70001046EBE7704770B50446006801694FF015
:100C80000005C943890715D4C168C943890711D430
:100C9000E91E0161012020772068806980072046D5
:100CA00002D0FFF7E7FF04E000F098F8204600F0DC
:100CB00096F8257720680169C943490717D4C168A8
:100CC000C943490713D46FF0040101610220207762
:100CD0002068806910F4407F204602D0FFF7CAFFE9
:100CE00004E000F07BF8204600F079F825772068D2
:100CF0000169C943090716D4C168C943090712D459
:100D00006FF008010161042020772068C069800726
:100D1000204602D0FFF7AEFF04E000F05FF8204667
:100D200000F05DF8257720680169C943C90617D42A
:100D3000C168C943C90613D46FF0100101610820CE
:100D400020772068C06910F4407F204602D0FFF76A
:100D500091FF04E000F042F8204600F040F82577CB
:100D600020680169C943C90708D1C168C943C907D7
:100D700004D1891E0161204600F032F82068016923
:100D8000C943090609D4C168C943090605D46FF0EF
:100D9000800101612046FFF77DFE20680169C9439B
:100DA000490609D4C168C943490605D46FF040011A
:100DB0000161204600F022F820680169C9438906D4
:100DC0000BD4C168C943890607D46FF020010161C3
:100DD0002046BDE87040FFF75EBE70BD70477047AB
:100DE00000680449884203D141140348FFF73CBB23
:100DF0007047000000000140000C02407047FEE711
:100E000070B586B014216846FFF71AFA124800241C
:100E1000016841F080010160016801F080010591E5
:100E2000016841F00801016000680C4E00F0080004
:100E30004FF440550590224629463046FFF71BFBEC
:100E400001200095CDE90104694630460394FFF77F
:100E500047FA06B070BD000030380240000C024076
:100E600010B586B0002412480094019402940394B3
:100E700004940E490594016042F21071C0E9011416
:100E8000C0E9031444618461FFF727FE4FF48050EA
:100E9000009069460648FFF782FE049404A90448BE
:100EA0000594FFF7F9FD06B010BD000000000140F9
:100EB00010000020FEE7704770477047FFF7E6BA62
:100EC00030B593B030216846FFF7BAF914210CA869
:100ED000FFF7B6F918480025016841F0805101601C
:100EE000006800F0805011901448016841F44041BE
:100EF00001600068022400F440401190012000903D
:100F0000000401908001CDE9064008AA0420642174
:100F100082E813000B906846FFF71AFC0CA90F201B
:100F200081E83100E002CDE90F0503210CA8FFF7AD
:100F300047FB13B030BD0000403802400070004055
:100F40001048016841F4700101600F48016841F0E8
:100F5000010101600C4A00210832116002680B4B4C
:100F60001A400260031D0A4A1A60026822F48022B5
:100F7000026005480C30016002495806803908605B
:100F80007047000088ED00E000380240FFFFF6FEE9
:100F9000103000240148FFF76EBE00001000002052
:100FA0000148FFF768BE0000100000200148FFF76D
:100FB00062BE0000100000200148FFF75CBE000088
:100FC00010000020F0B502681D4B1E4C9F031E4D03
:100FD0001E4E984207D0B84205D0A04203D0A84286
:100FE00001D0B04204D122F0700C4A6842EA0C02EF
:100FF000984210D0B8420ED0A0420CD0A8420AD0DD
:10100000B04208D0124CA04205D0124CA04202D0EF
:10101000114CA04203D122F44074CA6822434C69A7
:1010200022F08002224302608A68C2620A688262F9
:10103000984201D10969016301214161F0BD0000BD
:10104000000001400004004000080040000C004087
:1010500000400140004401400048014010B5846850
:1010600042EA032224F47F440A432243826010BDF3
:10107000826822F070020A4342F0070181607047E3
:1010800010B5036A046A24F001040462846924F040
:10109000F00444EA021423F00A020A438461026263
:1010A00010BD10B5036A23F0100303628369046A5C
:1010B00023F4704343EA023224F0A00343EA01110F
:1010C0008261016210BDFEE70907090E002804DBFA
:1010D00000F1E02080F80014704700F00F0000F1EC
:1010E000E02080F8141D704702E008C8121F08C1F4
:1010F000002AFAD170477047002001E001C1121F99
:10110000002AFBD170470000FFF7C8F9FFF7D8FEAF
:10111000FFF776FEFFF7A4FE0748FFF72FFD074D08
:101120004FF4805440F6B83621462846FFF79CF924
:101130003046FFF7C3F8F7E710000020000C02402C
:101140000000000000000000010203040607080977
:10115000701100080000002010000000E8100008D6
:10116000801100081000002040040000F810000862
:101170000100000010000000000000000024F40046
:040000050800019955
:00000001FF
